{
  "contractName": "SingleTokenGame",
  "abi": [
    {
      "constant": true,
      "inputs": [],
      "name": "name",
      "outputs": [
        {
          "name": "",
          "type": "string"
        }
      ],
      "payable": false,
      "stateMutability": "view",
      "type": "function"
    },
    {
      "constant": false,
      "inputs": [
        {
          "name": "spender",
          "type": "address"
        },
        {
          "name": "value",
          "type": "uint256"
        }
      ],
      "name": "approve",
      "outputs": [
        {
          "name": "",
          "type": "bool"
        }
      ],
      "payable": false,
      "stateMutability": "nonpayable",
      "type": "function"
    },
    {
      "constant": true,
      "inputs": [],
      "name": "totalSupply",
      "outputs": [
        {
          "name": "",
          "type": "uint256"
        }
      ],
      "payable": false,
      "stateMutability": "view",
      "type": "function"
    },
    {
      "constant": false,
      "inputs": [
        {
          "name": "sender",
          "type": "address"
        },
        {
          "name": "recipient",
          "type": "address"
        },
        {
          "name": "amount",
          "type": "uint256"
        }
      ],
      "name": "transferFrom",
      "outputs": [
        {
          "name": "",
          "type": "bool"
        }
      ],
      "payable": false,
      "stateMutability": "nonpayable",
      "type": "function"
    },
    {
      "constant": true,
      "inputs": [],
      "name": "decimals",
      "outputs": [
        {
          "name": "",
          "type": "uint8"
        }
      ],
      "payable": false,
      "stateMutability": "view",
      "type": "function"
    },
    {
      "constant": false,
      "inputs": [
        {
          "name": "spender",
          "type": "address"
        },
        {
          "name": "addedValue",
          "type": "uint256"
        }
      ],
      "name": "increaseAllowance",
      "outputs": [
        {
          "name": "",
          "type": "bool"
        }
      ],
      "payable": false,
      "stateMutability": "nonpayable",
      "type": "function"
    },
    {
      "constant": true,
      "inputs": [
        {
          "name": "account",
          "type": "address"
        }
      ],
      "name": "balanceOf",
      "outputs": [
        {
          "name": "",
          "type": "uint256"
        }
      ],
      "payable": false,
      "stateMutability": "view",
      "type": "function"
    },
    {
      "constant": true,
      "inputs": [
        {
          "name": "sender",
          "type": "address"
        }
      ],
      "name": "checkFreeze",
      "outputs": [
        {
          "name": "",
          "type": "bool"
        }
      ],
      "payable": false,
      "stateMutability": "view",
      "type": "function"
    },
    {
      "constant": true,
      "inputs": [],
      "name": "symbol",
      "outputs": [
        {
          "name": "",
          "type": "string"
        }
      ],
      "payable": false,
      "stateMutability": "view",
      "type": "function"
    },
    {
      "constant": false,
      "inputs": [
        {
          "name": "spender",
          "type": "address"
        },
        {
          "name": "subtractedValue",
          "type": "uint256"
        }
      ],
      "name": "decreaseAllowance",
      "outputs": [
        {
          "name": "",
          "type": "bool"
        }
      ],
      "payable": false,
      "stateMutability": "nonpayable",
      "type": "function"
    },
    {
      "constant": false,
      "inputs": [
        {
          "name": "recipient",
          "type": "address"
        },
        {
          "name": "amount",
          "type": "uint256"
        }
      ],
      "name": "transfer",
      "outputs": [
        {
          "name": "",
          "type": "bool"
        }
      ],
      "payable": false,
      "stateMutability": "nonpayable",
      "type": "function"
    },
    {
      "constant": true,
      "inputs": [
        {
          "name": "",
          "type": "address"
        }
      ],
      "name": "frozenAccount",
      "outputs": [
        {
          "name": "",
          "type": "bool"
        }
      ],
      "payable": false,
      "stateMutability": "view",
      "type": "function"
    },
    {
      "constant": true,
      "inputs": [
        {
          "name": "owner",
          "type": "address"
        },
        {
          "name": "spender",
          "type": "address"
        }
      ],
      "name": "allowance",
      "outputs": [
        {
          "name": "",
          "type": "uint256"
        }
      ],
      "payable": false,
      "stateMutability": "view",
      "type": "function"
    },
    {
      "inputs": [
        {
          "name": "_game_id",
          "type": "uint256"
        },
        {
          "name": "_name",
          "type": "string"
        },
        {
          "name": "_game_times",
          "type": "uint256"
        },
        {
          "name": "_price",
          "type": "uint256"
        },
        {
          "name": "_price_upper_rate",
          "type": "uint256"
        }
      ],
      "payable": false,
      "stateMutability": "nonpayable",
      "type": "constructor"
    },
    {
      "anonymous": false,
      "inputs": [
        {
          "indexed": false,
          "name": "bidder",
          "type": "address"
        },
        {
          "indexed": false,
          "name": "amount",
          "type": "uint256"
        },
        {
          "indexed": false,
          "name": "event_msg",
          "type": "string"
        }
      ],
      "name": "SendRecommend",
      "type": "event"
    },
    {
      "anonymous": false,
      "inputs": [
        {
          "indexed": false,
          "name": "bidder",
          "type": "address"
        },
        {
          "indexed": false,
          "name": "amount",
          "type": "uint256"
        },
        {
          "indexed": false,
          "name": "event_msg",
          "type": "string"
        }
      ],
      "name": "SendFeeBack",
      "type": "event"
    },
    {
      "anonymous": false,
      "inputs": [
        {
          "indexed": false,
          "name": "bidder",
          "type": "address"
        },
        {
          "indexed": false,
          "name": "amount",
          "type": "uint256"
        },
        {
          "indexed": false,
          "name": "event_msg",
          "type": "string"
        }
      ],
      "name": "SendPlatformFee",
      "type": "event"
    },
    {
      "anonymous": false,
      "inputs": [
        {
          "indexed": false,
          "name": "bidder",
          "type": "address"
        },
        {
          "indexed": false,
          "name": "amount",
          "type": "uint256"
        },
        {
          "indexed": false,
          "name": "event_msg",
          "type": "string"
        }
      ],
      "name": "CalcBonus",
      "type": "event"
    },
    {
      "anonymous": false,
      "inputs": [
        {
          "indexed": false,
          "name": "bidder",
          "type": "address"
        },
        {
          "indexed": false,
          "name": "amount",
          "type": "uint256"
        },
        {
          "indexed": false,
          "name": "event_msg",
          "type": "string"
        }
      ],
      "name": "TransferAmount",
      "type": "event"
    },
    {
      "anonymous": false,
      "inputs": [
        {
          "indexed": false,
          "name": "bidder",
          "type": "address"
        },
        {
          "indexed": false,
          "name": "amount",
          "type": "uint256"
        },
        {
          "indexed": false,
          "name": "buy_time",
          "type": "uint256"
        },
        {
          "indexed": false,
          "name": "event_msg",
          "type": "string"
        }
      ],
      "name": "BuyGameEvent",
      "type": "event"
    },
    {
      "anonymous": false,
      "inputs": [
        {
          "indexed": true,
          "name": "from",
          "type": "address"
        },
        {
          "indexed": true,
          "name": "to",
          "type": "address"
        },
        {
          "indexed": false,
          "name": "value",
          "type": "uint256"
        }
      ],
      "name": "Transfer",
      "type": "event"
    },
    {
      "anonymous": false,
      "inputs": [
        {
          "indexed": true,
          "name": "owner",
          "type": "address"
        },
        {
          "indexed": true,
          "name": "spender",
          "type": "address"
        },
        {
          "indexed": false,
          "name": "value",
          "type": "uint256"
        }
      ],
      "name": "Approval",
      "type": "event"
    },
    {
      "anonymous": false,
      "inputs": [
        {
          "indexed": false,
          "name": "target",
          "type": "address"
        },
        {
          "indexed": false,
          "name": "frozen",
          "type": "bool"
        }
      ],
      "name": "FrozenFunds",
      "type": "event"
    },
    {
      "constant": true,
      "inputs": [],
      "name": "getNow",
      "outputs": [
        {
          "name": "nowvalue",
          "type": "uint256"
        }
      ],
      "payable": false,
      "stateMutability": "view",
      "type": "function"
    },
    {
      "constant": true,
      "inputs": [],
      "name": "getDecimals",
      "outputs": [
        {
          "name": "",
          "type": "uint256"
        }
      ],
      "payable": false,
      "stateMutability": "view",
      "type": "function"
    },
    {
      "constant": true,
      "inputs": [],
      "name": "getOwner",
      "outputs": [
        {
          "name": "",
          "type": "address"
        }
      ],
      "payable": false,
      "stateMutability": "view",
      "type": "function"
    },
    {
      "constant": true,
      "inputs": [],
      "name": "getCurrentRoundInfo",
      "outputs": [
        {
          "name": "game_id",
          "type": "uint256"
        },
        {
          "name": "name",
          "type": "string"
        },
        {
          "name": "begin_time",
          "type": "uint256"
        },
        {
          "name": "game_times",
          "type": "uint256"
        },
        {
          "name": "last_buy_time",
          "type": "uint256"
        },
        {
          "name": "over_time",
          "type": "uint256"
        },
        {
          "name": "price",
          "type": "uint256"
        },
        {
          "name": "price_upper_rate",
          "type": "uint256"
        },
        {
          "name": "status",
          "type": "uint8"
        },
        {
          "name": "prize_value",
          "type": "uint256"
        },
        {
          "name": "bonus_value",
          "type": "uint256"
        },
        {
          "name": "buy_count",
          "type": "uint256"
        },
        {
          "name": "last_buy_user_address",
          "type": "address"
        },
        {
          "name": "next_change_rate_count",
          "type": "uint256"
        }
      ],
      "payable": false,
      "stateMutability": "view",
      "type": "function"
    },
    {
      "constant": true,
      "inputs": [],
      "name": "askprice",
      "outputs": [
        {
          "name": "price",
          "type": "uint256"
        }
      ],
      "payable": false,
      "stateMutability": "view",
      "type": "function"
    },
    {
      "constant": false,
      "inputs": [
        {
          "name": "recommend_user",
          "type": "address"
        }
      ],
      "name": "buy_token",
      "outputs": [
        {
          "name": "success",
          "type": "bool"
        }
      ],
      "payable": true,
      "stateMutability": "payable",
      "type": "function"
    },
    {
      "constant": true,
      "inputs": [
        {
          "name": "buyer",
          "type": "address"
        }
      ],
      "name": "getBuyerBuyCount",
      "outputs": [
        {
          "name": "",
          "type": "uint256"
        }
      ],
      "payable": false,
      "stateMutability": "view",
      "type": "function"
    },
    {
      "constant": true,
      "inputs": [
        {
          "name": "buyer",
          "type": "address"
        }
      ],
      "name": "getBuerIncomeInvestment",
      "outputs": [
        {
          "name": "income",
          "type": "uint256"
        },
        {
          "name": "investment",
          "type": "uint256"
        },
        {
          "name": "recommend_value",
          "type": "uint256"
        },
        {
          "name": "buy_count",
          "type": "uint256"
        }
      ],
      "payable": false,
      "stateMutability": "view",
      "type": "function"
    },
    {
      "constant": true,
      "inputs": [],
      "name": "checkGameAndPrize",
      "outputs": [
        {
          "name": "",
          "type": "bool"
        }
      ],
      "payable": false,
      "stateMutability": "view",
      "type": "function"
    },
    {
      "constant": false,
      "inputs": [],
      "name": "PrizeGame",
      "outputs": [
        {
          "name": "",
          "type": "bool"
        }
      ],
      "payable": false,
      "stateMutability": "nonpayable",
      "type": "function"
    },
    {
      "constant": false,
      "inputs": [],
      "name": "kill",
      "outputs": [
        {
          "name": "",
          "type": "bool"
        }
      ],
      "payable": false,
      "stateMutability": "nonpayable",
      "type": "function"
    },
    {
      "constant": false,
      "inputs": [
        {
          "name": "target",
          "type": "address"
        },
        {
          "name": "freeze",
          "type": "bool"
        }
      ],
      "name": "freezeAccount",
      "outputs": [
        {
          "name": "",
          "type": "bool"
        }
      ],
      "payable": false,
      "stateMutability": "nonpayable",
      "type": "function"
    },
    {
      "constant": false,
      "inputs": [
        {
          "name": "mintedAmount",
          "type": "uint256"
        }
      ],
      "name": "mintToken",
      "outputs": [
        {
          "name": "",
          "type": "bool"
        }
      ],
      "payable": false,
      "stateMutability": "nonpayable",
      "type": "function"
    }
  ],
  "bytecode": "0x608060405260066007556012600855600a600955600a8055602d600c556005600d55620f42406023553480156200003557600080fd5b50d380156200004357600080fd5b50d280156200005157600080fd5b506040516200601338038062006013833981018060405260a08110156200007757600080fd5b810190808051906020019092919080516401000000008111156200009a57600080fd5b82810190506020810184811115620000b157600080fd5b8151856001820283011164010000000082111715620000cf57600080fd5b50509291906020018051906020019092919080519060200190929190805190602001909291905050506040805190810160405280600981526020017fe9878ce68b89e5b88100000000000000000000000000000000000000000000008152506040805190810160405280600581526020017f4c65654c6100000000000000000000000000000000000000000000000000000081525060075482600490805190602001906200017f929190620007ad565b50816005908051906020019062000198929190620007ad565b5080600660006101000a81548160ff021916908360ff16021790555050505033600b60006101000a81548173ffffffffffffffffffffffffffffffffffffffff021916908373ffffffffffffffffffffffffffffffffffffffff1602179055506000429050600081905060006200022786846200048a6401000000000262004324179091906401000000009004565b90506000600754600a0a8602905060006200025f600854600a0a87620005156401000000000262004b6f179091906401000000009004565b9050600060469050610200604051908101604052808c81526020018b81526020018781526020018a815260200186815260200185815260200184815260200184815260200183815260200183815260200160006001811115620002be57fe5b8152602001600081526020016000815260200160008152602001600b60009054906101000a900473ffffffffffffffffffffffffffffffffffffffff1673ffffffffffffffffffffffffffffffffffffffff16815260200182815250600e6000820151816000015560208201518160010190805190602001906200034492919062000834565b5060408201518160020155606082015181600301556080820151816004015560a0820151816005015560c0820151816006015560e082015181600701556101008201518160080155610120820151816009015561014082015181600a0160006101000a81548160ff02191690836001811115620003bd57fe5b021790555061016082015181600b015561018082015181600c01556101a082015181600d01556101c082015181600e0160006101000a81548173ffffffffffffffffffffffffffffffffffffffff021916908373ffffffffffffffffffffffffffffffffffffffff1602179055506101e082015181600f0155905050620004793362000457620005b8640100000000026401000000009004565b60ff16600a0a64e8d4a5100002620005cf640100000000026401000000009004565b5050505050505050505050620008e3565b60008082840190508381101515156200050b576040517f08c379a000000000000000000000000000000000000000000000000000000000815260040180806020018281038252601b8152602001807f536166654d6174683a206164646974696f6e206f766572666c6f77000000000081525060200191505060405180910390fd5b8091505092915050565b6000808314156200052a5760009050620005b2565b60008214156200053e5760009050620005b2565b600082840290508284828115156200055257fe5b04141515620005ad576040517f08c379a000000000000000000000000000000000000000000000000000000000815260040180806020018281038252602181526020018062005ff26021913960400191505060405180910390fd5b809150505b92915050565b6000600660009054906101000a900460ff16905090565b600073ffffffffffffffffffffffffffffffffffffffff168273ffffffffffffffffffffffffffffffffffffffff161415151562000675576040517f08c379a000000000000000000000000000000000000000000000000000000000815260040180806020018281038252601f8152602001807f45524332303a206d696e7420746f20746865207a65726f20616464726573730081525060200191505060405180910390fd5b6200069a816002546200048a6401000000000262004324179091906401000000009004565b60028190555062000701816000808573ffffffffffffffffffffffffffffffffffffffff1673ffffffffffffffffffffffffffffffffffffffff168152602001908152602001600020546200048a6401000000000262004324179091906401000000009004565b6000808473ffffffffffffffffffffffffffffffffffffffff1673ffffffffffffffffffffffffffffffffffffffff168152602001908152602001600020819055508173ffffffffffffffffffffffffffffffffffffffff16600073ffffffffffffffffffffffffffffffffffffffff167fddf252ad1be2c89b69c2b068fc378daa952ba7f163c4a11628f55a4df523b3ef836040518082815260200191505060405180910390a35050565b828054600181600116156101000203166002900490600052602060002090601f016020900481019282601f10620007f057805160ff191683800117855562000821565b8280016001018555821562000821579182015b828111156200082057825182559160200191906001019062000803565b5b509050620008309190620008bb565b5090565b828054600181600116156101000203166002900490600052602060002090601f016020900481019282601f106200087757805160ff1916838001178555620008a8565b82800160010185558215620008a8579182015b82811115620008a75782518255916020019190600101906200088a565b5b509050620008b79190620008bb565b5090565b620008e091905b80821115620008dc576000816000905550600101620008c2565b5090565b90565b6156ff80620008f36000396000f3fe60806040526004361061019e576000357c010000000000000000000000000000000000000000000000000000000090048063747dff42116100ee578063a9059cbb116100a7578063c634d03211610081578063c634d03214610c71578063dd62ed3e14610cde578063e724529c14610d7d578063f0141d8414610e0c5761019e565b8063a9059cbb14610b1c578063b414d4b614610ba9578063bbe4fd5014610c2c5761019e565b8063747dff42146107905780637beeee09146108cf578063893d20e81461091857806395d89b4114610989578063a155e20414610a33578063a457c2d714610a8f5761019e565b806330a218121161015b578063395093511161013557806339509351146105b857806341c0e1b51461064557806370a082311461068e57806372e2f8f51461070d5761019e565b806330a218121461045a578063313ce567146104ee578063332e64e7146105395761019e565b806306fdde03146101a3578063095ea7b31461024d57806318160ddd146102da5780631986c8111461031f57806323b872dd1461036857806325527ece14610415575b600080fd5b3480156101af57600080fd5b50d380156101bc57600080fd5b50d280156101c957600080fd5b506101d2610e51565b6040518080602001828103825283818151815260200191508051906020019080838360005b838110156102125780820151818401526020810190506101f7565b50505050905090810190601f16801561023f5780820380516001836020036101000a031916815260200191505b509250505060405180910390f35b34801561025957600080fd5b50d3801561026657600080fd5b50d2801561027357600080fd5b506102c06004803603604081101561028a57600080fd5b81019080803573ffffffffffffffffffffffffffffffffffffffff16906020019092919080359060200190929190505050610ef3565b604051808215151515815260200191505060405180910390f35b3480156102e657600080fd5b50d380156102f357600080fd5b50d2801561030057600080fd5b50610309610f0a565b6040518082815260200191505060405180910390f35b34801561032b57600080fd5b50d3801561033857600080fd5b50d2801561034557600080fd5b5061034e610f14565b604051808215151515815260200191505060405180910390f35b34801561037457600080fd5b50d3801561038157600080fd5b50d2801561038e57600080fd5b506103fb600480360360608110156103a557600080fd5b81019080803573ffffffffffffffffffffffffffffffffffffffff169060200190929190803573ffffffffffffffffffffffffffffffffffffffff169060200190929190803590602001909291905050506116be565b604051808215151515815260200191505060405180910390f35b34801561042157600080fd5b50d3801561042e57600080fd5b50d2801561043b57600080fd5b5061044461176f565b6040518082815260200191505060405180910390f35b34801561046657600080fd5b50d3801561047357600080fd5b50d2801561048057600080fd5b506104c36004803603602081101561049757600080fd5b81019080803573ffffffffffffffffffffffffffffffffffffffff16906020019092919050505061193c565b6040518085815260200184815260200183815260200182815260200194505050505060405180910390f35b3480156104fa57600080fd5b50d3801561050757600080fd5b50d2801561051457600080fd5b5061051d611ac2565b604051808260ff1660ff16815260200191505060405180910390f35b34801561054557600080fd5b50d3801561055257600080fd5b50d2801561055f57600080fd5b506105a26004803603602081101561057657600080fd5b81019080803573ffffffffffffffffffffffffffffffffffffffff169060200190929190505050611ad9565b6040518082815260200191505060405180910390f35b3480156105c457600080fd5b50d380156105d157600080fd5b50d280156105de57600080fd5b5061062b600480360360408110156105f557600080fd5b81019080803573ffffffffffffffffffffffffffffffffffffffff16906020019092919080359060200190929190505050611b22565b604051808215151515815260200191505060405180910390f35b34801561065157600080fd5b50d3801561065e57600080fd5b50d2801561066b57600080fd5b50610674611bc7565b604051808215151515815260200191505060405180910390f35b34801561069a57600080fd5b50d380156106a757600080fd5b50d280156106b457600080fd5b506106f7600480360360208110156106cb57600080fd5b81019080803573ffffffffffffffffffffffffffffffffffffffff169060200190929190505050611f25565b6040518082815260200191505060405180910390f35b34801561071957600080fd5b50d3801561072657600080fd5b50d2801561073357600080fd5b506107766004803603602081101561074a57600080fd5b81019080803573ffffffffffffffffffffffffffffffffffffffff169060200190929190505050611f6d565b604051808215151515815260200191505060405180910390f35b34801561079c57600080fd5b50d380156107a957600080fd5b50d280156107b657600080fd5b506107bf611fc3565b604051808f8152602001806020018e81526020018d81526020018c81526020018b81526020018a81526020018981526020018860018111156107fd57fe5b60ff1681526020018781526020018681526020018581526020018473ffffffffffffffffffffffffffffffffffffffff1673ffffffffffffffffffffffffffffffffffffffff16815260200183815260200182810382528f818151815260200191508051906020019080838360005b8381101561088757808201518184015260208101905061086c565b50505050905090810190601f1680156108b45780820380516001836020036101000a031916815260200191505b509f5050505050505050505050505050505060405180910390f35b3480156108db57600080fd5b50d380156108e857600080fd5b50d280156108f557600080fd5b506108fe61223d565b604051808215151515815260200191505060405180910390f35b34801561092457600080fd5b50d3801561093157600080fd5b50d2801561093e57600080fd5b50610947612593565b604051808273ffffffffffffffffffffffffffffffffffffffff1673ffffffffffffffffffffffffffffffffffffffff16815260200191505060405180910390f35b34801561099557600080fd5b50d380156109a257600080fd5b50d280156109af57600080fd5b506109b86125bd565b6040518080602001828103825283818151815260200191508051906020019080838360005b838110156109f85780820151818401526020810190506109dd565b50505050905090810190601f168015610a255780820380516001836020036101000a031916815260200191505b509250505060405180910390f35b610a7560048036036020811015610a4957600080fd5b81019080803573ffffffffffffffffffffffffffffffffffffffff16906020019092919050505061265f565b604051808215151515815260200191505060405180910390f35b348015610a9b57600080fd5b50d38015610aa857600080fd5b50d28015610ab557600080fd5b50610b0260048036036040811015610acc57600080fd5b81019080803573ffffffffffffffffffffffffffffffffffffffff16906020019092919080359060200190929190505050613d44565b604051808215151515815260200191505060405180910390f35b348015610b2857600080fd5b50d38015610b3557600080fd5b50d28015610b4257600080fd5b50610b8f60048036036040811015610b5957600080fd5b81019080803573ffffffffffffffffffffffffffffffffffffffff16906020019092919080359060200190929190505050613de9565b604051808215151515815260200191505060405180910390f35b348015610bb557600080fd5b50d38015610bc257600080fd5b50d28015610bcf57600080fd5b50610c1260048036036020811015610be657600080fd5b81019080803573ffffffffffffffffffffffffffffffffffffffff169060200190929190505050613e00565b604051808215151515815260200191505060405180910390f35b348015610c3857600080fd5b50d38015610c4557600080fd5b50d28015610c5257600080fd5b50610c5b613e20565b6040518082815260200191505060405180910390f35b348015610c7d57600080fd5b50d38015610c8a57600080fd5b50d28015610c9757600080fd5b50610cc460048036036020811015610cae57600080fd5b8101908080359060200190929190505050613e28565b604051808215151515815260200191505060405180910390f35b348015610cea57600080fd5b50d38015610cf757600080fd5b50d28015610d0457600080fd5b50610d6760048036036040811015610d1b57600080fd5b81019080803573ffffffffffffffffffffffffffffffffffffffff169060200190929190803573ffffffffffffffffffffffffffffffffffffffff169060200190929190505050613f16565b6040518082815260200191505060405180910390f35b348015610d8957600080fd5b50d38015610d9657600080fd5b50d28015610da357600080fd5b50610df260048036036040811015610dba57600080fd5b81019080803573ffffffffffffffffffffffffffffffffffffffff169060200190929190803515159060200190929190505050613f9d565b604051808215151515815260200191505060405180910390f35b348015610e1857600080fd5b50d38015610e2557600080fd5b50d28015610e3257600080fd5b50610e3b61411f565b6040518082815260200191505060405180910390f35b606060048054600181600116156101000203166002900480601f016020809104026020016040519081016040528092919081815260200182805460018160011615610100020316600290048015610ee95780601f10610ebe57610100808354040283529160200191610ee9565b820191906000526020600020905b815481529060010190602001808311610ecc57829003601f168201915b5050505050905090565b6000610f00338484614129565b6001905092915050565b6000600254905090565b6000600b60009054906101000a900473ffffffffffffffffffffffffffffffffffffffff1673ffffffffffffffffffffffffffffffffffffffff163373ffffffffffffffffffffffffffffffffffffffff16141515610fbe576040517f08c379a00000000000000000000000000000000000000000000000000000000081526004018080602001828103825260228152602001806156266022913960400191505060405180910390fd5b3373ffffffffffffffffffffffffffffffffffffffff16600b60009054906101000a900473ffffffffffffffffffffffffffffffffffffffff1673ffffffffffffffffffffffffffffffffffffffff16141515611083576040517f08c379a00000000000000000000000000000000000000000000000000000000081526004018080602001828103825260128152602001807f4d757374204f776e65722045786563757465000000000000000000000000000081525060200191505060405180910390fd5b600042905061109061545c565b600e610200604051908101604052908160008201548152602001600182018054600181600116156101000203166002900480601f0160208091040260200160405190810160405280929190818152602001828054600181600116156101000203166002900480156111425780601f1061111757610100808354040283529160200191611142565b820191906000526020600020905b81548152906001019060200180831161112557829003601f168201915b505050505081526020016002820154815260200160038201548152602001600482015481526020016005820154815260200160068201548152602001600782015481526020016008820154815260200160098201548152602001600a820160009054906101000a900460ff1660018111156111b957fe5b60018111156111c457fe5b8152602001600b8201548152602001600c8201548152602001600d8201548152602001600e820160009054906101000a900473ffffffffffffffffffffffffffffffffffffffff1673ffffffffffffffffffffffffffffffffffffffff1673ffffffffffffffffffffffffffffffffffffffff168152602001600f820154815250509050818160a001511115156116b457600073ffffffffffffffffffffffffffffffffffffffff16816101c0015173ffffffffffffffffffffffffffffffffffffffff161415156112f157600081610160015111156112f057806101c0015173ffffffffffffffffffffffffffffffffffffffff166108fc8261016001519081150290604051600060405180830381858888f193505050501580156112ee573d6000803e3d6000fd5b505b5b60008090505b601e80549050811015611463576000601e8281548110151561131557fe5b9060005260206000200160009054906101000a900473ffffffffffffffffffffffffffffffffffffffff169050601f60008273ffffffffffffffffffffffffffffffffffffffff1673ffffffffffffffffffffffffffffffffffffffff16815260200190815260200160002060008082016000905560018201600090556002820160006101000a81549073ffffffffffffffffffffffffffffffffffffffff02191690556002820160146101000a81549060ff02191690555050602060008273ffffffffffffffffffffffffffffffffffffffff1673ffffffffffffffffffffffffffffffffffffffff16815260200190815260200160002060009055602160008273ffffffffffffffffffffffffffffffffffffffff1673ffffffffffffffffffffffffffffffffffffffff168152602001908152602001600020600090555080806001019150506112f7565b50601e600061147291906154fb565b60004290506000819050600061149584606001518461432490919063ffffffff16565b905060008460c0015190506000856101000151905060006046905060006114ca6001896000015161432490919063ffffffff16565b90506102006040519081016040528082815260200189602001518152602001888152602001896060015181526020018781526020018681526020018581526020018581526020018481526020018481526020016000600181111561152a57fe5b8152602001600081526020016000815260200160008152602001600b60009054906101000a900473ffffffffffffffffffffffffffffffffffffffff1673ffffffffffffffffffffffffffffffffffffffff16815260200183815250600e6000820151816000015560208201518160010190805190602001906115ae92919061551c565b5060408201518160020155606082015181600301556080820151816004015560a0820151816005015560c0820151816006015560e082015181600701556101008201518160080155610120820151816009015561014082015181600a0160006101000a81548160ff0219169083600181111561162657fe5b021790555061016082015181600b015561018082015181600c01556101a082015181600d01556101c082015181600e0160006101000a81548173ffffffffffffffffffffffffffffffffffffffff021916908373ffffffffffffffffffffffffffffffffffffffff1602179055506101e082015181600f0155905050600199505050505050505050506116bb565b6000925050505b90565b60006116cb8484846143ae565b611764843361175f85600160008a73ffffffffffffffffffffffffffffffffffffffff1673ffffffffffffffffffffffffffffffffffffffff16815260200190815260200160002060003373ffffffffffffffffffffffffffffffffffffffff1673ffffffffffffffffffffffffffffffffffffffff168152602001908152602001600020546147c690919063ffffffff16565b614129565b600190509392505050565b600061177961545c565b600e610200604051908101604052908160008201548152602001600182018054600181600116156101000203166002900480601f01602080910402602001604051908101604052809291908181526020018280546001816001161561010002031660029004801561182b5780601f106118005761010080835404028352916020019161182b565b820191906000526020600020905b81548152906001019060200180831161180e57829003601f168201915b505050505081526020016002820154815260200160038201548152602001600482015481526020016005820154815260200160068201548152602001600782015481526020016008820154815260200160098201548152602001600a820160009054906101000a900460ff1660018111156118a257fe5b60018111156118ad57fe5b8152602001600b8201548152602001600c8201548152602001600d8201548152602001600e820160009054906101000a900473ffffffffffffffffffffffffffffffffffffffff1673ffffffffffffffffffffffffffffffffffffffff1673ffffffffffffffffffffffffffffffffffffffff168152602001600f8201548152505090508060e0015191505090565b60008060008061194a61559c565b601f60008773ffffffffffffffffffffffffffffffffffffffff1673ffffffffffffffffffffffffffffffffffffffff1681526020019081526020016000206080604051908101604052908160008201548152602001600182015481526020016002820160009054906101000a900473ffffffffffffffffffffffffffffffffffffffff1673ffffffffffffffffffffffffffffffffffffffff1673ffffffffffffffffffffffffffffffffffffffff1681526020016002820160149054906101000a900460ff16151515158152505090508060200151945080600001519350602160008773ffffffffffffffffffffffffffffffffffffffff1673ffffffffffffffffffffffffffffffffffffffff168152602001908152602001600020549250602060008773ffffffffffffffffffffffffffffffffffffffff1673ffffffffffffffffffffffffffffffffffffffff168152602001908152602001600020549150848484849450945094509450509193509193565b6000600660009054906101000a900460ff16905090565b6000602060008373ffffffffffffffffffffffffffffffffffffffff1673ffffffffffffffffffffffffffffffffffffffff168152602001908152602001600020549050919050565b6000611bbd3384611bb885600160003373ffffffffffffffffffffffffffffffffffffffff1673ffffffffffffffffffffffffffffffffffffffff16815260200190815260200160002060008973ffffffffffffffffffffffffffffffffffffffff1673ffffffffffffffffffffffffffffffffffffffff1681526020019081526020016000205461432490919063ffffffff16565b614129565b6001905092915050565b6000600b60009054906101000a900473ffffffffffffffffffffffffffffffffffffffff1673ffffffffffffffffffffffffffffffffffffffff163373ffffffffffffffffffffffffffffffffffffffff16141515611c71576040517f08c379a00000000000000000000000000000000000000000000000000000000081526004018080602001828103825260228152602001806156266022913960400191505060405180910390fd5b3373ffffffffffffffffffffffffffffffffffffffff16600b60009054906101000a900473ffffffffffffffffffffffffffffffffffffffff1673ffffffffffffffffffffffffffffffffffffffff161415611f1e57611ccf61545c565b600e610200604051908101604052908160008201548152602001600182018054600181600116156101000203166002900480601f016020809104026020016040519081016040528092919081815260200182805460018160011615610100020316600290048015611d815780601f10611d5657610100808354040283529160200191611d81565b820191906000526020600020905b815481529060010190602001808311611d6457829003601f168201915b505050505081526020016002820154815260200160038201548152602001600482015481526020016005820154815260200160068201548152602001600782015481526020016008820154815260200160098201548152602001600a820160009054906101000a900460ff166001811115611df857fe5b6001811115611e0357fe5b8152602001600b8201548152602001600c8201548152602001600d8201548152602001600e820160009054906101000a900473ffffffffffffffffffffffffffffffffffffffff1673ffffffffffffffffffffffffffffffffffffffff1673ffffffffffffffffffffffffffffffffffffffff168152602001600f82015481525050905060008161016001511115611f1c57600b60009054906101000a900473ffffffffffffffffffffffffffffffffffffffff1673ffffffffffffffffffffffffffffffffffffffff166108fc8261016001519081150290604051600060405180830381858888f19350505050158015611f02573d6000803e3d6000fd5b503373ffffffffffffffffffffffffffffffffffffffff16ff5b505b6000905090565b60008060008373ffffffffffffffffffffffffffffffffffffffff1673ffffffffffffffffffffffffffffffffffffffff168152602001908152602001600020549050919050565b6000600360008373ffffffffffffffffffffffffffffffffffffffff1673ffffffffffffffffffffffffffffffffffffffff16815260200190815260200160002060009054906101000a900460ff169050919050565b60006060600080600080600080600080600080600080611fe161545c565b600e610200604051908101604052908160008201548152602001600182018054600181600116156101000203166002900480601f0160208091040260200160405190810160405280929190818152602001828054600181600116156101000203166002900480156120935780601f1061206857610100808354040283529160200191612093565b820191906000526020600020905b81548152906001019060200180831161207657829003601f168201915b505050505081526020016002820154815260200160038201548152602001600482015481526020016005820154815260200160068201548152602001600782015481526020016008820154815260200160098201548152602001600a820160009054906101000a900460ff16600181111561210a57fe5b600181111561211557fe5b8152602001600b8201548152602001600c8201548152602001600d8201548152602001600e820160009054906101000a900473ffffffffffffffffffffffffffffffffffffffff1673ffffffffffffffffffffffffffffffffffffffff1673ffffffffffffffffffffffffffffffffffffffff168152602001600f82015481525050905080600001519e5080602001519d5080604001519c5080606001519b5080608001519a508060a0015199508060e001519850806101200151975080610140015196508061016001519550806101a0015193508061018001519450806101c001519250806101e0015191508e8e8e8e8e8e8e8e8e8e8e8e8e8e9e509e509e509e509e509e509e509e509e509e509e509e509e509e5050909192939495969798999a9b9c9d565b6000600b60009054906101000a900473ffffffffffffffffffffffffffffffffffffffff1673ffffffffffffffffffffffffffffffffffffffff163373ffffffffffffffffffffffffffffffffffffffff161415156122e7576040517f08c379a00000000000000000000000000000000000000000000000000000000081526004018080602001828103825260228152602001806156266022913960400191505060405180910390fd5b3373ffffffffffffffffffffffffffffffffffffffff16600b60009054906101000a900473ffffffffffffffffffffffffffffffffffffffff1673ffffffffffffffffffffffffffffffffffffffff161415156123ac576040517f08c379a00000000000000000000000000000000000000000000000000000000081526004018080602001828103825260128152602001807f4d757374204f776e65722045786563757465000000000000000000000000000081525060200191505060405180910390fd5b60004290506123b961545c565b600e610200604051908101604052908160008201548152602001600182018054600181600116156101000203166002900480601f01602080910402602001604051908101604052809291908181526020018280546001816001161561010002031660029004801561246b5780601f106124405761010080835404028352916020019161246b565b820191906000526020600020905b81548152906001019060200180831161244e57829003601f168201915b505050505081526020016002820154815260200160038201548152602001600482015481526020016005820154815260200160068201548152602001600782015481526020016008820154815260200160098201548152602001600a820160009054906101000a900460ff1660018111156124e257fe5b60018111156124ed57fe5b8152602001600b8201548152602001600c8201548152602001600d8201548152602001600e820160009054906101000a900473ffffffffffffffffffffffffffffffffffffffff1673ffffffffffffffffffffffffffffffffffffffff1673ffffffffffffffffffffffffffffffffffffffff168152602001600f820154815250509050818160a0015111151561258957600192505050612590565b6000925050505b90565b6000600b60009054906101000a900473ffffffffffffffffffffffffffffffffffffffff16905090565b606060058054600181600116156101000203166002900480601f0160208091040260200160405190810160405280929190818152602001828054600181600116156101000203166002900480156126555780601f1061262a57610100808354040283529160200191612655565b820191906000526020600020905b81548152906001019060200180831161263857829003601f168201915b5050505050905090565b600061266a82614851565b15156126de576040517f08c379a00000000000000000000000000000000000000000000000000000000081526004018080602001828103825260148152602001807f7265636f6d6d656e645f75736572204572726f7200000000000000000000000081525060200191505060405180910390fd5b6126e661545c565b600e610200604051908101604052908160008201548152602001600182018054600181600116156101000203166002900480601f0160208091040260200160405190810160405280929190818152602001828054600181600116156101000203166002900480156127985780601f1061276d57610100808354040283529160200191612798565b820191906000526020600020905b81548152906001019060200180831161277b57829003601f168201915b505050505081526020016002820154815260200160038201548152602001600482015481526020016005820154815260200160068201548152602001600782015481526020016008820154815260200160098201548152602001600a820160009054906101000a900460ff16600181111561280f57fe5b600181111561281a57fe5b8152602001600b8201548152602001600c8201548152602001600d8201548152602001600e820160009054906101000a900473ffffffffffffffffffffffffffffffffffffffff1673ffffffffffffffffffffffffffffffffffffffff1673ffffffffffffffffffffffffffffffffffffffff168152602001600f820154815250509050600081600001511415151561291b576040517f08c379a000000000000000000000000000000000000000000000000000000000815260040180806020018281038252600e8152602001807f67616d65206e6f7420657869737400000000000000000000000000000000000081525060200191505060405180910390fd5b6000349050600033905060008360e0015190506000846101a001519050600081141561294657600190505b61294f81614957565b90506000600181111561295e57fe5b856101400151600181111561296f57fe5b1415156129e4576040517f08c379a00000000000000000000000000000000000000000000000000000000081526004018080602001828103825260118152602001807f546869732047616d65204e6f7420496e6700000000000000000000000000000081525060200191505060405180910390fd5b428560a00151111515612a5f576040517f08c379a000000000000000000000000000000000000000000000000000000000815260040180806020018281038252600c8152602001807f47616d65204973204f766572000000000000000000000000000000000000000081525060200191505060405180910390fd5b838211151515612ad7576040517f08c379a00000000000000000000000000000000000000000000000000000000081526004018080602001828103825260208152602001807f546869732047616d6520427579205072696365206973206e6f74206c696d697481525060200191505060405180910390fd5b6000612b016064612af3600a5488614b6f90919063ffffffff16565b614c0b90919063ffffffff16565b90506000612b2d6064612b1f60095489614b6f90919063ffffffff16565b614c0b90919063ffffffff16565b90506000612b596064612b4b600c548a614b6f90919063ffffffff16565b614c0b90919063ffffffff16565b90506000612b856064612b77600d548b614b6f90919063ffffffff16565b614c0b90919063ffffffff16565b90506000600b60009054906101000a900473ffffffffffffffffffffffffffffffffffffffff169050612bb661559c565b601f60008a73ffffffffffffffffffffffffffffffffffffffff1673ffffffffffffffffffffffffffffffffffffffff1681526020019081526020016000206080604051908101604052908160008201548152602001600182015481526020016002820160009054906101000a900473ffffffffffffffffffffffffffffffffffffffff1673ffffffffffffffffffffffffffffffffffffffff1673ffffffffffffffffffffffffffffffffffffffff1681526020016002820160149054906101000a900460ff16151515158152505090508c91508c816040019073ffffffffffffffffffffffffffffffffffffffff16908173ffffffffffffffffffffffffffffffffffffffff168152505080606001518015612d055750600073ffffffffffffffffffffffffffffffffffffffff16816040015173ffffffffffffffffffffffffffffffffffffffff1614155b15612d1257806040015191505b60008090505b601e80549050811015612db4576000601e82815481101515612d3657fe5b9060005260206000200160009054906101000a900473ffffffffffffffffffffffffffffffffffffffff169050602260008273ffffffffffffffffffffffffffffffffffffffff1673ffffffffffffffffffffffffffffffffffffffff16815260200190815260200160002060009055508080600101915050612d18565b50600b60009054906101000a900473ffffffffffffffffffffffffffffffffffffffff1673ffffffffffffffffffffffffffffffffffffffff166108fc869081150290604051600060405180830381858888f19350505050158015612e1d573d6000803e3d6000fd5b507fc0d91c82e97814aa565f0d03c18f64ee424f76125f42d94ddfceff120b4f8995600b60009054906101000a900473ffffffffffffffffffffffffffffffffffffffff1686604051808373ffffffffffffffffffffffffffffffffffffffff1673ffffffffffffffffffffffffffffffffffffffff16815260200182815260200180602001828103825260158152602001807fe58f91e694bee5b9b3e58fb0e6898be7bbade8b4b90000000000000000000000815250602001935050505060405180910390a18173ffffffffffffffffffffffffffffffffffffffff166108fc879081150290604051600060405180830381858888f19350505050158015612f2a573d6000803e3d6000fd5b50612f7d86602160008573ffffffffffffffffffffffffffffffffffffffff1673ffffffffffffffffffffffffffffffffffffffff1681526020019081526020016000205461432490919063ffffffff16565b602160008473ffffffffffffffffffffffffffffffffffffffff1673ffffffffffffffffffffffffffffffffffffffff168152602001908152602001600020819055507f4374886bfaca751b7f029933ffc2bad8439bbbb974547c4d1bf00d230c04ca068287604051808373ffffffffffffffffffffffffffffffffffffffff1673ffffffffffffffffffffffffffffffffffffffff16815260200182815260200180602001828103825260128152602001807fe58f91e694bee68ea8e88d90e5a596e58ab10000000000000000000000000000815250602001935050505060405180910390a1600b60009054906101000a900473ffffffffffffffffffffffffffffffffffffffff1673ffffffffffffffffffffffffffffffffffffffff168273ffffffffffffffffffffffffffffffffffffffff1614156131ee57600b60009054906101000a900473ffffffffffffffffffffffffffffffffffffffff1673ffffffffffffffffffffffffffffffffffffffff166108fc849081150290604051600060405180830381858888f19350505050158015613122573d6000803e3d6000fd5b507f6b4d7266512708fa68ea31c0b0828f3fca58f0fabf63d5301e3b79dde007fdc1600b60009054906101000a900473ffffffffffffffffffffffffffffffffffffffff1684604051808373ffffffffffffffffffffffffffffffffffffffff1673ffffffffffffffffffffffffffffffffffffffff168152602001828152602001806020018281038252600c8152602001807fe8bf94e588a9e5b9b3e58fb00000000000000000000000000000000000000000815250602001935050505060405180910390a16132da565b8873ffffffffffffffffffffffffffffffffffffffff166108fc849081150290604051600060405180830381858888f19350505050158015613234573d6000803e3d6000fd5b507f6b4d7266512708fa68ea31c0b0828f3fca58f0fabf63d5301e3b79dde007fdc18984604051808373ffffffffffffffffffffffffffffffffffffffff1673ffffffffffffffffffffffffffffffffffffffff168152602001828152602001806020018281038252600f8152602001807fe8bf94e588a9e7bb99e794a8e688b70000000000000000000000000000000000815250602001935050505060405180910390a15b600080905060008090505b601e80549050811015613469576000601e8281548110151561330357fe5b9060005260206000200160009054906101000a900473ffffffffffffffffffffffffffffffffffffffff1690506000602060008373ffffffffffffffffffffffffffffffffffffffff1673ffffffffffffffffffffffffffffffffffffffff168152602001908152602001600020549050600080905061338283614c9e565b156133af576133ac8c61339e848c614b6f90919063ffffffff16565b614c0b90919063ffffffff16565b90505b6133c2818661432490919063ffffffff16565b945061341681602260008673ffffffffffffffffffffffffffffffffffffffff1673ffffffffffffffffffffffffffffffffffffffff1681526020019081526020016000205461432490919063ffffffff16565b602260008573ffffffffffffffffffffffffffffffffffffffff1673ffffffffffffffffffffffffffffffffffffffff1681526020019081526020016000208190555050505080806001019150506132e5565b50600061347f888d6147c690919063ffffffff16565b905061349487826147c690919063ffffffff16565b90506134a982826147c690919063ffffffff16565b90506134be85826147c690919063ffffffff16565b90508260600151156135d957601f60008c73ffffffffffffffffffffffffffffffffffffffff1673ffffffffffffffffffffffffffffffffffffffff1681526020019081526020016000206080604051908101604052908160008201548152602001600182015481526020016002820160009054906101000a900473ffffffffffffffffffffffffffffffffffffffff1673ffffffffffffffffffffffffffffffffffffffff1673ffffffffffffffffffffffffffffffffffffffff1681526020016002820160149054906101000a900460ff161515151581525050925083836040019073ffffffffffffffffffffffffffffffffffffffff16908173ffffffffffffffffffffffffffffffffffffffff168152505061367f565b60806040519081016040528060008152602001600081526020018573ffffffffffffffffffffffffffffffffffffffff168152602001600115158152509250601e8b90806001815401808255809150509060018203906000526020600020016000909192909190916101000a81548173ffffffffffffffffffffffffffffffffffffffff021916908373ffffffffffffffffffffffffffffffffffffffff160217905550505b6136968c846020015161432490919063ffffffff16565b83602001818152505082601f60008d73ffffffffffffffffffffffffffffffffffffffff1673ffffffffffffffffffffffffffffffffffffffff168152602001908152602001600020600082015181600001556020820151816001015560408201518160020160006101000a81548173ffffffffffffffffffffffffffffffffffffffff021916908373ffffffffffffffffffffffffffffffffffffffff16021790555060608201518160020160146101000a81548160ff02191690831515021790555090505060008090505b601e80549050811015613afe576000601e8281548110151561378157fe5b9060005260206000200160009054906101000a900473ffffffffffffffffffffffffffffffffffffffff1690506000602260008373ffffffffffffffffffffffffffffffffffffffff1673ffffffffffffffffffffffffffffffffffffffff1681526020019081526020016000205490506000811115613aef5761380361559c565b601f60008473ffffffffffffffffffffffffffffffffffffffff1673ffffffffffffffffffffffffffffffffffffffff1681526020019081526020016000206080604051908101604052908160008201548152602001600182015481526020016002820160009054906101000a900473ffffffffffffffffffffffffffffffffffffffff1673ffffffffffffffffffffffffffffffffffffffff1673ffffffffffffffffffffffffffffffffffffffff1681526020016002820160149054906101000a900460ff1615151515815250509050806060015115613904576138f682826000015161432490919063ffffffff16565b816000018181525050613944565b60806040519081016040528083815260200160008152602001600073ffffffffffffffffffffffffffffffffffffffff1681526020016001151581525090505b80601f60008573ffffffffffffffffffffffffffffffffffffffff1673ffffffffffffffffffffffffffffffffffffffff168152602001908152602001600020600082015181600001556020820151816001015560408201518160020160006101000a81548173ffffffffffffffffffffffffffffffffffffffff021916908373ffffffffffffffffffffffffffffffffffffffff16021790555060608201518160020160146101000a81548160ff0219169083151502179055509050508273ffffffffffffffffffffffffffffffffffffffff166108fc839081150290604051600060405180830381858888f19350505050158015613a48573d6000803e3d6000fd5b507fde3810754a10190424b293c24463eeaa95fa7548782a204075a6acb2170e40e48383604051808373ffffffffffffffffffffffffffffffffffffffff1673ffffffffffffffffffffffffffffffffffffffff16815260200182815260200180602001828103825260128152602001807fe58f91e98081e58886e7baa2e5a596e58ab10000000000000000000000000000815250602001935050505060405180910390a1505b50508080600101915050613763565b5060008090505b601e80549050811015613ba1576000601e82815481101515613b2357fe5b9060005260206000200160009054906101000a900473ffffffffffffffffffffffffffffffffffffffff169050602260008273ffffffffffffffffffffffffffffffffffffffff1673ffffffffffffffffffffffffffffffffffffffff16815260200190815260200160002060009055508080600101915050613b05565b50613bf56001602060008e73ffffffffffffffffffffffffffffffffffffffff1673ffffffffffffffffffffffffffffffffffffffff1681526020019081526020016000205461432490919063ffffffff16565b602060008d73ffffffffffffffffffffffffffffffffffffffff1673ffffffffffffffffffffffffffffffffffffffff16815260200190815260200160002081905550613c438b8284614e46565b507fb6668bab6642a507a81c08f30893aaa47e0c29df8e88ad6b9c19ffd3a2296cf38b8d42604051808473ffffffffffffffffffffffffffffffffffffffff1673ffffffffffffffffffffffffffffffffffffffff16815260200183815260200182815260200180602001828103825260068152602001807fe8b4ade4b9b0000000000000000000000000000000000000000000000000000081525060200194505050505060405180910390a1613d2e600b60009054906101000a900473ffffffffffffffffffffffffffffffffffffffff168c613d1f611ac2565b60ff16600a0a602354026143ae565b60019d5050505050505050505050505050919050565b6000613ddf3384613dda85600160003373ffffffffffffffffffffffffffffffffffffffff1673ffffffffffffffffffffffffffffffffffffffff16815260200190815260200160002060008973ffffffffffffffffffffffffffffffffffffffff1673ffffffffffffffffffffffffffffffffffffffff168152602001908152602001600020546147c690919063ffffffff16565b614129565b6001905092915050565b6000613df63384846143ae565b6001905092915050565b60036020528060005260406000206000915054906101000a900460ff1681565b600042905090565b6000600b60009054906101000a900473ffffffffffffffffffffffffffffffffffffffff1673ffffffffffffffffffffffffffffffffffffffff163373ffffffffffffffffffffffffffffffffffffffff16141515613ed2576040517f08c379a00000000000000000000000000000000000000000000000000000000081526004018080602001828103825260228152602001806156266022913960400191505060405180910390fd5b613f0d600b60009054906101000a900473ffffffffffffffffffffffffffffffffffffffff16613f00611ac2565b60ff16600a0a84026151cd565b60019050919050565b6000600160008473ffffffffffffffffffffffffffffffffffffffff1673ffffffffffffffffffffffffffffffffffffffff16815260200190815260200160002060008373ffffffffffffffffffffffffffffffffffffffff1673ffffffffffffffffffffffffffffffffffffffff16815260200190815260200160002054905092915050565b6000600b60009054906101000a900473ffffffffffffffffffffffffffffffffffffffff1673ffffffffffffffffffffffffffffffffffffffff163373ffffffffffffffffffffffffffffffffffffffff16141515614047576040517f08c379a00000000000000000000000000000000000000000000000000000000081526004018080602001828103825260228152602001806156266022913960400191505060405180910390fd5b8273ffffffffffffffffffffffffffffffffffffffff16600b60009054906101000a900473ffffffffffffffffffffffffffffffffffffffff1673ffffffffffffffffffffffffffffffffffffffff161415151561410d576040517f08c379a00000000000000000000000000000000000000000000000000000000081526004018080602001828103825260148152602001807f63616e206e6f7420667265657a65206f776e657200000000000000000000000081525060200191505060405180910390fd5b614117838361538a565b905092915050565b6000600754905090565b600073ffffffffffffffffffffffffffffffffffffffff168373ffffffffffffffffffffffffffffffffffffffff16141515156141b1576040517f08c379a00000000000000000000000000000000000000000000000000000000081526004018080602001828103825260248152602001806156b06024913960400191505060405180910390fd5b600073ffffffffffffffffffffffffffffffffffffffff168273ffffffffffffffffffffffffffffffffffffffff1614151515614239576040517f08c379a00000000000000000000000000000000000000000000000000000000081526004018080602001828103825260228152602001806156486022913960400191505060405180910390fd5b80600160008573ffffffffffffffffffffffffffffffffffffffff1673ffffffffffffffffffffffffffffffffffffffff16815260200190815260200160002060008473ffffffffffffffffffffffffffffffffffffffff1673ffffffffffffffffffffffffffffffffffffffff168152602001908152602001600020819055508173ffffffffffffffffffffffffffffffffffffffff168373ffffffffffffffffffffffffffffffffffffffff167f8c5be1e5ebec7d5bd14f71427d1e84f3dd0314c0f7b2291e5b200ac8c7c3b925836040518082815260200191505060405180910390a3505050565b60008082840190508381101515156143a4576040517f08c379a000000000000000000000000000000000000000000000000000000000815260040180806020018281038252601b8152602001807f536166654d6174683a206164646974696f6e206f766572666c6f77000000000081525060200191505060405180910390fd5b8091505092915050565b600360008473ffffffffffffffffffffffffffffffffffffffff1673ffffffffffffffffffffffffffffffffffffffff16815260200190815260200160002060009054906101000a900460ff16151515614470576040517f08c379a00000000000000000000000000000000000000000000000000000000081526004018080602001828103825260178152602001807f74686973206163636f756e74206861732066726f7a656e00000000000000000081525060200191505060405180910390fd5b600073ffffffffffffffffffffffffffffffffffffffff168373ffffffffffffffffffffffffffffffffffffffff16141515156144f8576040517f08c379a000000000000000000000000000000000000000000000000000000000815260040180806020018281038252602581526020018061568b6025913960400191505060405180910390fd5b600073ffffffffffffffffffffffffffffffffffffffff168273ffffffffffffffffffffffffffffffffffffffff1614151515614580576040517f08c379a00000000000000000000000000000000000000000000000000000000081526004018080602001828103825260238152602001806156036023913960400191505060405180910390fd5b806000808573ffffffffffffffffffffffffffffffffffffffff1673ffffffffffffffffffffffffffffffffffffffff1681526020019081526020016000205410151515614636576040517f08c379a00000000000000000000000000000000000000000000000000000000081526004018080602001828103825260188152602001807f73656e64657220616d6f756e74204e6f7420656e6f756768000000000000000081525060200191505060405180910390fd5b614687816000808673ffffffffffffffffffffffffffffffffffffffff1673ffffffffffffffffffffffffffffffffffffffff168152602001908152602001600020546147c690919063ffffffff16565b6000808573ffffffffffffffffffffffffffffffffffffffff1673ffffffffffffffffffffffffffffffffffffffff1681526020019081526020016000208190555061471a816000808573ffffffffffffffffffffffffffffffffffffffff1673ffffffffffffffffffffffffffffffffffffffff1681526020019081526020016000205461432490919063ffffffff16565b6000808473ffffffffffffffffffffffffffffffffffffffff1673ffffffffffffffffffffffffffffffffffffffff168152602001908152602001600020819055508173ffffffffffffffffffffffffffffffffffffffff168373ffffffffffffffffffffffffffffffffffffffff167fddf252ad1be2c89b69c2b068fc378daa952ba7f163c4a11628f55a4df523b3ef836040518082815260200191505060405180910390a3505050565b6000828211151515614840576040517f08c379a000000000000000000000000000000000000000000000000000000000815260040180806020018281038252601e8152602001807f536166654d6174683a207375627472616374696f6e206f766572666c6f77000081525060200191505060405180910390fd5b600082840390508091505092915050565b60008073ffffffffffffffffffffffffffffffffffffffff168273ffffffffffffffffffffffffffffffffffffffff1614156148905760009050614952565b600b60009054906101000a900473ffffffffffffffffffffffffffffffffffffffff1673ffffffffffffffffffffffffffffffffffffffff168273ffffffffffffffffffffffffffffffffffffffff1614156148ef5760019050614952565b601f60008373ffffffffffffffffffffffffffffffffffffffff1673ffffffffffffffffffffffffffffffffffffffff16815260200190815260200160002060020160149054906101000a900460ff161561494d5760019050614952565b600090505b919050565b60008190506000614977600754600a0a6003614b6f90919063ffffffff16565b905060008090505b601e80549050811015614b65576000601e8281548110151561499d57fe5b9060005260206000200160009054906101000a900473ffffffffffffffffffffffffffffffffffffffff1690506149d261559c565b601f60008373ffffffffffffffffffffffffffffffffffffffff1673ffffffffffffffffffffffffffffffffffffffff1681526020019081526020016000206080604051908101604052908160008201548152602001600182015481526020016002820160009054906101000a900473ffffffffffffffffffffffffffffffffffffffff1673ffffffffffffffffffffffffffffffffffffffff1673ffffffffffffffffffffffffffffffffffffffff1681526020016002820160149054906101000a900460ff16151515158152505090506000602060008473ffffffffffffffffffffffffffffffffffffffff1673ffffffffffffffffffffffffffffffffffffffff16815260200190815260200160002054905081606001518015614af95750600081115b15614b55576000614b32600754600a0a614b2485602001518660000151614c0b90919063ffffffff16565b614b6f90919063ffffffff16565b90508581101515614b5357614b5082896147c690919063ffffffff16565b96505b505b505050808060010191505061497f565b5081915050919050565b600080831415614b825760009050614c05565b6000821415614b945760009050614c05565b60008284029050828482811515614ba757fe5b04141515614c00576040517f08c379a000000000000000000000000000000000000000000000000000000000815260040180806020018281038252602181526020018061566a6021913960400191505060405180910390fd5b809150505b92915050565b60008082111515614c84576040517f08c379a000000000000000000000000000000000000000000000000000000000815260040180806020018281038252601a8152602001807f536166654d6174683a206469766973696f6e206279207a65726f00000000000081525060200191505060405180910390fd5b60008284811515614c9157fe5b0490508091505092915050565b6000600190506000614cbf600754600a0a6003614b6f90919063ffffffff16565b9050614cc961559c565b601f60008573ffffffffffffffffffffffffffffffffffffffff1673ffffffffffffffffffffffffffffffffffffffff1681526020019081526020016000206080604051908101604052908160008201548152602001600182015481526020016002820160009054906101000a900473ffffffffffffffffffffffffffffffffffffffff1673ffffffffffffffffffffffffffffffffffffffff1673ffffffffffffffffffffffffffffffffffffffff1681526020016002820160149054906101000a900460ff16151515158152505090506000602060008673ffffffffffffffffffffffffffffffffffffffff1673ffffffffffffffffffffffffffffffffffffffff16815260200190815260200160002054905081606001518015614df05750600081115b15614e3b576000614e29600754600a0a614e1b85602001518660000151614c0b90919063ffffffff16565b614b6f90919063ffffffff16565b90508381101515614e3957600094505b505b839350505050919050565b600080429050614e5461545c565b600e610200604051908101604052908160008201548152602001600182018054600181600116156101000203166002900480601f016020809104026020016040519081016040528092919081815260200182805460018160011615610100020316600290048015614f065780601f10614edb57610100808354040283529160200191614f06565b820191906000526020600020905b815481529060010190602001808311614ee957829003601f168201915b505050505081526020016002820154815260200160038201548152602001600482015481526020016005820154815260200160068201548152602001600782015481526020016008820154815260200160098201548152602001600a820160009054906101000a900460ff166001811115614f7d57fe5b6001811115614f8857fe5b8152602001600b8201548152602001600c8201548152602001600d8201548152602001600e820160009054906101000a900473ffffffffffffffffffffffffffffffffffffffff1673ffffffffffffffffffffffffffffffffffffffff1673ffffffffffffffffffffffffffffffffffffffff168152602001600f82015481525050905085600e800160006101000a81548173ffffffffffffffffffffffffffffffffffffffff021916908373ffffffffffffffffffffffffffffffffffffffff1602179055506150678582610160015161432490919063ffffffff16565b600e600b0181905550600061508b6001836101a0015161432490919063ffffffff16565b905080600e600d018190555082600e600401819055506150b882606001518461432490919063ffffffff16565b600e60050181905550816101e001518114156151345760006150e96002846101200151614c0b90919063ffffffff16565b9050808361012001818152505061510f6002846101e00151614b6f90919063ffffffff16565b836101e001818152505080600e60090181905550826101e00151600e600f0181905550505b60006151666064615158600854600a0a866101200151614c0b90919063ffffffff16565b61432490919063ffffffff16565b905060008360e00151905061519760646151898484614b6f90919063ffffffff16565b614c0b90919063ffffffff16565b600e600701819055506151b887600e600c015461432490919063ffffffff16565b600e600c018190555050505050509392505050565b600073ffffffffffffffffffffffffffffffffffffffff168273ffffffffffffffffffffffffffffffffffffffff1614151515615272576040517f08c379a000000000000000000000000000000000000000000000000000000000815260040180806020018281038252601f8152602001807f45524332303a206d696e7420746f20746865207a65726f20616464726573730081525060200191505060405180910390fd5b6152878160025461432490919063ffffffff16565b6002819055506152de816000808573ffffffffffffffffffffffffffffffffffffffff1673ffffffffffffffffffffffffffffffffffffffff1681526020019081526020016000205461432490919063ffffffff16565b6000808473ffffffffffffffffffffffffffffffffffffffff1673ffffffffffffffffffffffffffffffffffffffff168152602001908152602001600020819055508173ffffffffffffffffffffffffffffffffffffffff16600073ffffffffffffffffffffffffffffffffffffffff167fddf252ad1be2c89b69c2b068fc378daa952ba7f163c4a11628f55a4df523b3ef836040518082815260200191505060405180910390a35050565b600081600360008573ffffffffffffffffffffffffffffffffffffffff1673ffffffffffffffffffffffffffffffffffffffff16815260200190815260200160002060006101000a81548160ff0219169083151502179055507f48335238b4855f35377ed80f164e8c6f3c366e54ac00b96a6402d4a9814a03a58383604051808373ffffffffffffffffffffffffffffffffffffffff1673ffffffffffffffffffffffffffffffffffffffff168152602001821515151581526020019250505060405180910390a16001905092915050565b6102006040519081016040528060008152602001606081526020016000815260200160008152602001600081526020016000815260200160008152602001600081526020016000815260200160008152602001600060018111156154bc57fe5b8152602001600081526020016000815260200160008152602001600073ffffffffffffffffffffffffffffffffffffffff168152602001600081525090565b508054600082559060005260206000209081019061551991906155dd565b50565b828054600181600116156101000203166002900490600052602060002090601f016020900481019282601f1061555d57805160ff191683800117855561558b565b8280016001018555821561558b579182015b8281111561558a57825182559160200191906001019061556f565b5b50905061559891906155dd565b5090565b6080604051908101604052806000815260200160008152602001600073ffffffffffffffffffffffffffffffffffffffff1681526020016000151581525090565b6155ff91905b808211156155fb5760008160009055506001016155e3565b5090565b9056fe45524332303a207472616e7366657220746f20746865207a65726f20616464726573734f6e6c79206f776e65722063616e2063616c6c20746869732066756e6374696f6e2e45524332303a20617070726f766520746f20746865207a65726f2061646472657373536166654d6174683a206d756c7469706c69636174696f6e206f766572666c6f7745524332303a207472616e736665722066726f6d20746865207a65726f206164647265737345524332303a20617070726f76652066726f6d20746865207a65726f2061646472657373a165627a7a72305820452f14a5433b4fb0b1749e8689d0a74a658f51d4bea9077cf154aa8101e53a060029536166654d6174683a206d756c7469706c69636174696f6e206f766572666c6f77",
  "source": "pragma solidity ^0.5.4;\r\n\r\nimport \"./SafeMath.sol\";\r\nimport \"./Entitys.sol\";\r\n\r\nimport \"./ERC20.sol\";\r\nimport \"./ERC20Detailed.sol\";\r\n\r\n/***\r\n    \r\n */\r\ncontract SingleTokenGame  is ERC20, ERC20Detailed{\r\n    modifier onlyOwner {\r\n        require(msg.sender == _owner, \"Only owner can call this function.\");\r\n        _;\r\n    }\r\n\r\n    using SafeMath for uint256;\r\n\r\n    /** */\r\n    //assert(1 wei == 1);\r\n    //assert(1 szabo == 1e12);\r\n    //assert(1 finney == 1e15);\r\n    //assert(1 ether == 1e18);\r\n    uint256 private _trx_decimals = 6;\r\n    uint256 private _price_upper_decimals = 18;\r\n\r\n    /** */\r\n    uint256 private _fee_rate = 10;\r\n    /** */\r\n    uint256 private _recommend_rate = 10;\r\n    address private _owner;\r\n\r\n    /** */\r\n    uint256 private _bonus_rate = 45;\r\n\r\n    /* */\r\n    uint256 private _feeback_rate = 5;\r\n    //10% 10% 5% 30% 45%\r\n    /**\r\n        \r\n     */\r\n    Entitys.GameStruct private current_game;\r\n\r\n    //\r\n    address[] private game_buy_users;\r\n\r\n    /***\r\n    ->->\r\n    */\r\n    mapping(address => Entitys.UserBenefitAndInvestment)\r\n        private game_investment_benefit;\r\n    /**\r\n    ->->\r\n     */\r\n    mapping(address => uint256) private game_user_buy_count;\r\n\r\n    /**\r\n    ->\r\n     */\r\n    mapping(address => uint256) private user_recommend_value;\r\n\r\n    //\r\n    mapping(address => uint256) private user_credit_log;\r\n\r\n    //MTB\r\n    uint256 private buy_airdrop_mtb_count=uint256(1000000);\r\n\r\n    constructor (\r\n        uint256 _game_id,\r\n        string memory _name,\r\n        uint256 _game_times,\r\n        uint256 _price,\r\n        uint256 _price_upper_rate\r\n    ) public ERC20Detailed(\"\", \"LeeLa\", uint8(_trx_decimals)){\r\n        _owner = msg.sender;\r\n        uint256 temp_now = now;\r\n        uint256 _last_buy_time = temp_now;\r\n        uint256 _over_time = temp_now.add(_game_times);\r\n        uint256 _buy_price = _price * (10**uint256(_trx_decimals)); //1^6\r\n        uint256 price_upper_rate =\r\n            _price_upper_rate.mul(10**_price_upper_decimals); //1^18\r\n        uint256 _next_change_rate_count = 70;\r\n        current_game = Entitys.GameStruct({\r\n            game_id: _game_id,\r\n            name: _name,\r\n            begin_time: temp_now,\r\n            game_times: _game_times,\r\n            last_buy_time: _last_buy_time,\r\n            over_time: _over_time,\r\n            base_prce: _buy_price,\r\n            price: _buy_price,\r\n            base_price_upper_rate: price_upper_rate,\r\n            price_upper_rate: price_upper_rate,\r\n            status: Entitys.GameStatus.Ing,\r\n            prize_value: 0,\r\n            bonus_value: 0,\r\n            buy_count: 0,\r\n            last_buy_user_address: _owner,\r\n            next_change_rate_count: _next_change_rate_count\r\n        });\r\n\r\n\r\n          _mint(msg.sender, 1_000_000_000_000 * (10 ** uint256(decimals())));\r\n    }\r\n\r\n    /**\r\n        \r\n        \r\n    */\r\n    function getNow() public view returns (uint256 nowvalue) {\r\n        return now;\r\n    }\r\n\r\n    /***\r\n     *  \r\n     * */\r\n    function getDecimals() public view returns (uint256) {\r\n        return _trx_decimals;\r\n    }\r\n\r\n    /***\r\n     *  \r\n     * */\r\n    function getOwner() public view returns (address) {\r\n        return _owner;\r\n    }\r\n\r\n    /**\r\n     * \r\n     */\r\n    function getCurrentRoundInfo()\r\n        public\r\n        view\r\n        returns (\r\n            uint256 game_id,\r\n            string memory name,\r\n            uint256 begin_time,\r\n            uint256 game_times,\r\n            uint256 last_buy_time,\r\n            uint256 over_time,\r\n            uint256 price,\r\n            uint256 price_upper_rate,\r\n            Entitys.GameStatus status,\r\n            uint256 prize_value,\r\n            uint256 bonus_value,\r\n            uint256 buy_count,\r\n            address last_buy_user_address,\r\n            uint256 next_change_rate_count\r\n        )\r\n    {\r\n        Entitys.GameStruct memory game = current_game;\r\n        game_id = game.game_id;\r\n        name = game.name;\r\n        begin_time = game.begin_time;\r\n        game_times = game.game_times;\r\n        last_buy_time = game.last_buy_time;\r\n        over_time = game.over_time;\r\n        price = game.price;\r\n        price_upper_rate = game.price_upper_rate;\r\n        status = game.status;\r\n        prize_value = game.prize_value;\r\n        buy_count = game.buy_count;\r\n        bonus_value = game.bonus_value;\r\n        last_buy_user_address = game.last_buy_user_address;\r\n        next_change_rate_count = game.next_change_rate_count;\r\n        return (\r\n            game_id,\r\n            name,\r\n            begin_time,\r\n            game_times,\r\n            last_buy_time,\r\n            over_time,\r\n            price,\r\n            price_upper_rate,\r\n            status,\r\n            prize_value,\r\n            bonus_value,\r\n            buy_count,\r\n            last_buy_user_address,\r\n            next_change_rate_count\r\n        );\r\n    }\r\n\r\n    function askprice() public view returns (uint256 price) {\r\n        Entitys.GameStruct memory game = current_game;\r\n        return game.price;\r\n    }\r\n\r\n    //\r\n    event SendRecommend(address bidder, uint256 amount, string event_msg);\r\n\r\n    //\r\n    event SendFeeBack(address bidder, uint256 amount, string event_msg);\r\n    //\r\n    event SendPlatformFee(address bidder, uint256 amount, string event_msg);\r\n    //\r\n    event CalcBonus(address bidder, uint256 amount, string event_msg);\r\n\r\n    //\r\n    event TransferAmount(address bidder, uint256 amount, string event_msg);\r\n\r\n    //\r\n    event BuyGameEvent(\r\n        address bidder,\r\n        uint256 amount,\r\n        uint256 buy_time,\r\n        string event_msg\r\n    );\r\n\r\n    function checkRecommend(address recommend_user)\r\n        private\r\n        view\r\n        returns (bool)\r\n    {\r\n        if (recommend_user == address(0)) {\r\n            return false;\r\n        }\r\n        if (recommend_user == _owner) {\r\n            return true;\r\n        }\r\n        if (game_investment_benefit[recommend_user].isValue) {\r\n            return true;\r\n        }\r\n        return false;\r\n    }\r\n\r\n    /**\r\n     *@recommend_user \r\n     * token\r\n     *1TRX           =\"TJBHq5um63GPdmmjhmSppuep69bygK7cJE====1000000\"\r\n     *0.1TRX         =\"TJBHq5um63GPdmmjhmSppuep69bygK7cJE====100000\"\r\n     *0.000001TRX    =\"TJBHq5um63GPdmmjhmSppuep69bygK7cJE====1\"\r\n     */\r\n    function buy_token(address recommend_user)\r\n        public\r\n        payable\r\n        returns (bool success)\r\n    {\r\n        require(checkRecommend(recommend_user), \"recommend_user Error\");\r\n        // grab time\r\n        //uint256 _now = now;\r\n        Entitys.GameStruct memory game = current_game;\r\n        require(game.game_id != uint256(0), \"game not exist\");\r\n        //1 TRX           =\"TJBHq5um63GPdmmjhmSppuep69bygK7cJE====1000000\"\r\n        //0.1 TRX         =\"TJBHq5um63GPdmmjhmSppuep69bygK7cJE====100000\"\r\n        //0.000001 TRX    =\"TJBHq5um63GPdmmjhmSppuep69bygK7cJE====1\"\r\n        uint256 amount = msg.value; //\r\n        address buyer = msg.sender; //\r\n        uint256 current_price = game.price; //\r\n        uint256 current_buy_count = game.buy_count; //\r\n        if (current_buy_count == uint256(0)) {\r\n            current_buy_count = 1;\r\n        }\r\n        //300%\r\n       current_buy_count=GetEffectiveBuyCount(current_buy_count);//\r\n\r\n        require(game.status == Entitys.GameStatus.Ing, \"This Game Not Ing\");\r\n        require(game.over_time > now, \"Game Is Over\");\r\n        //\r\n        require(current_price <= amount, \"This Game Buy Price is not limit\");\r\n\r\n        //\r\n        uint256 recommend_value = amount.mul(_recommend_rate).div(100);\r\n\r\n        //\r\n        uint256 platform_value = amount.mul(_fee_rate).div(100);\r\n        //\r\n        uint256 bonus_value = amount.mul(_bonus_rate).div(100);\r\n\r\n        //\r\n        uint256 fee_back_value = amount.mul(_feeback_rate).div(100);\r\n\r\n        //\r\n        address temp_recommend_user = _owner; //\r\n        //--/\r\n        Entitys.UserBenefitAndInvestment memory bi =\r\n            game_investment_benefit[buyer];\r\n\r\n        temp_recommend_user = recommend_user; //\r\n        bi.recommend_user_address = recommend_user; //\r\n\r\n        if (bi.isValue && bi.recommend_user_address != address(0)) {\r\n            temp_recommend_user = bi.recommend_user_address;\r\n        }\r\n\r\n        for (uint256 i = 0; i < game_buy_users.length; i++) {\r\n            address temp_user = game_buy_users[i];\r\n            delete user_credit_log[temp_user];\r\n        }\r\n        address(uint160(_owner)).transfer(platform_value); //\r\n        emit SendPlatformFee(_owner, platform_value, \"\");\r\n\r\n        address(uint160(temp_recommend_user)).transfer(recommend_value); //\r\n        user_recommend_value[temp_recommend_user] = user_recommend_value[\r\n            temp_recommend_user\r\n        ]\r\n            .add(recommend_value);\r\n\r\n        emit SendRecommend(\r\n            temp_recommend_user,\r\n            recommend_value,\r\n            \"\"\r\n        );\r\n        if (temp_recommend_user == _owner) {\r\n            //\r\n            address(uint160(_owner)).transfer(fee_back_value); //\r\n            emit SendFeeBack(_owner, fee_back_value, \"\");\r\n        } else {\r\n            //\r\n            address(uint160(buyer)).transfer(fee_back_value); //\r\n            emit SendFeeBack(buyer, fee_back_value, \"\");\r\n        }\r\n\r\n        uint256 used_bonus_value = uint256(0);\r\n\r\n        \r\n        // \r\n        for (uint256 i = 0; i < game_buy_users.length; i++) {\r\n            address temp_user = game_buy_users[i];\r\n            uint256 user_buy_count = game_user_buy_count[temp_user];\r\n            //=*/\r\n            uint256 temp_bonus_value =uint256(0);\r\n            //\r\n            if(CheckUserCanBonus(temp_user))\r\n            {\r\n               temp_bonus_value=bonus_value.mul(user_buy_count).div(current_buy_count);\r\n            }\r\n            //emit CalcBonus(temp_user,temp_bonus_value,\"\");\r\n            used_bonus_value = used_bonus_value.add(temp_bonus_value);\r\n            user_credit_log[temp_user] = user_credit_log[temp_user].add(\r\n                temp_bonus_value\r\n            );\r\n        }\r\n        //\r\n        //=----\r\n        uint256 temp_prize_value = amount.sub(recommend_value); //\r\n        temp_prize_value = temp_prize_value.sub(platform_value); //\r\n        temp_prize_value = temp_prize_value.sub(used_bonus_value); //\r\n        temp_prize_value = temp_prize_value.sub(fee_back_value); //\r\n\r\n        if (bi.isValue) {\r\n            bi = game_investment_benefit[buyer];\r\n            bi.recommend_user_address = temp_recommend_user;\r\n        } else {\r\n            //-\r\n            bi = Entitys.UserBenefitAndInvestment(\r\n                0,\r\n                0,\r\n                temp_recommend_user,\r\n                true\r\n            );\r\n            //\r\n            game_buy_users.push(buyer);\r\n        }\r\n        bi.touru = bi.touru.add(amount);\r\n        //\r\n        game_investment_benefit[buyer] = bi;\r\n        for (uint256 i = 0; i < game_buy_users.length; i++) {\r\n            address temp_user = game_buy_users[i];\r\n            uint256 t_amount = user_credit_log[temp_user]; //\r\n            //RTX To User\r\n            if (t_amount > 0) {\r\n                //\r\n                Entitys.UserBenefitAndInvestment memory temp_bi =\r\n                    game_investment_benefit[temp_user];\r\n                if (temp_bi.isValue) {\r\n                    temp_bi.shouyi = temp_bi.shouyi.add(t_amount);\r\n                } else {\r\n                    //-\r\n                    temp_bi = Entitys.UserBenefitAndInvestment(\r\n                        t_amount,\r\n                        0,\r\n                        address(0),\r\n                        true\r\n                    );\r\n                }\r\n                game_investment_benefit[temp_user] = temp_bi;\r\n                address(uint160(temp_user)).transfer(t_amount);\r\n                emit TransferAmount(temp_user, t_amount, \"\");\r\n            }\r\n        }\r\n        for (uint256 i = 0; i < game_buy_users.length; i++) {\r\n            address temp_user = game_buy_users[i];\r\n            delete user_credit_log[temp_user];\r\n        }\r\n        //+1\r\n        game_user_buy_count[buyer] = game_user_buy_count[buyer].add(1); //+1\r\n        //\r\n        calcGameRate(buyer, temp_prize_value, used_bonus_value);\r\n\r\n        emit BuyGameEvent(buyer, amount, now, \"\");\r\n        \r\n        //MTB\r\n        _transfer(_owner,buyer,buy_airdrop_mtb_count*(10 ** uint256(decimals())));\r\n        return true;\r\n    }\r\n\r\n    /**\r\n    \r\n     */\r\n    function calcGameRate(\r\n        address buyer,\r\n        uint256 prize_value,\r\n        uint256 used_bonus_value\r\n    ) private returns (bool) {\r\n        // grab time\r\n        uint256 _now = now;\r\n        Entitys.GameStruct memory game = current_game;\r\n        //\r\n        current_game.last_buy_user_address = buyer;\r\n        //\r\n        current_game.prize_value = game.prize_value.add(prize_value); //=+\r\n\r\n        //\r\n        uint256 current_buy_count = game.buy_count.add(1);\r\n        current_game.buy_count = current_buy_count; //+1\r\n\r\n        //300%\r\n\r\n        //\r\n        current_game.last_buy_time = _now; //\r\n        //\r\n        current_game.over_time = _now.add(game.game_times); //\r\n        //70-140-280-540-1080-2196-->\r\n        if (current_buy_count == game.next_change_rate_count) {\r\n            uint256 temp_price_rate = game.price_upper_rate.div(2); //\r\n            game.price_upper_rate = temp_price_rate;\r\n            //\r\n            game.next_change_rate_count = game.next_change_rate_count.mul(2);\r\n            current_game.price_upper_rate = temp_price_rate;\r\n            //\r\n            current_game.next_change_rate_count = game.next_change_rate_count;\r\n        }\r\n        //\r\n        uint256 _price_upper_rate =\r\n            game.price_upper_rate.div(10**_price_upper_decimals).add(100);\r\n        uint256 current_price = game.price; //\r\n        //=*115/100\r\n        current_game.price = current_price.mul(_price_upper_rate).div(100);\r\n\r\n        //\r\n        current_game.bonus_value = current_game.bonus_value.add(\r\n            used_bonus_value\r\n        );\r\n    }\r\n\r\n    /***\r\n    \r\n     */\r\n    function GetEffectiveBuyCount(uint current_buy_count) private view returns (uint effective_count){\r\n        effective_count=current_buy_count;\r\n        //\r\n        uint256 threshold_value = uint256(3).mul(10**_trx_decimals);\r\n\r\n        for (uint256 i = 0; i < game_buy_users.length; i++) {\r\n            address temp_user = game_buy_users[i];\r\n            //\r\n            Entitys.UserBenefitAndInvestment memory temp_bi =\r\n                game_investment_benefit[temp_user];\r\n            //\r\n            uint256 user_buy_count = game_user_buy_count[temp_user];\r\n            if (temp_bi.isValue && user_buy_count > 0) {\r\n                //\r\n                uint256 shouyilv = temp_bi.shouyi.div(temp_bi.touru).mul(10**_trx_decimals);\r\n                if (shouyilv >= threshold_value) {\r\n                    effective_count = current_buy_count.sub(user_buy_count);\r\n                }\r\n            }\r\n        }\r\n        return effective_count;\r\n    }\r\n\r\n    /**\r\n    \r\n    */\r\n    function CheckUserCanBonus(address user) private view returns (bool can_bonus) {\r\n        can_bonus = true;\r\n        //\r\n        uint256 threshold_value = uint256(3).mul(10**_trx_decimals);\r\n        //\r\n        Entitys.UserBenefitAndInvestment memory temp_bi =\r\n            game_investment_benefit[user];\r\n        //\r\n        uint256 user_buy_count = game_user_buy_count[user];\r\n        if (temp_bi.isValue && user_buy_count > 0) {\r\n            //\r\n            uint256 shouyilv = temp_bi.shouyi.div(temp_bi.touru).mul(10**_trx_decimals);\r\n            if (shouyilv >= threshold_value) {\r\n                can_bonus=false;\r\n            }\r\n        }\r\n        return can_bonus;\r\n    }\r\n\r\n    /***\r\n     *  \r\n     * */\r\n    function getBuyerBuyCount(address buyer) public view returns (uint256) {\r\n        return game_user_buy_count[buyer];\r\n    }\r\n\r\n    /**\r\n     \r\n     */\r\n    function getBuerIncomeInvestment(address buyer)\r\n        public\r\n        view\r\n        returns (\r\n            uint256 income,\r\n            uint256 investment,\r\n            uint256 recommend_value,\r\n            uint256 buy_count\r\n        )\r\n    {\r\n        Entitys.UserBenefitAndInvestment memory bi =\r\n            game_investment_benefit[buyer];\r\n        income = bi.touru;\r\n        investment = bi.shouyi;\r\n        recommend_value = user_recommend_value[buyer];\r\n        buy_count = game_user_buy_count[buyer];\r\n        return (income, investment, recommend_value, buy_count);\r\n    }\r\n\r\n    function checkGameAndPrize() public view onlyOwner returns (bool) {\r\n        require(_owner == msg.sender, \"Must Owner Execute\");\r\n        uint256 _now = now;\r\n        Entitys.GameStruct memory game = current_game;\r\n        if (game.over_time <= _now) {\r\n            return true;\r\n        }\r\n        return false;\r\n    }\r\n\r\n    function PrizeGame() public onlyOwner returns (bool) {\r\n        require(_owner == msg.sender, \"Must Owner Execute\");\r\n        // grab time\r\n        uint256 _now = now;\r\n        Entitys.GameStruct memory game = current_game;\r\n        if (game.over_time <= _now) {\r\n            //\r\n            if (game.last_buy_user_address != address(0)) {\r\n                if (game.prize_value > 0) {\r\n                    //\r\n                    address(uint160(game.last_buy_user_address)).transfer(\r\n                        game.prize_value\r\n                    ); //\r\n                }\r\n            }\r\n            //-\r\n            for (uint256 i = 0; i < game_buy_users.length; i++) {\r\n                address temp_user = game_buy_users[i];\r\n                delete game_investment_benefit[temp_user];\r\n                delete game_user_buy_count[temp_user];\r\n                delete user_recommend_value[temp_user];\r\n            }\r\n            //\r\n            delete game_buy_users;\r\n            //\r\n\r\n            uint256 temp_now = now;\r\n            uint256 _last_buy_time = temp_now;\r\n            uint256 _over_time = temp_now.add(game.game_times);\r\n            uint256 _buy_price = game.base_prce; //1^6\r\n            uint256 price_upper_rate = game.base_price_upper_rate; //1^18\r\n            uint256 next_change_rate_count = 70;\r\n            uint256 game_id = game.game_id.add(1);\r\n            current_game = Entitys.GameStruct(\r\n                game_id,\r\n                game.name,\r\n                temp_now,\r\n                game.game_times,\r\n                _last_buy_time,\r\n                _over_time,\r\n                _buy_price,\r\n                _buy_price,\r\n                price_upper_rate,\r\n                price_upper_rate,\r\n                Entitys.GameStatus.Ing,\r\n                0,\r\n                0,\r\n                0,\r\n                _owner,\r\n                next_change_rate_count\r\n            );\r\n            return true;\r\n        }\r\n        return false;\r\n    }\r\n\r\n    function kill() public onlyOwner returns (bool) {\r\n        if (_owner == msg.sender) {\r\n            // \r\n            Entitys.GameStruct memory game = current_game;\r\n            if (game.prize_value > 0) {\r\n                address(uint160(_owner)).transfer(game.prize_value);\r\n                selfdestruct(msg.sender);\r\n                return true;\r\n            }\r\n        }\r\n        return false;\r\n    \r\n    }\r\n    /**\r\n    \r\n     */\r\n    function freezeAccount(address target, bool freeze) public onlyOwner returns (bool)\r\n    {   \r\n        require(_owner != target, \"can not freeze owner\");\r\n        return _freezeAccount(target,freeze);\r\n    }\r\n\r\n\r\n\r\n    /*  */\r\n    function mintToken(uint256 mintedAmount) public onlyOwner returns(bool) {\r\n        _mint(_owner,mintedAmount * (10 ** uint256(decimals())));\r\n        return true;\r\n    }\r\n}\r\n",
  "sourcePath": "F:/OtherProducts/tron/maxisacoder-tron-dapp-demo/contracts/SingleTokenGame.sol",
  "compiler": {
    "name": "solc",
    "version": "0.5.4+commit.d15a3125.mod.Emscripten.clang"
  },
  "schemaVersion": "2.0.1",
  "updatedAt": "2021-05-26T02:08:53.060Z"
}