{
  "contractName": "SingleTokenGame",
  "abi": [
    {
      "inputs": [
        {
          "name": "_game_id",
          "type": "uint256"
        },
        {
          "name": "_name",
          "type": "string"
        },
        {
          "name": "_game_times",
          "type": "uint256"
        },
        {
          "name": "_price",
          "type": "uint256"
        },
        {
          "name": "_price_upper_rate",
          "type": "uint256"
        }
      ],
      "payable": false,
      "stateMutability": "nonpayable",
      "type": "constructor"
    },
    {
      "anonymous": false,
      "inputs": [
        {
          "indexed": false,
          "name": "bidder",
          "type": "address"
        },
        {
          "indexed": false,
          "name": "amount",
          "type": "uint256"
        },
        {
          "indexed": false,
          "name": "event_msg",
          "type": "string"
        }
      ],
      "name": "SendRecommend",
      "type": "event"
    },
    {
      "anonymous": false,
      "inputs": [
        {
          "indexed": false,
          "name": "bidder",
          "type": "address"
        },
        {
          "indexed": false,
          "name": "amount",
          "type": "uint256"
        },
        {
          "indexed": false,
          "name": "event_msg",
          "type": "string"
        }
      ],
      "name": "SendFeeBack",
      "type": "event"
    },
    {
      "anonymous": false,
      "inputs": [
        {
          "indexed": false,
          "name": "bidder",
          "type": "address"
        },
        {
          "indexed": false,
          "name": "amount",
          "type": "uint256"
        },
        {
          "indexed": false,
          "name": "event_msg",
          "type": "string"
        }
      ],
      "name": "SendPlatformFee",
      "type": "event"
    },
    {
      "anonymous": false,
      "inputs": [
        {
          "indexed": false,
          "name": "bidder",
          "type": "address"
        },
        {
          "indexed": false,
          "name": "amount",
          "type": "uint256"
        },
        {
          "indexed": false,
          "name": "event_msg",
          "type": "string"
        }
      ],
      "name": "CalcBonus",
      "type": "event"
    },
    {
      "anonymous": false,
      "inputs": [
        {
          "indexed": false,
          "name": "bidder",
          "type": "address"
        },
        {
          "indexed": false,
          "name": "amount",
          "type": "uint256"
        },
        {
          "indexed": false,
          "name": "event_msg",
          "type": "string"
        }
      ],
      "name": "TransferAmount",
      "type": "event"
    },
    {
      "anonymous": false,
      "inputs": [
        {
          "indexed": false,
          "name": "bidder",
          "type": "address"
        },
        {
          "indexed": false,
          "name": "amount",
          "type": "uint256"
        },
        {
          "indexed": false,
          "name": "buy_time",
          "type": "uint256"
        },
        {
          "indexed": false,
          "name": "event_msg",
          "type": "string"
        }
      ],
      "name": "BuyGameEvent",
      "type": "event"
    },
    {
      "constant": true,
      "inputs": [],
      "name": "getNow",
      "outputs": [
        {
          "name": "nowvalue",
          "type": "uint256"
        }
      ],
      "payable": false,
      "stateMutability": "view",
      "type": "function"
    },
    {
      "constant": true,
      "inputs": [],
      "name": "getDecimals",
      "outputs": [
        {
          "name": "",
          "type": "uint256"
        }
      ],
      "payable": false,
      "stateMutability": "view",
      "type": "function"
    },
    {
      "constant": true,
      "inputs": [],
      "name": "getOwner",
      "outputs": [
        {
          "name": "",
          "type": "address"
        }
      ],
      "payable": false,
      "stateMutability": "view",
      "type": "function"
    },
    {
      "constant": true,
      "inputs": [],
      "name": "getCurrentRoundInfo",
      "outputs": [
        {
          "name": "game_id",
          "type": "uint256"
        },
        {
          "name": "name",
          "type": "string"
        },
        {
          "name": "begin_time",
          "type": "uint256"
        },
        {
          "name": "game_times",
          "type": "uint256"
        },
        {
          "name": "last_buy_time",
          "type": "uint256"
        },
        {
          "name": "over_time",
          "type": "uint256"
        },
        {
          "name": "price",
          "type": "uint256"
        },
        {
          "name": "price_upper_rate",
          "type": "uint256"
        },
        {
          "name": "status",
          "type": "uint8"
        },
        {
          "name": "prize_value",
          "type": "uint256"
        },
        {
          "name": "bonus_value",
          "type": "uint256"
        },
        {
          "name": "buy_count",
          "type": "uint256"
        },
        {
          "name": "last_buy_user_address",
          "type": "address"
        },
        {
          "name": "next_change_rate_count",
          "type": "uint256"
        }
      ],
      "payable": false,
      "stateMutability": "view",
      "type": "function"
    },
    {
      "constant": true,
      "inputs": [],
      "name": "askprice",
      "outputs": [
        {
          "name": "price",
          "type": "uint256"
        }
      ],
      "payable": false,
      "stateMutability": "view",
      "type": "function"
    },
    {
      "constant": false,
      "inputs": [
        {
          "name": "recommend_user",
          "type": "address"
        }
      ],
      "name": "buy_token",
      "outputs": [
        {
          "name": "success",
          "type": "bool"
        }
      ],
      "payable": true,
      "stateMutability": "payable",
      "type": "function"
    },
    {
      "constant": true,
      "inputs": [
        {
          "name": "buyer",
          "type": "address"
        }
      ],
      "name": "getBuyerBuyCount",
      "outputs": [
        {
          "name": "",
          "type": "uint256"
        }
      ],
      "payable": false,
      "stateMutability": "view",
      "type": "function"
    },
    {
      "constant": true,
      "inputs": [
        {
          "name": "buyer",
          "type": "address"
        }
      ],
      "name": "getBuerIncomeInvestment",
      "outputs": [
        {
          "name": "income",
          "type": "uint256"
        },
        {
          "name": "investment",
          "type": "uint256"
        },
        {
          "name": "recommend_value",
          "type": "uint256"
        },
        {
          "name": "buy_count",
          "type": "uint256"
        }
      ],
      "payable": false,
      "stateMutability": "view",
      "type": "function"
    },
    {
      "constant": true,
      "inputs": [],
      "name": "checkGameAndPrize",
      "outputs": [
        {
          "name": "",
          "type": "bool"
        }
      ],
      "payable": false,
      "stateMutability": "view",
      "type": "function"
    },
    {
      "constant": false,
      "inputs": [],
      "name": "PrizeGame",
      "outputs": [
        {
          "name": "",
          "type": "bool"
        }
      ],
      "payable": false,
      "stateMutability": "nonpayable",
      "type": "function"
    },
    {
      "constant": false,
      "inputs": [],
      "name": "kill",
      "outputs": [
        {
          "name": "",
          "type": "bool"
        }
      ],
      "payable": false,
      "stateMutability": "nonpayable",
      "type": "function"
    }
  ],
  "bytecode": "0x608060405260066000556012600155600a600255600a600355602d60055560056006553480156200002f57600080fd5b50d380156200003d57600080fd5b50d280156200004b57600080fd5b5060405162003c3738038062003c37833981018060405260a08110156200007157600080fd5b810190808051906020019092919080516401000000008111156200009457600080fd5b82810190506020810184811115620000ab57600080fd5b8151856001820283011164010000000082111715620000c957600080fd5b505092919060200180519060200190929190805190602001909291908051906020019092919050505033600460006101000a81548173ffffffffffffffffffffffffffffffffffffffff021916908373ffffffffffffffffffffffffffffffffffffffff160217905550600042905060008190506000620001628684620003646401000000000262002ec4179091906401000000009004565b905060008054600a0a860290506000600154600a0a86029050600060469050610200604051908101604052808c81526020018b81526020018781526020018a815260200186815260200185815260200184815260200184815260200183815260200183815260200160006001811115620001d857fe5b8152602001600081526020016000815260200160008152602001600460009054906101000a900473ffffffffffffffffffffffffffffffffffffffff1673ffffffffffffffffffffffffffffffffffffffff1681526020018281525060076000820151816000015560208201518160010190805190602001906200025e929190620003ef565b5060408201518160020155606082015181600301556080820151816004015560a0820151816005015560c0820151816006015560e082015181600701556101008201518160080155610120820151816009015561014082015181600a0160006101000a81548160ff02191690836001811115620002d757fe5b021790555061016082015181600b015561018082015181600c01556101a082015181600d01556101c082015181600e0160006101000a81548173ffffffffffffffffffffffffffffffffffffffff021916908373ffffffffffffffffffffffffffffffffffffffff1602179055506101e082015181600f015590505050505050505050505050506200049e565b6000808284019050838110151515620003e5576040517f08c379a000000000000000000000000000000000000000000000000000000000815260040180806020018281038252601b8152602001807f536166654d6174683a206164646974696f6e206f766572666c6f77000000000081525060200191505060405180910390fd5b8091505092915050565b828054600181600116156101000203166002900490600052602060002090601f016020900481019282601f106200043257805160ff191683800117855562000463565b8280016001018555821562000463579182015b828111156200046257825182559160200191906001019062000445565b5b50905062000472919062000476565b5090565b6200049b91905b80821115620004975760008160009055506001016200047d565b5090565b90565b61378980620004ae6000396000f3fe6080604052600436106100b9576000357c010000000000000000000000000000000000000000000000000000000090048063747dff4211610081578063747dff42146102a85780637beeee09146103e7578063893d20e814610430578063a155e204146104a1578063bbe4fd50146104fd578063f0141d8414610542576100b9565b80631986c811146100be57806325527ece1461010757806330a218121461014c578063332e64e7146101e057806341c0e1b51461025f575b600080fd5b3480156100ca57600080fd5b50d380156100d757600080fd5b50d280156100e457600080fd5b506100ed610587565b604051808215151515815260200191505060405180910390f35b34801561011357600080fd5b50d3801561012057600080fd5b50d2801561012d57600080fd5b50610136610bb0565b6040518082815260200191505060405180910390f35b34801561015857600080fd5b50d3801561016557600080fd5b50d2801561017257600080fd5b506101b56004803603602081101561018957600080fd5b81019080803573ffffffffffffffffffffffffffffffffffffffff169060200190929190505050610d7d565b6040518085815260200184815260200183815260200182815260200194505050505060405180910390f35b3480156101ec57600080fd5b50d380156101f957600080fd5b50d2801561020657600080fd5b506102496004803603602081101561021d57600080fd5b81019080803573ffffffffffffffffffffffffffffffffffffffff169060200190929190505050610f03565b6040518082815260200191505060405180910390f35b34801561026b57600080fd5b50d3801561027857600080fd5b50d2801561028557600080fd5b5061028e610f4c565b604051808215151515815260200191505060405180910390f35b3480156102b457600080fd5b50d380156102c157600080fd5b50d280156102ce57600080fd5b506102d76112aa565b604051808f8152602001806020018e81526020018d81526020018c81526020018b81526020018a815260200189815260200188600181111561031557fe5b60ff1681526020018781526020018681526020018581526020018473ffffffffffffffffffffffffffffffffffffffff1673ffffffffffffffffffffffffffffffffffffffff16815260200183815260200182810382528f818151815260200191508051906020019080838360005b8381101561039f578082015181840152602081019050610384565b50505050905090810190601f1680156103cc5780820380516001836020036101000a031916815260200191505b509f5050505050505050505050505050505060405180910390f35b3480156103f357600080fd5b50d3801561040057600080fd5b50d2801561040d57600080fd5b50610416611524565b604051808215151515815260200191505060405180910390f35b34801561043c57600080fd5b50d3801561044957600080fd5b50d2801561045657600080fd5b5061045f61187a565b604051808273ffffffffffffffffffffffffffffffffffffffff1673ffffffffffffffffffffffffffffffffffffffff16815260200191505060405180910390f35b6104e3600480360360208110156104b757600080fd5b81019080803573ffffffffffffffffffffffffffffffffffffffff1690602001909291905050506118a4565b604051808215151515815260200191505060405180910390f35b34801561050957600080fd5b50d3801561051657600080fd5b50d2801561052357600080fd5b5061052c612eb3565b6040518082815260200191505060405180910390f35b34801561054e57600080fd5b50d3801561055b57600080fd5b50d2801561056857600080fd5b50610571612ebb565b6040518082815260200191505060405180910390f35b6000600460009054906101000a900473ffffffffffffffffffffffffffffffffffffffff1673ffffffffffffffffffffffffffffffffffffffff163373ffffffffffffffffffffffffffffffffffffffff16141515610631576040517f08c379a000000000000000000000000000000000000000000000000000000000815260040180806020018281038252602281526020018061371b6022913960400191505060405180910390fd5b3373ffffffffffffffffffffffffffffffffffffffff16600460009054906101000a900473ffffffffffffffffffffffffffffffffffffffff1673ffffffffffffffffffffffffffffffffffffffff161415156106f6576040517f08c379a00000000000000000000000000000000000000000000000000000000081526004018080602001828103825260128152602001807f4d757374204f776e65722045786563757465000000000000000000000000000081525060200191505060405180910390fd5b6000429050610703613595565b6007610200604051908101604052908160008201548152602001600182018054600181600116156101000203166002900480601f0160208091040260200160405190810160405280929190818152602001828054600181600116156101000203166002900480156107b55780601f1061078a576101008083540402835291602001916107b5565b820191906000526020600020905b81548152906001019060200180831161079857829003601f168201915b505050505081526020016002820154815260200160038201548152602001600482015481526020016005820154815260200160068201548152602001600782015481526020016008820154815260200160098201548152602001600a820160009054906101000a900460ff16600181111561082c57fe5b600181111561083757fe5b8152602001600b8201548152602001600c8201548152602001600d8201548152602001600e820160009054906101000a900473ffffffffffffffffffffffffffffffffffffffff1673ffffffffffffffffffffffffffffffffffffffff1673ffffffffffffffffffffffffffffffffffffffff168152602001600f820154815250509050818160a00151111515610ba657600073ffffffffffffffffffffffffffffffffffffffff16816101c0015173ffffffffffffffffffffffffffffffffffffffff16141515610964576000816101600151111561096357806101c0015173ffffffffffffffffffffffffffffffffffffffff166108fc8261016001519081150290604051600060405180830381858888f19350505050158015610961573d6000803e3d6000fd5b505b5b600042905060008190506000610987846060015184612ec490919063ffffffff16565b905060008460c0015190506000856101000151905060006046905060006109bc60018960000151612ec490919063ffffffff16565b905061020060405190810160405280828152602001896020015181526020018881526020018960600151815260200187815260200186815260200185815260200185815260200184815260200184815260200160006001811115610a1c57fe5b8152602001600081526020016000815260200160008152602001600460009054906101000a900473ffffffffffffffffffffffffffffffffffffffff1673ffffffffffffffffffffffffffffffffffffffff168152602001838152506007600082015181600001556020820151816001019080519060200190610aa0929190613634565b5060408201518160020155606082015181600301556080820151816004015560a0820151816005015560c0820151816006015560e082015181600701556101008201518160080155610120820151816009015561014082015181600a0160006101000a81548160ff02191690836001811115610b1857fe5b021790555061016082015181600b015561018082015181600c01556101a082015181600d01556101c082015181600e0160006101000a81548173ffffffffffffffffffffffffffffffffffffffff021916908373ffffffffffffffffffffffffffffffffffffffff1602179055506101e082015181600f015590505060019950505050505050505050610bad565b6000925050505b90565b6000610bba613595565b6007610200604051908101604052908160008201548152602001600182018054600181600116156101000203166002900480601f016020809104026020016040519081016040528092919081815260200182805460018160011615610100020316600290048015610c6c5780601f10610c4157610100808354040283529160200191610c6c565b820191906000526020600020905b815481529060010190602001808311610c4f57829003601f168201915b505050505081526020016002820154815260200160038201548152602001600482015481526020016005820154815260200160068201548152602001600782015481526020016008820154815260200160098201548152602001600a820160009054906101000a900460ff166001811115610ce357fe5b6001811115610cee57fe5b8152602001600b8201548152602001600c8201548152602001600d8201548152602001600e820160009054906101000a900473ffffffffffffffffffffffffffffffffffffffff1673ffffffffffffffffffffffffffffffffffffffff1673ffffffffffffffffffffffffffffffffffffffff168152602001600f8201548152505090508060e0015191505090565b600080600080610d8b6136b4565b601860008773ffffffffffffffffffffffffffffffffffffffff1673ffffffffffffffffffffffffffffffffffffffff1681526020019081526020016000206080604051908101604052908160008201548152602001600182015481526020016002820160009054906101000a900473ffffffffffffffffffffffffffffffffffffffff1673ffffffffffffffffffffffffffffffffffffffff1673ffffffffffffffffffffffffffffffffffffffff1681526020016002820160149054906101000a900460ff16151515158152505090508060200151945080600001519350601a60008773ffffffffffffffffffffffffffffffffffffffff1673ffffffffffffffffffffffffffffffffffffffff168152602001908152602001600020549250601960008773ffffffffffffffffffffffffffffffffffffffff1673ffffffffffffffffffffffffffffffffffffffff168152602001908152602001600020549150848484849450945094509450509193509193565b6000601960008373ffffffffffffffffffffffffffffffffffffffff1673ffffffffffffffffffffffffffffffffffffffff168152602001908152602001600020549050919050565b6000600460009054906101000a900473ffffffffffffffffffffffffffffffffffffffff1673ffffffffffffffffffffffffffffffffffffffff163373ffffffffffffffffffffffffffffffffffffffff16141515610ff6576040517f08c379a000000000000000000000000000000000000000000000000000000000815260040180806020018281038252602281526020018061371b6022913960400191505060405180910390fd5b3373ffffffffffffffffffffffffffffffffffffffff16600460009054906101000a900473ffffffffffffffffffffffffffffffffffffffff1673ffffffffffffffffffffffffffffffffffffffff1614156112a357611054613595565b6007610200604051908101604052908160008201548152602001600182018054600181600116156101000203166002900480601f0160208091040260200160405190810160405280929190818152602001828054600181600116156101000203166002900480156111065780601f106110db57610100808354040283529160200191611106565b820191906000526020600020905b8154815290600101906020018083116110e957829003601f168201915b505050505081526020016002820154815260200160038201548152602001600482015481526020016005820154815260200160068201548152602001600782015481526020016008820154815260200160098201548152602001600a820160009054906101000a900460ff16600181111561117d57fe5b600181111561118857fe5b8152602001600b8201548152602001600c8201548152602001600d8201548152602001600e820160009054906101000a900473ffffffffffffffffffffffffffffffffffffffff1673ffffffffffffffffffffffffffffffffffffffff1673ffffffffffffffffffffffffffffffffffffffff168152602001600f820154815250509050600081610160015111156112a157600460009054906101000a900473ffffffffffffffffffffffffffffffffffffffff1673ffffffffffffffffffffffffffffffffffffffff166108fc8261016001519081150290604051600060405180830381858888f19350505050158015611287573d6000803e3d6000fd5b503373ffffffffffffffffffffffffffffffffffffffff16ff5b505b6000905090565b600060606000806000806000806000806000806000806112c8613595565b6007610200604051908101604052908160008201548152602001600182018054600181600116156101000203166002900480601f01602080910402602001604051908101604052809291908181526020018280546001816001161561010002031660029004801561137a5780601f1061134f5761010080835404028352916020019161137a565b820191906000526020600020905b81548152906001019060200180831161135d57829003601f168201915b505050505081526020016002820154815260200160038201548152602001600482015481526020016005820154815260200160068201548152602001600782015481526020016008820154815260200160098201548152602001600a820160009054906101000a900460ff1660018111156113f157fe5b60018111156113fc57fe5b8152602001600b8201548152602001600c8201548152602001600d8201548152602001600e820160009054906101000a900473ffffffffffffffffffffffffffffffffffffffff1673ffffffffffffffffffffffffffffffffffffffff1673ffffffffffffffffffffffffffffffffffffffff168152602001600f82015481525050905080600001519e5080602001519d5080604001519c5080606001519b5080608001519a508060a0015199508060e001519850806101200151975080610140015196508061016001519550806101a0015193508061018001519450806101c001519250806101e0015191508e8e8e8e8e8e8e8e8e8e8e8e8e8e9e509e509e509e509e509e509e509e509e509e509e509e509e509e5050909192939495969798999a9b9c9d565b6000600460009054906101000a900473ffffffffffffffffffffffffffffffffffffffff1673ffffffffffffffffffffffffffffffffffffffff163373ffffffffffffffffffffffffffffffffffffffff161415156115ce576040517f08c379a000000000000000000000000000000000000000000000000000000000815260040180806020018281038252602281526020018061371b6022913960400191505060405180910390fd5b3373ffffffffffffffffffffffffffffffffffffffff16600460009054906101000a900473ffffffffffffffffffffffffffffffffffffffff1673ffffffffffffffffffffffffffffffffffffffff16141515611693576040517f08c379a00000000000000000000000000000000000000000000000000000000081526004018080602001828103825260128152602001807f4d757374204f776e65722045786563757465000000000000000000000000000081525060200191505060405180910390fd5b60004290506116a0613595565b6007610200604051908101604052908160008201548152602001600182018054600181600116156101000203166002900480601f0160208091040260200160405190810160405280929190818152602001828054600181600116156101000203166002900480156117525780601f1061172757610100808354040283529160200191611752565b820191906000526020600020905b81548152906001019060200180831161173557829003601f168201915b505050505081526020016002820154815260200160038201548152602001600482015481526020016005820154815260200160068201548152602001600782015481526020016008820154815260200160098201548152602001600a820160009054906101000a900460ff1660018111156117c957fe5b60018111156117d457fe5b8152602001600b8201548152602001600c8201548152602001600d8201548152602001600e820160009054906101000a900473ffffffffffffffffffffffffffffffffffffffff1673ffffffffffffffffffffffffffffffffffffffff1673ffffffffffffffffffffffffffffffffffffffff168152602001600f820154815250509050818160a0015111151561187057600192505050611877565b6000925050505b90565b6000600460009054906101000a900473ffffffffffffffffffffffffffffffffffffffff16905090565b60006118af82612f4e565b1515611923576040517f08c379a00000000000000000000000000000000000000000000000000000000081526004018080602001828103825260148152602001807f7265636f6d6d656e645f75736572204572726f7200000000000000000000000081525060200191505060405180910390fd5b61192b613595565b6007610200604051908101604052908160008201548152602001600182018054600181600116156101000203166002900480601f0160208091040260200160405190810160405280929190818152602001828054600181600116156101000203166002900480156119dd5780601f106119b2576101008083540402835291602001916119dd565b820191906000526020600020905b8154815290600101906020018083116119c057829003601f168201915b505050505081526020016002820154815260200160038201548152602001600482015481526020016005820154815260200160068201548152602001600782015481526020016008820154815260200160098201548152602001600a820160009054906101000a900460ff166001811115611a5457fe5b6001811115611a5f57fe5b8152602001600b8201548152602001600c8201548152602001600d8201548152602001600e820160009054906101000a900473ffffffffffffffffffffffffffffffffffffffff1673ffffffffffffffffffffffffffffffffffffffff1673ffffffffffffffffffffffffffffffffffffffff168152602001600f8201548152505090506000816000015114151515611b60576040517f08c379a000000000000000000000000000000000000000000000000000000000815260040180806020018281038252600e8152602001807f67616d65206e6f7420657869737400000000000000000000000000000000000081525060200191505060405180910390fd5b6000349050600033905060008360e0015190506000846101a0015190506000811415611b8b57600190505b60006001811115611b9857fe5b8561014001516001811115611ba957fe5b141515611c1e576040517f08c379a00000000000000000000000000000000000000000000000000000000081526004018080602001828103825260118152602001807f546869732047616d65204e6f7420496e6700000000000000000000000000000081525060200191505060405180910390fd5b838211151515611c96576040517f08c379a00000000000000000000000000000000000000000000000000000000081526004018080602001828103825260208152602001807f546869732047616d6520427579205072696365206973206e6f74206c696d697481525060200191505060405180910390fd5b6000611cc06064611cb26003548861305490919063ffffffff16565b6130f090919063ffffffff16565b90506000611cec6064611cde6002548961305490919063ffffffff16565b6130f090919063ffffffff16565b90506000611d186064611d0a6005548a61305490919063ffffffff16565b6130f090919063ffffffff16565b90506000611d446064611d366006548b61305490919063ffffffff16565b6130f090919063ffffffff16565b90506000600460009054906101000a900473ffffffffffffffffffffffffffffffffffffffff169050611d756136b4565b601860008a73ffffffffffffffffffffffffffffffffffffffff1673ffffffffffffffffffffffffffffffffffffffff1681526020019081526020016000206080604051908101604052908160008201548152602001600182015481526020016002820160009054906101000a900473ffffffffffffffffffffffffffffffffffffffff1673ffffffffffffffffffffffffffffffffffffffff1673ffffffffffffffffffffffffffffffffffffffff1681526020016002820160149054906101000a900460ff16151515158152505090508c91508c816040019073ffffffffffffffffffffffffffffffffffffffff16908173ffffffffffffffffffffffffffffffffffffffff168152505080606001518015611ec45750600073ffffffffffffffffffffffffffffffffffffffff16816040015173ffffffffffffffffffffffffffffffffffffffff1614155b15611ed157806040015191505b60008090505b601780549050811015611f73576000601782815481101515611ef557fe5b9060005260206000200160009054906101000a900473ffffffffffffffffffffffffffffffffffffffff169050601b60008273ffffffffffffffffffffffffffffffffffffffff1673ffffffffffffffffffffffffffffffffffffffff16815260200190815260200160002060009055508080600101915050611ed7565b50600460009054906101000a900473ffffffffffffffffffffffffffffffffffffffff1673ffffffffffffffffffffffffffffffffffffffff166108fc869081150290604051600060405180830381858888f19350505050158015611fdc573d6000803e3d6000fd5b507fc0d91c82e97814aa565f0d03c18f64ee424f76125f42d94ddfceff120b4f8995600460009054906101000a900473ffffffffffffffffffffffffffffffffffffffff1686604051808373ffffffffffffffffffffffffffffffffffffffff1673ffffffffffffffffffffffffffffffffffffffff16815260200182815260200180602001828103825260158152602001807fe58f91e694bee5b9b3e58fb0e6898be7bbade8b4b90000000000000000000000815250602001935050505060405180910390a18173ffffffffffffffffffffffffffffffffffffffff166108fc879081150290604051600060405180830381858888f193505050501580156120e9573d6000803e3d6000fd5b5061213c86601a60008573ffffffffffffffffffffffffffffffffffffffff1673ffffffffffffffffffffffffffffffffffffffff16815260200190815260200160002054612ec490919063ffffffff16565b601a60008473ffffffffffffffffffffffffffffffffffffffff1673ffffffffffffffffffffffffffffffffffffffff168152602001908152602001600020819055507f4374886bfaca751b7f029933ffc2bad8439bbbb974547c4d1bf00d230c04ca068287604051808373ffffffffffffffffffffffffffffffffffffffff1673ffffffffffffffffffffffffffffffffffffffff16815260200182815260200180602001828103825260128152602001807fe58f91e694bee68ea8e88d90e5a596e58ab10000000000000000000000000000815250602001935050505060405180910390a1600460009054906101000a900473ffffffffffffffffffffffffffffffffffffffff1673ffffffffffffffffffffffffffffffffffffffff168273ffffffffffffffffffffffffffffffffffffffff1614156123ad57600460009054906101000a900473ffffffffffffffffffffffffffffffffffffffff1673ffffffffffffffffffffffffffffffffffffffff166108fc849081150290604051600060405180830381858888f193505050501580156122e1573d6000803e3d6000fd5b507f6b4d7266512708fa68ea31c0b0828f3fca58f0fabf63d5301e3b79dde007fdc1600460009054906101000a900473ffffffffffffffffffffffffffffffffffffffff1684604051808373ffffffffffffffffffffffffffffffffffffffff1673ffffffffffffffffffffffffffffffffffffffff168152602001828152602001806020018281038252600c8152602001807fe8bf94e588a9e5b9b3e58fb00000000000000000000000000000000000000000815250602001935050505060405180910390a1612499565b8873ffffffffffffffffffffffffffffffffffffffff166108fc849081150290604051600060405180830381858888f193505050501580156123f3573d6000803e3d6000fd5b507f6b4d7266512708fa68ea31c0b0828f3fca58f0fabf63d5301e3b79dde007fdc18984604051808373ffffffffffffffffffffffffffffffffffffffff1673ffffffffffffffffffffffffffffffffffffffff168152602001828152602001806020018281038252600f8152602001807fe8bf94e588a9e7bb99e794a8e688b70000000000000000000000000000000000815250602001935050505060405180910390a15b600080905060008090505b6017805490508110156126165760006017828154811015156124c257fe5b9060005260206000200160009054906101000a900473ffffffffffffffffffffffffffffffffffffffff1690506000601960008373ffffffffffffffffffffffffffffffffffffffff1673ffffffffffffffffffffffffffffffffffffffff168152602001908152602001600020549050600061255a8c61254c848c61305490919063ffffffff16565b6130f090919063ffffffff16565b905061256f8186612ec490919063ffffffff16565b94506125c381601b60008673ffffffffffffffffffffffffffffffffffffffff1673ffffffffffffffffffffffffffffffffffffffff16815260200190815260200160002054612ec490919063ffffffff16565b601b60008573ffffffffffffffffffffffffffffffffffffffff1673ffffffffffffffffffffffffffffffffffffffff1681526020019081526020016000208190555050505080806001019150506124a4565b50600061262c888d61318390919063ffffffff16565b9050612641878261318390919063ffffffff16565b9050612656828261318390919063ffffffff16565b905061266b858261318390919063ffffffff16565b905082606001511561278657601860008c73ffffffffffffffffffffffffffffffffffffffff1673ffffffffffffffffffffffffffffffffffffffff1681526020019081526020016000206080604051908101604052908160008201548152602001600182015481526020016002820160009054906101000a900473ffffffffffffffffffffffffffffffffffffffff1673ffffffffffffffffffffffffffffffffffffffff1673ffffffffffffffffffffffffffffffffffffffff1681526020016002820160149054906101000a900460ff161515151581525050925083836040019073ffffffffffffffffffffffffffffffffffffffff16908173ffffffffffffffffffffffffffffffffffffffff168152505061282c565b60806040519081016040528060008152602001600081526020018573ffffffffffffffffffffffffffffffffffffffff16815260200160011515815250925060178b90806001815401808255809150509060018203906000526020600020016000909192909190916101000a81548173ffffffffffffffffffffffffffffffffffffffff021916908373ffffffffffffffffffffffffffffffffffffffff160217905550505b6128438c8460200151612ec490919063ffffffff16565b83602001818152505082601860008d73ffffffffffffffffffffffffffffffffffffffff1673ffffffffffffffffffffffffffffffffffffffff168152602001908152602001600020600082015181600001556020820151816001015560408201518160020160006101000a81548173ffffffffffffffffffffffffffffffffffffffff021916908373ffffffffffffffffffffffffffffffffffffffff16021790555060608201518160020160146101000a81548160ff02191690831515021790555090505060008090505b601780549050811015612cab57600060178281548110151561292e57fe5b9060005260206000200160009054906101000a900473ffffffffffffffffffffffffffffffffffffffff1690506000601b60008373ffffffffffffffffffffffffffffffffffffffff1673ffffffffffffffffffffffffffffffffffffffff1681526020019081526020016000205490506000811115612c9c576129b06136b4565b601860008473ffffffffffffffffffffffffffffffffffffffff1673ffffffffffffffffffffffffffffffffffffffff1681526020019081526020016000206080604051908101604052908160008201548152602001600182015481526020016002820160009054906101000a900473ffffffffffffffffffffffffffffffffffffffff1673ffffffffffffffffffffffffffffffffffffffff1673ffffffffffffffffffffffffffffffffffffffff1681526020016002820160149054906101000a900460ff1615151515815250509050806060015115612ab157612aa3828260000151612ec490919063ffffffff16565b816000018181525050612af1565b60806040519081016040528083815260200160008152602001600073ffffffffffffffffffffffffffffffffffffffff1681526020016001151581525090505b80601860008573ffffffffffffffffffffffffffffffffffffffff1673ffffffffffffffffffffffffffffffffffffffff168152602001908152602001600020600082015181600001556020820151816001015560408201518160020160006101000a81548173ffffffffffffffffffffffffffffffffffffffff021916908373ffffffffffffffffffffffffffffffffffffffff16021790555060608201518160020160146101000a81548160ff0219169083151502179055509050508273ffffffffffffffffffffffffffffffffffffffff166108fc839081150290604051600060405180830381858888f19350505050158015612bf5573d6000803e3d6000fd5b507fde3810754a10190424b293c24463eeaa95fa7548782a204075a6acb2170e40e48383604051808373ffffffffffffffffffffffffffffffffffffffff1673ffffffffffffffffffffffffffffffffffffffff16815260200182815260200180602001828103825260128152602001807fe58f91e98081e58886e7baa2e5a596e58ab10000000000000000000000000000815250602001935050505060405180910390a1505b50508080600101915050612910565b5060008090505b601780549050811015612d4e576000601782815481101515612cd057fe5b9060005260206000200160009054906101000a900473ffffffffffffffffffffffffffffffffffffffff169050601b60008273ffffffffffffffffffffffffffffffffffffffff1673ffffffffffffffffffffffffffffffffffffffff16815260200190815260200160002060009055508080600101915050612cb2565b50612da26001601960008e73ffffffffffffffffffffffffffffffffffffffff1673ffffffffffffffffffffffffffffffffffffffff16815260200190815260200160002054612ec490919063ffffffff16565b601960008d73ffffffffffffffffffffffffffffffffffffffff1673ffffffffffffffffffffffffffffffffffffffff16815260200190815260200160002081905550612df08b828461320e565b507fb6668bab6642a507a81c08f30893aaa47e0c29df8e88ad6b9c19ffd3a2296cf38b8d42604051808473ffffffffffffffffffffffffffffffffffffffff1673ffffffffffffffffffffffffffffffffffffffff16815260200183815260200182815260200180602001828103825260068152602001807fe8b4ade4b9b0000000000000000000000000000000000000000000000000000081525060200194505050505060405180910390a160019d5050505050505050505050505050919050565b600042905090565b60008054905090565b6000808284019050838110151515612f44576040517f08c379a000000000000000000000000000000000000000000000000000000000815260040180806020018281038252601b8152602001807f536166654d6174683a206164646974696f6e206f766572666c6f77000000000081525060200191505060405180910390fd5b8091505092915050565b60008073ffffffffffffffffffffffffffffffffffffffff168273ffffffffffffffffffffffffffffffffffffffff161415612f8d576000905061304f565b600460009054906101000a900473ffffffffffffffffffffffffffffffffffffffff1673ffffffffffffffffffffffffffffffffffffffff168273ffffffffffffffffffffffffffffffffffffffff161415612fec576001905061304f565b601860008373ffffffffffffffffffffffffffffffffffffffff1673ffffffffffffffffffffffffffffffffffffffff16815260200190815260200160002060020160149054906101000a900460ff161561304a576001905061304f565b600090505b919050565b60008083141561306757600090506130ea565b600082141561307957600090506130ea565b6000828402905082848281151561308c57fe5b041415156130e5576040517f08c379a000000000000000000000000000000000000000000000000000000000815260040180806020018281038252602181526020018061373d6021913960400191505060405180910390fd5b809150505b92915050565b60008082111515613169576040517f08c379a000000000000000000000000000000000000000000000000000000000815260040180806020018281038252601a8152602001807f536166654d6174683a206469766973696f6e206279207a65726f00000000000081525060200191505060405180910390fd5b6000828481151561317657fe5b0490508091505092915050565b60008282111515156131fd576040517f08c379a000000000000000000000000000000000000000000000000000000000815260040180806020018281038252601e8152602001807f536166654d6174683a207375627472616374696f6e206f766572666c6f77000081525060200191505060405180910390fd5b600082840390508091505092915050565b60008042905061321c613595565b6007610200604051908101604052908160008201548152602001600182018054600181600116156101000203166002900480601f0160208091040260200160405190810160405280929190818152602001828054600181600116156101000203166002900480156132ce5780601f106132a3576101008083540402835291602001916132ce565b820191906000526020600020905b8154815290600101906020018083116132b157829003601f168201915b505050505081526020016002820154815260200160038201548152602001600482015481526020016005820154815260200160068201548152602001600782015481526020016008820154815260200160098201548152602001600a820160009054906101000a900460ff16600181111561334557fe5b600181111561335057fe5b8152602001600b8201548152602001600c8201548152602001600d8201548152602001600e820160009054906101000a900473ffffffffffffffffffffffffffffffffffffffff1673ffffffffffffffffffffffffffffffffffffffff1673ffffffffffffffffffffffffffffffffffffffff168152602001600f820154815250509050856007600e0160006101000a81548173ffffffffffffffffffffffffffffffffffffffff021916908373ffffffffffffffffffffffffffffffffffffffff16021790555061343085826101600151612ec490919063ffffffff16565b6007600b018190555060006134546001836101a00151612ec490919063ffffffff16565b9050806007600d018190555082600760040181905550613481826060015184612ec490919063ffffffff16565b600760050181905550816101e001518114156134fd5760006134b260028461012001516130f090919063ffffffff16565b905080836101200181815250506134d86002846101e0015161305490919063ffffffff16565b836101e001818152505080600760090181905550826101e001516007600f0181905550505b600061352f6064613521600154600a0a8661012001516130f090919063ffffffff16565b612ec490919063ffffffff16565b905060008360e0015190506135606064613552848461305490919063ffffffff16565b6130f090919063ffffffff16565b6007800181905550613580876007600c0154612ec490919063ffffffff16565b6007600c018190555050505050509392505050565b6102006040519081016040528060008152602001606081526020016000815260200160008152602001600081526020016000815260200160008152602001600081526020016000815260200160008152602001600060018111156135f557fe5b8152602001600081526020016000815260200160008152602001600073ffffffffffffffffffffffffffffffffffffffff168152602001600081525090565b828054600181600116156101000203166002900490600052602060002090601f016020900481019282601f1061367557805160ff19168380011785556136a3565b828001600101855582156136a3579182015b828111156136a2578251825591602001919060010190613687565b5b5090506136b091906136f5565b5090565b6080604051908101604052806000815260200160008152602001600073ffffffffffffffffffffffffffffffffffffffff1681526020016000151581525090565b61371791905b808211156137135760008160009055506001016136fb565b5090565b9056fe4f6e6c79206f776e65722063616e2063616c6c20746869732066756e6374696f6e2e536166654d6174683a206d756c7469706c69636174696f6e206f766572666c6f77a165627a7a72305820d465b153557dbdff1baa5ca09622feb983688ef2d9d75b66be220e30524a23d00029",
  "source": "pragma solidity ^0.5.4;\r\n\r\nimport \"./SafeMath.sol\";\r\nimport \"./Entitys.sol\";\r\n/***\r\n    \r\n */\r\ncontract SingleTokenGame{\r\n\r\n    modifier onlyOwner {\r\n    require(\r\n        msg.sender == _owner,\r\n        \"Only owner can call this function.\"\r\n    );\r\n    _;\r\n    }\r\n\r\n    using SafeMath for uint256;\r\n    \r\n\r\n\r\n\r\n    /** */\r\n    //assert(1 wei == 1);\r\n    //assert(1 szabo == 1e12);\r\n    //assert(1 finney == 1e15);\r\n    //assert(1 ether == 1e18);\r\n    uint256 private _decimals=6;\r\n    uint256 private _price_upper_decimals=18;\r\n\r\n    /** */\r\n    uint256 private _fee_rate=10;\r\n     /** */\r\n    uint256 private _recommend_rate=10;\r\n    address private _owner;\r\n\r\n    /** */\r\n    uint256 private _bonus_rate=45;\r\n\r\n    /* */\r\n    uint256 private _feeback_rate=5;\r\n    //10% 10% 5% 30% 45%\r\n    /**\r\n        \r\n     */\r\n    Entitys.GameStruct private  current_game;\r\n\r\n    //\r\n    address[] private   game_buy_users;\r\n\r\n\r\n    /***\r\n    ->->\r\n    */\r\n    mapping(address=>Entitys.UserBenefitAndInvestment) private game_investment_benefit;\r\n    /**\r\n    ->->\r\n     */\r\n    mapping(address=>uint)  private  game_user_buy_count;\r\n\r\n\r\n    /**\r\n    ->\r\n     */\r\n    mapping(address=>uint256)  private  user_recommend_value;\r\n\r\n    //\r\n    mapping(address=>uint256) private  user_credit_log;\r\n\r\n    constructor (uint _game_id,string memory _name,uint _game_times,uint _price,uint _price_upper_rate) public \r\n    {\r\n        _owner=msg.sender;\r\n        uint temp_now=now;\r\n        uint _last_buy_time=temp_now;\r\n        uint _over_time=temp_now.add(_game_times);\r\n        uint _buy_price=_price*(10**uint(_decimals));//1^6\r\n        uint256 price_upper_rate=_price_upper_rate*(10**_price_upper_decimals);//1^18\r\n        uint _next_change_rate_count=70;\r\n        current_game = Entitys.GameStruct({\r\n            game_id:_game_id,\r\n            name:_name,\r\n            begin_time:temp_now,\r\n            game_times:_game_times,\r\n            last_buy_time:_last_buy_time,\r\n            over_time:_over_time,\r\n            base_prce:_buy_price,\r\n            price:_buy_price,\r\n            base_price_upper_rate:price_upper_rate,\r\n            price_upper_rate:price_upper_rate,\r\n            status:Entitys.GameStatus.Ing,\r\n            prize_value:0,\r\n            bonus_value:0,\r\n            buy_count:0,\r\n            last_buy_user_address:_owner,\r\n            next_change_rate_count:_next_change_rate_count});\r\n\r\n    }\r\n    /**\r\n        \r\n        \r\n    */\r\n    function getNow() public view returns (uint nowvalue)  \r\n    {\r\n        return now;\r\n    }\r\n     /***\r\n     *  \r\n     * */\r\n    function getDecimals()  public view  returns(uint256)\r\n    {\r\n        return _decimals;\r\n    }\r\n    \r\n     /***\r\n     *  \r\n     * */\r\n    function getOwner()  public view  returns(address)\r\n    {\r\n        return _owner;\r\n    }\r\n    \r\n\r\n    /**\r\n    * \r\n     */\r\n    function getCurrentRoundInfo() public view returns (uint game_id,string memory name,uint begin_time,uint game_times,uint last_buy_time,uint over_time,uint256 price\r\n    ,uint price_upper_rate,Entitys.GameStatus status,uint256 prize_value,uint256 bonus_value,uint buy_count\r\n    ,address last_buy_user_address,uint next_change_rate_count)\r\n    {\r\n         Entitys.GameStruct memory game=current_game;\r\n         game_id=game.game_id;\r\n         name=game.name;\r\n         begin_time=game.begin_time;\r\n         game_times=game.game_times;\r\n         last_buy_time=game.last_buy_time;\r\n         over_time=game.over_time;\r\n         price=game.price;\r\n         price_upper_rate=game.price_upper_rate;\r\n         status=game.status;\r\n         prize_value=game.prize_value;\r\n         buy_count=game.buy_count;\r\n         bonus_value=game.bonus_value;\r\n         last_buy_user_address=game.last_buy_user_address;\r\n         next_change_rate_count=game.next_change_rate_count;\r\n         return ( game_id,  name, begin_time, game_times, last_buy_time, over_time, price, price_upper_rate,status,prize_value,bonus_value,buy_count,last_buy_user_address,next_change_rate_count);\r\n    }\r\n\r\n\r\n\r\n\r\n    function askprice() public view returns (uint256 price) {\r\n        Entitys.GameStruct memory game=current_game;\r\n        return game.price;\r\n    }\r\n\r\n    //\r\n    event SendRecommend(address bidder, uint256 amount,string event_msg);\r\n\r\n    //\r\n    event SendFeeBack(address bidder, uint256 amount,string event_msg);\r\n    //\r\n    event SendPlatformFee(address bidder, uint256 amount,string event_msg);\r\n    //\r\n    event CalcBonus(address bidder, uint256 amount,string event_msg);\r\n    \r\n    //\r\n    event TransferAmount(address bidder, uint256 amount,string event_msg);\r\n\r\n\r\n\r\n    //\r\n    event BuyGameEvent(address bidder, uint256 amount,uint256 buy_time,string event_msg);\r\n\r\n    function checkRecommend(address recommend_user) private view returns(bool)\r\n    {\r\n        if(recommend_user==address(0))\r\n        {\r\n            return false;\r\n        }\r\n        if(recommend_user==_owner)\r\n        {\r\n            return true;\r\n        }\r\n        if(game_investment_benefit[recommend_user].isValue){\r\n            return true;\r\n        }\r\n        return false;\r\n    }\r\n    /**\r\n    *@recommend_user \r\n    * token\r\n    *1TRX           =\"TJBHq5um63GPdmmjhmSppuep69bygK7cJE====1000000\"\r\n    *0.1TRX         =\"TJBHq5um63GPdmmjhmSppuep69bygK7cJE====100000\"\r\n    *0.000001TRX    =\"TJBHq5um63GPdmmjhmSppuep69bygK7cJE====1\"\r\n    */\r\n    function buy_token(address recommend_user) public payable returns (bool success){\r\n\r\n        require(checkRecommend(recommend_user), \"recommend_user Error\");\r\n        // grab time\r\n        //uint256 _now = now;\r\n        Entitys.GameStruct memory game=current_game;\r\n        require(game.game_id!=uint(0), \"game not exist\");\r\n        //1 TRX           =\"TJBHq5um63GPdmmjhmSppuep69bygK7cJE====1000000\"\r\n        //0.1 TRX         =\"TJBHq5um63GPdmmjhmSppuep69bygK7cJE====100000\"\r\n        //0.000001 TRX    =\"TJBHq5um63GPdmmjhmSppuep69bygK7cJE====1\"\r\n        uint256 amount=msg.value;//\r\n        address buyer=msg.sender;//\r\n        uint256 current_price=game.price;//\r\n        uint current_buy_count=game.buy_count;//\r\n        if(current_buy_count==uint(0))\r\n        {\r\n            current_buy_count=1;\r\n        }\r\n        require(game.status == Entitys.GameStatus.Ing,\"This Game Not Ing\");\r\n        //\r\n        require(current_price  <= amount ,\"This Game Buy Price is not limit\");\r\n\r\n        //\r\n        uint256 recommend_value=amount.mul(_recommend_rate).div(100) ;\r\n\r\n        //\r\n        uint256 platform_value=amount.mul(_fee_rate).div(100) ;\r\n        //\r\n        uint256 bonus_value=amount.mul(_bonus_rate).div(100) ;\r\n\r\n        //\r\n        uint256 fee_back_value=amount.mul(_feeback_rate).div(100);\r\n\r\n        //\r\n        address temp_recommend_user=_owner;//\r\n        //--/\r\n        Entitys.UserBenefitAndInvestment memory bi =game_investment_benefit[buyer]; \r\n      \r\n        temp_recommend_user=recommend_user;//\r\n        bi.recommend_user_address=recommend_user;//\r\n        \r\n        if(bi.isValue&&bi.recommend_user_address!=address(0))\r\n        {\r\n            temp_recommend_user=bi.recommend_user_address;\r\n        }\r\n    \r\n        for(uint i = 0; i < game_buy_users.length; i++) {\r\n            address temp_user=game_buy_users[i];\r\n            delete user_credit_log[temp_user];\r\n        }\r\n        address(uint160(_owner)).transfer(platform_value);//\r\n        emit SendPlatformFee(_owner,platform_value,\"\");\r\n\r\n        address(uint160(temp_recommend_user)).transfer(recommend_value);//\r\n        user_recommend_value[temp_recommend_user]=user_recommend_value[temp_recommend_user].add(recommend_value);\r\n\r\n        emit SendRecommend(temp_recommend_user,recommend_value,\"\");\r\n        if(temp_recommend_user==_owner)\r\n        {\r\n            //\r\n            address(uint160(_owner)).transfer(fee_back_value);//\r\n            emit SendFeeBack(_owner,fee_back_value,\"\");\r\n        }else{\r\n             //\r\n            address(uint160(buyer)).transfer(fee_back_value);//\r\n            emit SendFeeBack(buyer,fee_back_value,\"\");\r\n        }\r\n\r\n        uint256 used_bonus_value=uint256(0);\r\n        // \r\n        for(uint i = 0; i < game_buy_users.length; i++) {\r\n            address temp_user=game_buy_users[i];\r\n            uint user_buy_count=game_user_buy_count[temp_user];\r\n            //=*/\r\n            uint256 temp_bonus_value=bonus_value.mul(user_buy_count).div(current_buy_count);\r\n            //emit CalcBonus(temp_user,temp_bonus_value,\"\");\r\n            used_bonus_value=used_bonus_value.add(temp_bonus_value);\r\n            user_credit_log[temp_user]=user_credit_log[temp_user].add(temp_bonus_value);\r\n        }\r\n        //\r\n        //=----\r\n        uint256 temp_prize_value=amount.sub(recommend_value);//\r\n        temp_prize_value= temp_prize_value.sub(platform_value);//\r\n        temp_prize_value=temp_prize_value.sub(used_bonus_value);//\r\n        temp_prize_value=temp_prize_value.sub(fee_back_value);//\r\n\r\n        if(bi.isValue)\r\n        {\r\n            bi =game_investment_benefit[buyer];\r\n            bi.recommend_user_address=temp_recommend_user;\r\n        }else{\r\n            //-\r\n            bi = Entitys.UserBenefitAndInvestment(0,0,temp_recommend_user,true);\r\n            //\r\n            game_buy_users.push(buyer);\r\n        }\r\n        bi.touru=bi.touru.add(amount);\r\n        //\r\n        game_investment_benefit[buyer]=bi;\r\n        for(uint i = 0; i < game_buy_users.length; i++) {\r\n            address temp_user=game_buy_users[i];\r\n            uint256 t_amount=user_credit_log[temp_user];//\r\n            //RTX To User\r\n            if(t_amount>0)\r\n            {\r\n                //\r\n                Entitys.UserBenefitAndInvestment memory temp_bi =game_investment_benefit[temp_user];\r\n                if(temp_bi.isValue)\r\n                {\r\n                    temp_bi.shouyi=temp_bi.shouyi.add(t_amount);\r\n                }\r\n                else{\r\n                    //-\r\n                    temp_bi = Entitys.UserBenefitAndInvestment(t_amount,0,address(0),true);\r\n                }\r\n                game_investment_benefit[temp_user]=temp_bi;\r\n                address(uint160(temp_user)).transfer(t_amount);\r\n                emit TransferAmount(temp_user,t_amount,\"\");\r\n            }\r\n        }\r\n        for(uint i = 0; i < game_buy_users.length; i++) {\r\n            address temp_user=game_buy_users[i];\r\n            delete user_credit_log[temp_user];\r\n        }\r\n        //+1\r\n        game_user_buy_count[buyer]=game_user_buy_count[buyer].add(1);//+1\r\n        //\r\n        calcGameRate(buyer,temp_prize_value,used_bonus_value);\r\n\r\n\r\n        emit BuyGameEvent(buyer,amount,now,\"\");\r\n        return true;\r\n    }\r\n    /**\r\n    \r\n     */\r\n    function calcGameRate(address buyer,uint256 prize_value,uint256 used_bonus_value) private returns(bool)\r\n    {\r\n\r\n         // grab time\r\n        uint256 _now = now;\r\n        Entitys.GameStruct memory game=current_game;\r\n        //\r\n        current_game.last_buy_user_address=buyer;\r\n        //\r\n        current_game.prize_value=game.prize_value.add(prize_value);//=+\r\n        \r\n        //\r\n        uint current_buy_count=game.buy_count.add(1);\r\n        current_game.buy_count=current_buy_count;//+1\r\n        //\r\n        current_game.last_buy_time=_now;//\r\n        //\r\n        current_game.over_time=_now.add(game.game_times);//\r\n        //70-140-280-540-1080-2196-->\r\n        if(current_buy_count==game.next_change_rate_count)\r\n        {\r\n          uint256 temp_price_rate=game.price_upper_rate.div(2);//\r\n          game.price_upper_rate=temp_price_rate;\r\n          //\r\n          game.next_change_rate_count=game.next_change_rate_count.mul(2);\r\n          current_game.price_upper_rate=temp_price_rate;\r\n          //\r\n          current_game.next_change_rate_count=game.next_change_rate_count;\r\n        }\r\n        //\r\n        uint256 _price_upper_rate=game.price_upper_rate.div(10**_price_upper_decimals).add(100);\r\n        uint256 current_price=game.price;//\r\n        //=*115/100\r\n        current_game.price=current_price.mul(_price_upper_rate).div(100);\r\n\r\n       //\r\n        current_game.bonus_value=current_game.bonus_value.add(used_bonus_value);\r\n    }\r\n    /***\r\n     *  \r\n     * */\r\n    function getBuyerBuyCount(address buyer) public view returns(uint)\r\n    {\r\n        return game_user_buy_count[buyer];\r\n    }\r\n\r\n    /**\r\n     \r\n     */\r\n    function getBuerIncomeInvestment(address buyer)  public view returns (uint256 income,uint256 investment,uint256 recommend_value,uint buy_count)\r\n    {\r\n      Entitys.UserBenefitAndInvestment memory bi =game_investment_benefit[buyer]; \r\n      income=bi.touru;\r\n      investment=bi.shouyi;\r\n      recommend_value=user_recommend_value[buyer];\r\n      buy_count=game_user_buy_count[buyer];\r\n      return (income,investment,recommend_value,buy_count);\r\n    }\r\n\r\n     function checkGameAndPrize()  public view onlyOwner returns (bool)\r\n     {\r\n        require(_owner ==msg.sender,\"Must Owner Execute\");\r\n        uint256 _now = now;\r\n        Entitys.GameStruct memory game=current_game;\r\n        if(game.over_time<=_now)\r\n        {\r\n            return true;\r\n        }\r\n        return false;\r\n     }\r\n    function PrizeGame()  public onlyOwner returns (bool)\r\n    {\r\n        require(_owner ==msg.sender,\"Must Owner Execute\");\r\n         // grab time\r\n        uint256 _now = now;\r\n        Entitys.GameStruct memory game=current_game;\r\n        if(game.over_time<=_now)\r\n        {\r\n            //\r\n            if(game.last_buy_user_address!=address(0))\r\n            {\r\n                if(game.prize_value>0)\r\n                {\r\n                    //\r\n                    address(uint160(game.last_buy_user_address)).transfer(game.prize_value);//\r\n                }\r\n            }\r\n            uint temp_now=now;\r\n            uint _last_buy_time=temp_now;\r\n            uint _over_time=temp_now.add(game.game_times);\r\n            uint _buy_price=game.base_prce;//1^6\r\n            uint256 price_upper_rate=game.base_price_upper_rate;//1^18\r\n            uint next_change_rate_count=70;\r\n            uint game_id=game.game_id.add(1);\r\n            current_game = Entitys.GameStruct(game_id,game.name,temp_now,game.game_times,_last_buy_time,_over_time,_buy_price,_buy_price,price_upper_rate,price_upper_rate,Entitys.GameStatus.Ing,0,0,0,_owner,next_change_rate_count);\r\n            return true;\r\n        }\r\n\r\n        return false;\r\n    } \r\n\r\n     function kill() public onlyOwner returns(bool){\r\n       if (_owner == msg.sender) {\r\n            // \r\n          Entitys.GameStruct memory game=current_game;\r\n          if(game.prize_value>0)\r\n          {\r\n            address(uint160(_owner)).transfer(game.prize_value);\r\n            selfdestruct(msg.sender);\r\n            return true;\r\n          }\r\n       }\r\n       return false;\r\n    }\r\n\r\n}",
  "sourcePath": "F:/OtherProducts/tron/maxisacoder-tron-dapp-demo/contracts/SingleTokenGame.sol",
  "compiler": {
    "name": "solc",
    "version": "0.5.4+commit.d15a3125.mod.Emscripten.clang"
  },
  "schemaVersion": "2.0.1",
  "updatedAt": "2021-05-20T06:13:32.174Z"
}