{
  "contractName": "SingleTokenGame",
  "abi": [
    {
      "constant": true,
      "inputs": [],
      "name": "name",
      "outputs": [
        {
          "name": "",
          "type": "string"
        }
      ],
      "payable": false,
      "stateMutability": "view",
      "type": "function"
    },
    {
      "constant": false,
      "inputs": [
        {
          "name": "spender",
          "type": "address"
        },
        {
          "name": "value",
          "type": "uint256"
        }
      ],
      "name": "approve",
      "outputs": [
        {
          "name": "",
          "type": "bool"
        }
      ],
      "payable": false,
      "stateMutability": "nonpayable",
      "type": "function"
    },
    {
      "constant": true,
      "inputs": [],
      "name": "totalSupply",
      "outputs": [
        {
          "name": "",
          "type": "uint256"
        }
      ],
      "payable": false,
      "stateMutability": "view",
      "type": "function"
    },
    {
      "constant": false,
      "inputs": [
        {
          "name": "sender",
          "type": "address"
        },
        {
          "name": "recipient",
          "type": "address"
        },
        {
          "name": "amount",
          "type": "uint256"
        }
      ],
      "name": "transferFrom",
      "outputs": [
        {
          "name": "",
          "type": "bool"
        }
      ],
      "payable": false,
      "stateMutability": "nonpayable",
      "type": "function"
    },
    {
      "constant": true,
      "inputs": [],
      "name": "decimals",
      "outputs": [
        {
          "name": "",
          "type": "uint8"
        }
      ],
      "payable": false,
      "stateMutability": "view",
      "type": "function"
    },
    {
      "constant": false,
      "inputs": [
        {
          "name": "spender",
          "type": "address"
        },
        {
          "name": "addedValue",
          "type": "uint256"
        }
      ],
      "name": "increaseAllowance",
      "outputs": [
        {
          "name": "",
          "type": "bool"
        }
      ],
      "payable": false,
      "stateMutability": "nonpayable",
      "type": "function"
    },
    {
      "constant": true,
      "inputs": [
        {
          "name": "account",
          "type": "address"
        }
      ],
      "name": "balanceOf",
      "outputs": [
        {
          "name": "",
          "type": "uint256"
        }
      ],
      "payable": false,
      "stateMutability": "view",
      "type": "function"
    },
    {
      "constant": true,
      "inputs": [],
      "name": "symbol",
      "outputs": [
        {
          "name": "",
          "type": "string"
        }
      ],
      "payable": false,
      "stateMutability": "view",
      "type": "function"
    },
    {
      "constant": false,
      "inputs": [
        {
          "name": "spender",
          "type": "address"
        },
        {
          "name": "subtractedValue",
          "type": "uint256"
        }
      ],
      "name": "decreaseAllowance",
      "outputs": [
        {
          "name": "",
          "type": "bool"
        }
      ],
      "payable": false,
      "stateMutability": "nonpayable",
      "type": "function"
    },
    {
      "constant": false,
      "inputs": [
        {
          "name": "recipient",
          "type": "address"
        },
        {
          "name": "amount",
          "type": "uint256"
        }
      ],
      "name": "transfer",
      "outputs": [
        {
          "name": "",
          "type": "bool"
        }
      ],
      "payable": false,
      "stateMutability": "nonpayable",
      "type": "function"
    },
    {
      "constant": true,
      "inputs": [
        {
          "name": "owner",
          "type": "address"
        },
        {
          "name": "spender",
          "type": "address"
        }
      ],
      "name": "allowance",
      "outputs": [
        {
          "name": "",
          "type": "uint256"
        }
      ],
      "payable": false,
      "stateMutability": "view",
      "type": "function"
    },
    {
      "inputs": [
        {
          "name": "_game_id",
          "type": "uint256"
        },
        {
          "name": "_name",
          "type": "string"
        },
        {
          "name": "_game_times",
          "type": "uint256"
        },
        {
          "name": "_price",
          "type": "uint256"
        },
        {
          "name": "_price_upper_rate",
          "type": "uint256"
        }
      ],
      "payable": false,
      "stateMutability": "nonpayable",
      "type": "constructor"
    },
    {
      "anonymous": false,
      "inputs": [
        {
          "indexed": false,
          "name": "bidder",
          "type": "address"
        },
        {
          "indexed": false,
          "name": "amount",
          "type": "uint256"
        },
        {
          "indexed": false,
          "name": "event_msg",
          "type": "string"
        }
      ],
      "name": "SendRecommend",
      "type": "event"
    },
    {
      "anonymous": false,
      "inputs": [
        {
          "indexed": false,
          "name": "bidder",
          "type": "address"
        },
        {
          "indexed": false,
          "name": "amount",
          "type": "uint256"
        },
        {
          "indexed": false,
          "name": "event_msg",
          "type": "string"
        }
      ],
      "name": "SendFeeBack",
      "type": "event"
    },
    {
      "anonymous": false,
      "inputs": [
        {
          "indexed": false,
          "name": "bidder",
          "type": "address"
        },
        {
          "indexed": false,
          "name": "amount",
          "type": "uint256"
        },
        {
          "indexed": false,
          "name": "event_msg",
          "type": "string"
        }
      ],
      "name": "SendPlatformFee",
      "type": "event"
    },
    {
      "anonymous": false,
      "inputs": [
        {
          "indexed": false,
          "name": "bidder",
          "type": "address"
        },
        {
          "indexed": false,
          "name": "amount",
          "type": "uint256"
        },
        {
          "indexed": false,
          "name": "event_msg",
          "type": "string"
        }
      ],
      "name": "CalcBonus",
      "type": "event"
    },
    {
      "anonymous": false,
      "inputs": [
        {
          "indexed": false,
          "name": "bidder",
          "type": "address"
        },
        {
          "indexed": false,
          "name": "amount",
          "type": "uint256"
        },
        {
          "indexed": false,
          "name": "event_msg",
          "type": "string"
        }
      ],
      "name": "TransferAmount",
      "type": "event"
    },
    {
      "anonymous": false,
      "inputs": [
        {
          "indexed": false,
          "name": "bidder",
          "type": "address"
        },
        {
          "indexed": false,
          "name": "amount",
          "type": "uint256"
        },
        {
          "indexed": false,
          "name": "buy_time",
          "type": "uint256"
        },
        {
          "indexed": false,
          "name": "event_msg",
          "type": "string"
        }
      ],
      "name": "BuyGameEvent",
      "type": "event"
    },
    {
      "anonymous": false,
      "inputs": [
        {
          "indexed": true,
          "name": "from",
          "type": "address"
        },
        {
          "indexed": true,
          "name": "to",
          "type": "address"
        },
        {
          "indexed": false,
          "name": "value",
          "type": "uint256"
        }
      ],
      "name": "Transfer",
      "type": "event"
    },
    {
      "anonymous": false,
      "inputs": [
        {
          "indexed": true,
          "name": "owner",
          "type": "address"
        },
        {
          "indexed": true,
          "name": "spender",
          "type": "address"
        },
        {
          "indexed": false,
          "name": "value",
          "type": "uint256"
        }
      ],
      "name": "Approval",
      "type": "event"
    },
    {
      "constant": true,
      "inputs": [],
      "name": "getNow",
      "outputs": [
        {
          "name": "nowvalue",
          "type": "uint256"
        }
      ],
      "payable": false,
      "stateMutability": "view",
      "type": "function"
    },
    {
      "constant": true,
      "inputs": [],
      "name": "getDecimals",
      "outputs": [
        {
          "name": "",
          "type": "uint256"
        }
      ],
      "payable": false,
      "stateMutability": "view",
      "type": "function"
    },
    {
      "constant": true,
      "inputs": [],
      "name": "getOwner",
      "outputs": [
        {
          "name": "",
          "type": "address"
        }
      ],
      "payable": false,
      "stateMutability": "view",
      "type": "function"
    },
    {
      "constant": true,
      "inputs": [],
      "name": "getCurrentRoundInfo",
      "outputs": [
        {
          "name": "game_id",
          "type": "uint256"
        },
        {
          "name": "name",
          "type": "string"
        },
        {
          "name": "begin_time",
          "type": "uint256"
        },
        {
          "name": "game_times",
          "type": "uint256"
        },
        {
          "name": "last_buy_time",
          "type": "uint256"
        },
        {
          "name": "over_time",
          "type": "uint256"
        },
        {
          "name": "price",
          "type": "uint256"
        },
        {
          "name": "price_upper_rate",
          "type": "uint256"
        },
        {
          "name": "status",
          "type": "uint8"
        },
        {
          "name": "prize_value",
          "type": "uint256"
        },
        {
          "name": "bonus_value",
          "type": "uint256"
        },
        {
          "name": "buy_count",
          "type": "uint256"
        },
        {
          "name": "last_buy_user_address",
          "type": "address"
        },
        {
          "name": "next_change_rate_count",
          "type": "uint256"
        }
      ],
      "payable": false,
      "stateMutability": "view",
      "type": "function"
    },
    {
      "constant": true,
      "inputs": [],
      "name": "askprice",
      "outputs": [
        {
          "name": "price",
          "type": "uint256"
        }
      ],
      "payable": false,
      "stateMutability": "view",
      "type": "function"
    },
    {
      "constant": false,
      "inputs": [
        {
          "name": "recommend_user",
          "type": "address"
        }
      ],
      "name": "buy_token",
      "outputs": [
        {
          "name": "success",
          "type": "bool"
        }
      ],
      "payable": true,
      "stateMutability": "payable",
      "type": "function"
    },
    {
      "constant": true,
      "inputs": [
        {
          "name": "buyer",
          "type": "address"
        }
      ],
      "name": "getBuyerBuyCount",
      "outputs": [
        {
          "name": "",
          "type": "uint256"
        }
      ],
      "payable": false,
      "stateMutability": "view",
      "type": "function"
    },
    {
      "constant": true,
      "inputs": [
        {
          "name": "buyer",
          "type": "address"
        }
      ],
      "name": "getBuerIncomeInvestment",
      "outputs": [
        {
          "name": "income",
          "type": "uint256"
        },
        {
          "name": "investment",
          "type": "uint256"
        },
        {
          "name": "recommend_value",
          "type": "uint256"
        },
        {
          "name": "buy_count",
          "type": "uint256"
        }
      ],
      "payable": false,
      "stateMutability": "view",
      "type": "function"
    },
    {
      "constant": true,
      "inputs": [],
      "name": "checkGameAndPrize",
      "outputs": [
        {
          "name": "",
          "type": "bool"
        }
      ],
      "payable": false,
      "stateMutability": "view",
      "type": "function"
    },
    {
      "constant": false,
      "inputs": [],
      "name": "PrizeGame",
      "outputs": [
        {
          "name": "",
          "type": "bool"
        }
      ],
      "payable": false,
      "stateMutability": "nonpayable",
      "type": "function"
    },
    {
      "constant": false,
      "inputs": [],
      "name": "kill",
      "outputs": [
        {
          "name": "",
          "type": "bool"
        }
      ],
      "payable": false,
      "stateMutability": "nonpayable",
      "type": "function"
    }
  ],
  "bytecode": "0x6080604052600680556012600755600a600855600a600955602d600b556005600c553480156200002e57600080fd5b50d380156200003c57600080fd5b50d280156200004a57600080fd5b506040516200578338038062005783833981018060405260a08110156200007057600080fd5b810190808051906020019092919080516401000000008111156200009357600080fd5b82810190506020810184811115620000aa57600080fd5b8151856001820283011164010000000082111715620000c857600080fd5b50509291906020018051906020019092919080519060200190929190805190602001909291905050506040805190810160405280600e81526020017f4d6f64616c69747920546f6b656e0000000000000000000000000000000000008152506040805190810160405280600381526020017f4d544200000000000000000000000000000000000000000000000000000000008152506006826003908051906020019062000177929190620007a5565b50816004908051906020019062000190929190620007a5565b5080600560006101000a81548160ff021916908360ff16021790555050505033600a60006101000a81548173ffffffffffffffffffffffffffffffffffffffff021916908373ffffffffffffffffffffffffffffffffffffffff1602179055506000429050600081905060006200021f8684620004826401000000000262003df1179091906401000000009004565b90506000600654600a0a86029050600062000257600754600a0a876200050d6401000000000262004576179091906401000000009004565b9050600060469050610200604051908101604052808c81526020018b81526020018781526020018a815260200186815260200185815260200184815260200184815260200183815260200183815260200160006001811115620002b657fe5b8152602001600081526020016000815260200160008152602001600a60009054906101000a900473ffffffffffffffffffffffffffffffffffffffff1673ffffffffffffffffffffffffffffffffffffffff16815260200182815250600d6000820151816000015560208201518160010190805190602001906200033c9291906200082c565b5060408201518160020155606082015181600301556080820151816004015560a0820151816005015560c0820151816006015560e082015181600701556101008201518160080155610120820151816009015561014082015181600a0160006101000a81548160ff02191690836001811115620003b557fe5b021790555061016082015181600b015561018082015181600c01556101a082015181600d01556101c082015181600e0160006101000a81548173ffffffffffffffffffffffffffffffffffffffff021916908373ffffffffffffffffffffffffffffffffffffffff1602179055506101e082015181600f015590505062000471336200044f620005b0640100000000026401000000009004565b60ff16600a0a64e8d4a5100002620005c7640100000000026401000000009004565b5050505050505050505050620008db565b600080828401905083811015151562000503576040517f08c379a000000000000000000000000000000000000000000000000000000000815260040180806020018281038252601b8152602001807f536166654d6174683a206164646974696f6e206f766572666c6f77000000000081525060200191505060405180910390fd5b8091505092915050565b600080831415620005225760009050620005aa565b6000821415620005365760009050620005aa565b600082840290508284828115156200054a57fe5b04141515620005a5576040517f08c379a0000000000000000000000000000000000000000000000000000000008152600401808060200182810382526021815260200180620057626021913960400191505060405180910390fd5b809150505b92915050565b6000600560009054906101000a900460ff16905090565b600073ffffffffffffffffffffffffffffffffffffffff168273ffffffffffffffffffffffffffffffffffffffff16141515156200066d576040517f08c379a000000000000000000000000000000000000000000000000000000000815260040180806020018281038252601f8152602001807f45524332303a206d696e7420746f20746865207a65726f20616464726573730081525060200191505060405180910390fd5b6200069281600254620004826401000000000262003df1179091906401000000009004565b600281905550620006f9816000808573ffffffffffffffffffffffffffffffffffffffff1673ffffffffffffffffffffffffffffffffffffffff16815260200190815260200160002054620004826401000000000262003df1179091906401000000009004565b6000808473ffffffffffffffffffffffffffffffffffffffff1673ffffffffffffffffffffffffffffffffffffffff168152602001908152602001600020819055508173ffffffffffffffffffffffffffffffffffffffff16600073ffffffffffffffffffffffffffffffffffffffff167fddf252ad1be2c89b69c2b068fc378daa952ba7f163c4a11628f55a4df523b3ef836040518082815260200191505060405180910390a35050565b828054600181600116156101000203166002900490600052602060002090601f016020900481019282601f10620007e857805160ff191683800117855562000819565b8280016001018555821562000819579182015b8281111562000818578251825591602001919060010190620007fb565b5b509050620008289190620008b3565b5090565b828054600181600116156101000203166002900490600052602060002090601f016020900481019282601f106200086f57805160ff1916838001178555620008a0565b82800160010185558215620008a0579182015b828111156200089f57825182559160200191906001019062000882565b5b509050620008af9190620008b3565b5090565b620008d891905b80821115620008d4576000816000905550600101620008ba565b5090565b90565b614e7780620008eb6000396000f3fe608060405260043610610152576000357c01000000000000000000000000000000000000000000000000000000009004806370a08231116100c8578063a155e2041161008c578063a155e20414610964578063a457c2d7146109c0578063a9059cbb14610a4d578063bbe4fd5014610ada578063dd62ed3e14610b1f578063f0141d8414610bbe57610152565b806370a0823114610642578063747dff42146106c15780637beeee0914610800578063893d20e81461084957806395d89b41146108ba57610152565b806325527ece1161011a57806325527ece146103c957806330a218121461040e578063313ce567146104a2578063332e64e7146104ed578063395093511461056c57806341c0e1b5146105f957610152565b806306fdde0314610157578063095ea7b31461020157806318160ddd1461028e5780631986c811146102d357806323b872dd1461031c575b600080fd5b34801561016357600080fd5b50d3801561017057600080fd5b50d2801561017d57600080fd5b50610186610c03565b6040518080602001828103825283818151815260200191508051906020019080838360005b838110156101c65780820151818401526020810190506101ab565b50505050905090810190601f1680156101f35780820380516001836020036101000a031916815260200191505b509250505060405180910390f35b34801561020d57600080fd5b50d3801561021a57600080fd5b50d2801561022757600080fd5b506102746004803603604081101561023e57600080fd5b81019080803573ffffffffffffffffffffffffffffffffffffffff16906020019092919080359060200190929190505050610ca5565b604051808215151515815260200191505060405180910390f35b34801561029a57600080fd5b50d380156102a757600080fd5b50d280156102b457600080fd5b506102bd610cbc565b6040518082815260200191505060405180910390f35b3480156102df57600080fd5b50d380156102ec57600080fd5b50d280156102f957600080fd5b50610302610cc6565b604051808215151515815260200191505060405180910390f35b34801561032857600080fd5b50d3801561033557600080fd5b50d2801561034257600080fd5b506103af6004803603606081101561035957600080fd5b81019080803573ffffffffffffffffffffffffffffffffffffffff169060200190929190803573ffffffffffffffffffffffffffffffffffffffff16906020019092919080359060200190929190505050611470565b604051808215151515815260200191505060405180910390f35b3480156103d557600080fd5b50d380156103e257600080fd5b50d280156103ef57600080fd5b506103f8611521565b6040518082815260200191505060405180910390f35b34801561041a57600080fd5b50d3801561042757600080fd5b50d2801561043457600080fd5b506104776004803603602081101561044b57600080fd5b81019080803573ffffffffffffffffffffffffffffffffffffffff1690602001909291905050506116ee565b6040518085815260200184815260200183815260200182815260200194505050505060405180910390f35b3480156104ae57600080fd5b50d380156104bb57600080fd5b50d280156104c857600080fd5b506104d1611874565b604051808260ff1660ff16815260200191505060405180910390f35b3480156104f957600080fd5b50d3801561050657600080fd5b50d2801561051357600080fd5b506105566004803603602081101561052a57600080fd5b81019080803573ffffffffffffffffffffffffffffffffffffffff16906020019092919050505061188b565b6040518082815260200191505060405180910390f35b34801561057857600080fd5b50d3801561058557600080fd5b50d2801561059257600080fd5b506105df600480360360408110156105a957600080fd5b81019080803573ffffffffffffffffffffffffffffffffffffffff169060200190929190803590602001909291905050506118d4565b604051808215151515815260200191505060405180910390f35b34801561060557600080fd5b50d3801561061257600080fd5b50d2801561061f57600080fd5b50610628611979565b604051808215151515815260200191505060405180910390f35b34801561064e57600080fd5b50d3801561065b57600080fd5b50d2801561066857600080fd5b506106ab6004803603602081101561067f57600080fd5b81019080803573ffffffffffffffffffffffffffffffffffffffff169060200190929190505050611cd7565b6040518082815260200191505060405180910390f35b3480156106cd57600080fd5b50d380156106da57600080fd5b50d280156106e757600080fd5b506106f0611d1f565b604051808f8152602001806020018e81526020018d81526020018c81526020018b81526020018a815260200189815260200188600181111561072e57fe5b60ff1681526020018781526020018681526020018581526020018473ffffffffffffffffffffffffffffffffffffffff1673ffffffffffffffffffffffffffffffffffffffff16815260200183815260200182810382528f818151815260200191508051906020019080838360005b838110156107b857808201518184015260208101905061079d565b50505050905090810190601f1680156107e55780820380516001836020036101000a031916815260200191505b509f5050505050505050505050505050505060405180910390f35b34801561080c57600080fd5b50d3801561081957600080fd5b50d2801561082657600080fd5b5061082f611f99565b604051808215151515815260200191505060405180910390f35b34801561085557600080fd5b50d3801561086257600080fd5b50d2801561086f57600080fd5b506108786122ef565b604051808273ffffffffffffffffffffffffffffffffffffffff1673ffffffffffffffffffffffffffffffffffffffff16815260200191505060405180910390f35b3480156108c657600080fd5b50d380156108d357600080fd5b50d280156108e057600080fd5b506108e9612319565b6040518080602001828103825283818151815260200191508051906020019080838360005b8381101561092957808201518184015260208101905061090e565b50505050905090810190601f1680156109565780820380516001836020036101000a031916815260200191505b509250505060405180910390f35b6109a66004803603602081101561097a57600080fd5b81019080803573ffffffffffffffffffffffffffffffffffffffff1690602001909291905050506123bb565b604051808215151515815260200191505060405180910390f35b3480156109cc57600080fd5b50d380156109d957600080fd5b50d280156109e657600080fd5b50610a33600480360360408110156109fd57600080fd5b81019080803573ffffffffffffffffffffffffffffffffffffffff16906020019092919080359060200190929190505050613aa1565b604051808215151515815260200191505060405180910390f35b348015610a5957600080fd5b50d38015610a6657600080fd5b50d28015610a7357600080fd5b50610ac060048036036040811015610a8a57600080fd5b81019080803573ffffffffffffffffffffffffffffffffffffffff16906020019092919080359060200190929190505050613b46565b604051808215151515815260200191505060405180910390f35b348015610ae657600080fd5b50d38015610af357600080fd5b50d28015610b0057600080fd5b50610b09613b5d565b6040518082815260200191505060405180910390f35b348015610b2b57600080fd5b50d38015610b3857600080fd5b50d28015610b4557600080fd5b50610ba860048036036040811015610b5c57600080fd5b81019080803573ffffffffffffffffffffffffffffffffffffffff169060200190929190803573ffffffffffffffffffffffffffffffffffffffff169060200190929190505050613b65565b6040518082815260200191505060405180910390f35b348015610bca57600080fd5b50d38015610bd757600080fd5b50d28015610be457600080fd5b50610bed613bec565b6040518082815260200191505060405180910390f35b606060038054600181600116156101000203166002900480601f016020809104026020016040519081016040528092919081815260200182805460018160011615610100020316600290048015610c9b5780601f10610c7057610100808354040283529160200191610c9b565b820191906000526020600020905b815481529060010190602001808311610c7e57829003601f168201915b5050505050905090565b6000610cb2338484613bf6565b6001905092915050565b6000600254905090565b6000600a60009054906101000a900473ffffffffffffffffffffffffffffffffffffffff1673ffffffffffffffffffffffffffffffffffffffff163373ffffffffffffffffffffffffffffffffffffffff16141515610d70576040517f08c379a0000000000000000000000000000000000000000000000000000000008152600401808060200182810382526022815260200180614d9e6022913960400191505060405180910390fd5b3373ffffffffffffffffffffffffffffffffffffffff16600a60009054906101000a900473ffffffffffffffffffffffffffffffffffffffff1673ffffffffffffffffffffffffffffffffffffffff16141515610e35576040517f08c379a00000000000000000000000000000000000000000000000000000000081526004018080602001828103825260128152602001807f4d757374204f776e65722045786563757465000000000000000000000000000081525060200191505060405180910390fd5b6000429050610e42614bd4565b600d610200604051908101604052908160008201548152602001600182018054600181600116156101000203166002900480601f016020809104026020016040519081016040528092919081815260200182805460018160011615610100020316600290048015610ef45780601f10610ec957610100808354040283529160200191610ef4565b820191906000526020600020905b815481529060010190602001808311610ed757829003601f168201915b505050505081526020016002820154815260200160038201548152602001600482015481526020016005820154815260200160068201548152602001600782015481526020016008820154815260200160098201548152602001600a820160009054906101000a900460ff166001811115610f6b57fe5b6001811115610f7657fe5b8152602001600b8201548152602001600c8201548152602001600d8201548152602001600e820160009054906101000a900473ffffffffffffffffffffffffffffffffffffffff1673ffffffffffffffffffffffffffffffffffffffff1673ffffffffffffffffffffffffffffffffffffffff168152602001600f820154815250509050818160a0015111151561146657600073ffffffffffffffffffffffffffffffffffffffff16816101c0015173ffffffffffffffffffffffffffffffffffffffff161415156110a357600081610160015111156110a257806101c0015173ffffffffffffffffffffffffffffffffffffffff166108fc8261016001519081150290604051600060405180830381858888f193505050501580156110a0573d6000803e3d6000fd5b505b5b60008090505b601d80549050811015611215576000601d828154811015156110c757fe5b9060005260206000200160009054906101000a900473ffffffffffffffffffffffffffffffffffffffff169050601e60008273ffffffffffffffffffffffffffffffffffffffff1673ffffffffffffffffffffffffffffffffffffffff16815260200190815260200160002060008082016000905560018201600090556002820160006101000a81549073ffffffffffffffffffffffffffffffffffffffff02191690556002820160146101000a81549060ff02191690555050601f60008273ffffffffffffffffffffffffffffffffffffffff1673ffffffffffffffffffffffffffffffffffffffff16815260200190815260200160002060009055602060008273ffffffffffffffffffffffffffffffffffffffff1673ffffffffffffffffffffffffffffffffffffffff168152602001908152602001600020600090555080806001019150506110a9565b50601d60006112249190614c73565b600042905060008190506000611247846060015184613df190919063ffffffff16565b905060008460c00151905060008561010001519050600060469050600061127c60018960000151613df190919063ffffffff16565b9050610200604051908101604052808281526020018960200151815260200188815260200189606001518152602001878152602001868152602001858152602001858152602001848152602001848152602001600060018111156112dc57fe5b8152602001600081526020016000815260200160008152602001600a60009054906101000a900473ffffffffffffffffffffffffffffffffffffffff1673ffffffffffffffffffffffffffffffffffffffff16815260200183815250600d600082015181600001556020820151816001019080519060200190611360929190614c94565b5060408201518160020155606082015181600301556080820151816004015560a0820151816005015560c0820151816006015560e082015181600701556101008201518160080155610120820151816009015561014082015181600a0160006101000a81548160ff021916908360018111156113d857fe5b021790555061016082015181600b015561018082015181600c01556101a082015181600d01556101c082015181600e0160006101000a81548173ffffffffffffffffffffffffffffffffffffffff021916908373ffffffffffffffffffffffffffffffffffffffff1602179055506101e082015181600f01559050506001995050505050505050505061146d565b6000925050505b90565b600061147d848484613e7b565b611516843361151185600160008a73ffffffffffffffffffffffffffffffffffffffff1673ffffffffffffffffffffffffffffffffffffffff16815260200190815260200160002060003373ffffffffffffffffffffffffffffffffffffffff1673ffffffffffffffffffffffffffffffffffffffff168152602001908152602001600020546141d190919063ffffffff16565b613bf6565b600190509392505050565b600061152b614bd4565b600d610200604051908101604052908160008201548152602001600182018054600181600116156101000203166002900480601f0160208091040260200160405190810160405280929190818152602001828054600181600116156101000203166002900480156115dd5780601f106115b2576101008083540402835291602001916115dd565b820191906000526020600020905b8154815290600101906020018083116115c057829003601f168201915b505050505081526020016002820154815260200160038201548152602001600482015481526020016005820154815260200160068201548152602001600782015481526020016008820154815260200160098201548152602001600a820160009054906101000a900460ff16600181111561165457fe5b600181111561165f57fe5b8152602001600b8201548152602001600c8201548152602001600d8201548152602001600e820160009054906101000a900473ffffffffffffffffffffffffffffffffffffffff1673ffffffffffffffffffffffffffffffffffffffff1673ffffffffffffffffffffffffffffffffffffffff168152602001600f8201548152505090508060e0015191505090565b6000806000806116fc614d14565b601e60008773ffffffffffffffffffffffffffffffffffffffff1673ffffffffffffffffffffffffffffffffffffffff1681526020019081526020016000206080604051908101604052908160008201548152602001600182015481526020016002820160009054906101000a900473ffffffffffffffffffffffffffffffffffffffff1673ffffffffffffffffffffffffffffffffffffffff1673ffffffffffffffffffffffffffffffffffffffff1681526020016002820160149054906101000a900460ff16151515158152505090508060200151945080600001519350602060008773ffffffffffffffffffffffffffffffffffffffff1673ffffffffffffffffffffffffffffffffffffffff168152602001908152602001600020549250601f60008773ffffffffffffffffffffffffffffffffffffffff1673ffffffffffffffffffffffffffffffffffffffff168152602001908152602001600020549150848484849450945094509450509193509193565b6000600560009054906101000a900460ff16905090565b6000601f60008373ffffffffffffffffffffffffffffffffffffffff1673ffffffffffffffffffffffffffffffffffffffff168152602001908152602001600020549050919050565b600061196f338461196a85600160003373ffffffffffffffffffffffffffffffffffffffff1673ffffffffffffffffffffffffffffffffffffffff16815260200190815260200160002060008973ffffffffffffffffffffffffffffffffffffffff1673ffffffffffffffffffffffffffffffffffffffff16815260200190815260200160002054613df190919063ffffffff16565b613bf6565b6001905092915050565b6000600a60009054906101000a900473ffffffffffffffffffffffffffffffffffffffff1673ffffffffffffffffffffffffffffffffffffffff163373ffffffffffffffffffffffffffffffffffffffff16141515611a23576040517f08c379a0000000000000000000000000000000000000000000000000000000008152600401808060200182810382526022815260200180614d9e6022913960400191505060405180910390fd5b3373ffffffffffffffffffffffffffffffffffffffff16600a60009054906101000a900473ffffffffffffffffffffffffffffffffffffffff1673ffffffffffffffffffffffffffffffffffffffff161415611cd057611a81614bd4565b600d610200604051908101604052908160008201548152602001600182018054600181600116156101000203166002900480601f016020809104026020016040519081016040528092919081815260200182805460018160011615610100020316600290048015611b335780601f10611b0857610100808354040283529160200191611b33565b820191906000526020600020905b815481529060010190602001808311611b1657829003601f168201915b505050505081526020016002820154815260200160038201548152602001600482015481526020016005820154815260200160068201548152602001600782015481526020016008820154815260200160098201548152602001600a820160009054906101000a900460ff166001811115611baa57fe5b6001811115611bb557fe5b8152602001600b8201548152602001600c8201548152602001600d8201548152602001600e820160009054906101000a900473ffffffffffffffffffffffffffffffffffffffff1673ffffffffffffffffffffffffffffffffffffffff1673ffffffffffffffffffffffffffffffffffffffff168152602001600f82015481525050905060008161016001511115611cce57600a60009054906101000a900473ffffffffffffffffffffffffffffffffffffffff1673ffffffffffffffffffffffffffffffffffffffff166108fc8261016001519081150290604051600060405180830381858888f19350505050158015611cb4573d6000803e3d6000fd5b503373ffffffffffffffffffffffffffffffffffffffff16ff5b505b6000905090565b60008060008373ffffffffffffffffffffffffffffffffffffffff1673ffffffffffffffffffffffffffffffffffffffff168152602001908152602001600020549050919050565b60006060600080600080600080600080600080600080611d3d614bd4565b600d610200604051908101604052908160008201548152602001600182018054600181600116156101000203166002900480601f016020809104026020016040519081016040528092919081815260200182805460018160011615610100020316600290048015611def5780601f10611dc457610100808354040283529160200191611def565b820191906000526020600020905b815481529060010190602001808311611dd257829003601f168201915b505050505081526020016002820154815260200160038201548152602001600482015481526020016005820154815260200160068201548152602001600782015481526020016008820154815260200160098201548152602001600a820160009054906101000a900460ff166001811115611e6657fe5b6001811115611e7157fe5b8152602001600b8201548152602001600c8201548152602001600d8201548152602001600e820160009054906101000a900473ffffffffffffffffffffffffffffffffffffffff1673ffffffffffffffffffffffffffffffffffffffff1673ffffffffffffffffffffffffffffffffffffffff168152602001600f82015481525050905080600001519e5080602001519d5080604001519c5080606001519b5080608001519a508060a0015199508060e001519850806101200151975080610140015196508061016001519550806101a0015193508061018001519450806101c001519250806101e0015191508e8e8e8e8e8e8e8e8e8e8e8e8e8e9e509e509e509e509e509e509e509e509e509e509e509e509e509e5050909192939495969798999a9b9c9d565b6000600a60009054906101000a900473ffffffffffffffffffffffffffffffffffffffff1673ffffffffffffffffffffffffffffffffffffffff163373ffffffffffffffffffffffffffffffffffffffff16141515612043576040517f08c379a0000000000000000000000000000000000000000000000000000000008152600401808060200182810382526022815260200180614d9e6022913960400191505060405180910390fd5b3373ffffffffffffffffffffffffffffffffffffffff16600a60009054906101000a900473ffffffffffffffffffffffffffffffffffffffff1673ffffffffffffffffffffffffffffffffffffffff16141515612108576040517f08c379a00000000000000000000000000000000000000000000000000000000081526004018080602001828103825260128152602001807f4d757374204f776e65722045786563757465000000000000000000000000000081525060200191505060405180910390fd5b6000429050612115614bd4565b600d610200604051908101604052908160008201548152602001600182018054600181600116156101000203166002900480601f0160208091040260200160405190810160405280929190818152602001828054600181600116156101000203166002900480156121c75780601f1061219c576101008083540402835291602001916121c7565b820191906000526020600020905b8154815290600101906020018083116121aa57829003601f168201915b505050505081526020016002820154815260200160038201548152602001600482015481526020016005820154815260200160068201548152602001600782015481526020016008820154815260200160098201548152602001600a820160009054906101000a900460ff16600181111561223e57fe5b600181111561224957fe5b8152602001600b8201548152602001600c8201548152602001600d8201548152602001600e820160009054906101000a900473ffffffffffffffffffffffffffffffffffffffff1673ffffffffffffffffffffffffffffffffffffffff1673ffffffffffffffffffffffffffffffffffffffff168152602001600f820154815250509050818160a001511115156122e5576001925050506122ec565b6000925050505b90565b6000600a60009054906101000a900473ffffffffffffffffffffffffffffffffffffffff16905090565b606060048054600181600116156101000203166002900480601f0160208091040260200160405190810160405280929190818152602001828054600181600116156101000203166002900480156123b15780601f10612386576101008083540402835291602001916123b1565b820191906000526020600020905b81548152906001019060200180831161239457829003601f168201915b5050505050905090565b60006123c68261425c565b151561243a576040517f08c379a00000000000000000000000000000000000000000000000000000000081526004018080602001828103825260148152602001807f7265636f6d6d656e645f75736572204572726f7200000000000000000000000081525060200191505060405180910390fd5b612442614bd4565b600d610200604051908101604052908160008201548152602001600182018054600181600116156101000203166002900480601f0160208091040260200160405190810160405280929190818152602001828054600181600116156101000203166002900480156124f45780601f106124c9576101008083540402835291602001916124f4565b820191906000526020600020905b8154815290600101906020018083116124d757829003601f168201915b505050505081526020016002820154815260200160038201548152602001600482015481526020016005820154815260200160068201548152602001600782015481526020016008820154815260200160098201548152602001600a820160009054906101000a900460ff16600181111561256b57fe5b600181111561257657fe5b8152602001600b8201548152602001600c8201548152602001600d8201548152602001600e820160009054906101000a900473ffffffffffffffffffffffffffffffffffffffff1673ffffffffffffffffffffffffffffffffffffffff1673ffffffffffffffffffffffffffffffffffffffff168152602001600f8201548152505090506000816000015114151515612677576040517f08c379a000000000000000000000000000000000000000000000000000000000815260040180806020018281038252600e8152602001807f67616d65206e6f7420657869737400000000000000000000000000000000000081525060200191505060405180910390fd5b6000349050600033905060008360e0015190506000846101a00151905060008114156126a257600190505b6126ab81614362565b9050600060018111156126ba57fe5b85610140015160018111156126cb57fe5b141515612740576040517f08c379a00000000000000000000000000000000000000000000000000000000081526004018080602001828103825260118152602001807f546869732047616d65204e6f7420496e6700000000000000000000000000000081525060200191505060405180910390fd5b428560a001511115156127bb576040517f08c379a000000000000000000000000000000000000000000000000000000000815260040180806020018281038252600c8152602001807f47616d65204973204f766572000000000000000000000000000000000000000081525060200191505060405180910390fd5b838211151515612833576040517f08c379a00000000000000000000000000000000000000000000000000000000081526004018080602001828103825260208152602001807f546869732047616d6520427579205072696365206973206e6f74206c696d697481525060200191505060405180910390fd5b600061285d606461284f6009548861457690919063ffffffff16565b61461290919063ffffffff16565b90506000612889606461287b6008548961457690919063ffffffff16565b61461290919063ffffffff16565b905060006128b560646128a7600b548a61457690919063ffffffff16565b61461290919063ffffffff16565b905060006128e160646128d3600c548b61457690919063ffffffff16565b61461290919063ffffffff16565b90506000600a60009054906101000a900473ffffffffffffffffffffffffffffffffffffffff169050612912614d14565b601e60008a73ffffffffffffffffffffffffffffffffffffffff1673ffffffffffffffffffffffffffffffffffffffff1681526020019081526020016000206080604051908101604052908160008201548152602001600182015481526020016002820160009054906101000a900473ffffffffffffffffffffffffffffffffffffffff1673ffffffffffffffffffffffffffffffffffffffff1673ffffffffffffffffffffffffffffffffffffffff1681526020016002820160149054906101000a900460ff16151515158152505090508c91508c816040019073ffffffffffffffffffffffffffffffffffffffff16908173ffffffffffffffffffffffffffffffffffffffff168152505080606001518015612a615750600073ffffffffffffffffffffffffffffffffffffffff16816040015173ffffffffffffffffffffffffffffffffffffffff1614155b15612a6e57806040015191505b60008090505b601d80549050811015612b10576000601d82815481101515612a9257fe5b9060005260206000200160009054906101000a900473ffffffffffffffffffffffffffffffffffffffff169050602160008273ffffffffffffffffffffffffffffffffffffffff1673ffffffffffffffffffffffffffffffffffffffff16815260200190815260200160002060009055508080600101915050612a74565b50600a60009054906101000a900473ffffffffffffffffffffffffffffffffffffffff1673ffffffffffffffffffffffffffffffffffffffff166108fc869081150290604051600060405180830381858888f19350505050158015612b79573d6000803e3d6000fd5b507fc0d91c82e97814aa565f0d03c18f64ee424f76125f42d94ddfceff120b4f8995600a60009054906101000a900473ffffffffffffffffffffffffffffffffffffffff1686604051808373ffffffffffffffffffffffffffffffffffffffff1673ffffffffffffffffffffffffffffffffffffffff16815260200182815260200180602001828103825260158152602001807fe58f91e694bee5b9b3e58fb0e6898be7bbade8b4b90000000000000000000000815250602001935050505060405180910390a18173ffffffffffffffffffffffffffffffffffffffff166108fc879081150290604051600060405180830381858888f19350505050158015612c86573d6000803e3d6000fd5b50612cd986602060008573ffffffffffffffffffffffffffffffffffffffff1673ffffffffffffffffffffffffffffffffffffffff16815260200190815260200160002054613df190919063ffffffff16565b602060008473ffffffffffffffffffffffffffffffffffffffff1673ffffffffffffffffffffffffffffffffffffffff168152602001908152602001600020819055507f4374886bfaca751b7f029933ffc2bad8439bbbb974547c4d1bf00d230c04ca068287604051808373ffffffffffffffffffffffffffffffffffffffff1673ffffffffffffffffffffffffffffffffffffffff16815260200182815260200180602001828103825260128152602001807fe58f91e694bee68ea8e88d90e5a596e58ab10000000000000000000000000000815250602001935050505060405180910390a1600a60009054906101000a900473ffffffffffffffffffffffffffffffffffffffff1673ffffffffffffffffffffffffffffffffffffffff168273ffffffffffffffffffffffffffffffffffffffff161415612f4a57600a60009054906101000a900473ffffffffffffffffffffffffffffffffffffffff1673ffffffffffffffffffffffffffffffffffffffff166108fc849081150290604051600060405180830381858888f19350505050158015612e7e573d6000803e3d6000fd5b507f6b4d7266512708fa68ea31c0b0828f3fca58f0fabf63d5301e3b79dde007fdc1600a60009054906101000a900473ffffffffffffffffffffffffffffffffffffffff1684604051808373ffffffffffffffffffffffffffffffffffffffff1673ffffffffffffffffffffffffffffffffffffffff168152602001828152602001806020018281038252600c8152602001807fe8bf94e588a9e5b9b3e58fb00000000000000000000000000000000000000000815250602001935050505060405180910390a1613036565b8873ffffffffffffffffffffffffffffffffffffffff166108fc849081150290604051600060405180830381858888f19350505050158015612f90573d6000803e3d6000fd5b507f6b4d7266512708fa68ea31c0b0828f3fca58f0fabf63d5301e3b79dde007fdc18984604051808373ffffffffffffffffffffffffffffffffffffffff1673ffffffffffffffffffffffffffffffffffffffff168152602001828152602001806020018281038252600f8152602001807fe8bf94e588a9e7bb99e794a8e688b70000000000000000000000000000000000815250602001935050505060405180910390a15b600080905060008090505b601d805490508110156131c5576000601d8281548110151561305f57fe5b9060005260206000200160009054906101000a900473ffffffffffffffffffffffffffffffffffffffff1690506000601f60008373ffffffffffffffffffffffffffffffffffffffff1673ffffffffffffffffffffffffffffffffffffffff16815260200190815260200160002054905060008090506130de836146a5565b1561310b576131088c6130fa848c61457690919063ffffffff16565b61461290919063ffffffff16565b90505b61311e8186613df190919063ffffffff16565b945061317281602160008673ffffffffffffffffffffffffffffffffffffffff1673ffffffffffffffffffffffffffffffffffffffff16815260200190815260200160002054613df190919063ffffffff16565b602160008573ffffffffffffffffffffffffffffffffffffffff1673ffffffffffffffffffffffffffffffffffffffff168152602001908152602001600020819055505050508080600101915050613041565b5060006131db888d6141d190919063ffffffff16565b90506131f087826141d190919063ffffffff16565b905061320582826141d190919063ffffffff16565b905061321a85826141d190919063ffffffff16565b905082606001511561333557601e60008c73ffffffffffffffffffffffffffffffffffffffff1673ffffffffffffffffffffffffffffffffffffffff1681526020019081526020016000206080604051908101604052908160008201548152602001600182015481526020016002820160009054906101000a900473ffffffffffffffffffffffffffffffffffffffff1673ffffffffffffffffffffffffffffffffffffffff1673ffffffffffffffffffffffffffffffffffffffff1681526020016002820160149054906101000a900460ff161515151581525050925083836040019073ffffffffffffffffffffffffffffffffffffffff16908173ffffffffffffffffffffffffffffffffffffffff16815250506133db565b60806040519081016040528060008152602001600081526020018573ffffffffffffffffffffffffffffffffffffffff168152602001600115158152509250601d8b90806001815401808255809150509060018203906000526020600020016000909192909190916101000a81548173ffffffffffffffffffffffffffffffffffffffff021916908373ffffffffffffffffffffffffffffffffffffffff160217905550505b6133f28c8460200151613df190919063ffffffff16565b83602001818152505082601e60008d73ffffffffffffffffffffffffffffffffffffffff1673ffffffffffffffffffffffffffffffffffffffff168152602001908152602001600020600082015181600001556020820151816001015560408201518160020160006101000a81548173ffffffffffffffffffffffffffffffffffffffff021916908373ffffffffffffffffffffffffffffffffffffffff16021790555060608201518160020160146101000a81548160ff02191690831515021790555090505060008090505b601d8054905081101561385a576000601d828154811015156134dd57fe5b9060005260206000200160009054906101000a900473ffffffffffffffffffffffffffffffffffffffff1690506000602160008373ffffffffffffffffffffffffffffffffffffffff1673ffffffffffffffffffffffffffffffffffffffff168152602001908152602001600020549050600081111561384b5761355f614d14565b601e60008473ffffffffffffffffffffffffffffffffffffffff1673ffffffffffffffffffffffffffffffffffffffff1681526020019081526020016000206080604051908101604052908160008201548152602001600182015481526020016002820160009054906101000a900473ffffffffffffffffffffffffffffffffffffffff1673ffffffffffffffffffffffffffffffffffffffff1673ffffffffffffffffffffffffffffffffffffffff1681526020016002820160149054906101000a900460ff161515151581525050905080606001511561366057613652828260000151613df190919063ffffffff16565b8160000181815250506136a0565b60806040519081016040528083815260200160008152602001600073ffffffffffffffffffffffffffffffffffffffff1681526020016001151581525090505b80601e60008573ffffffffffffffffffffffffffffffffffffffff1673ffffffffffffffffffffffffffffffffffffffff168152602001908152602001600020600082015181600001556020820151816001015560408201518160020160006101000a81548173ffffffffffffffffffffffffffffffffffffffff021916908373ffffffffffffffffffffffffffffffffffffffff16021790555060608201518160020160146101000a81548160ff0219169083151502179055509050508273ffffffffffffffffffffffffffffffffffffffff166108fc839081150290604051600060405180830381858888f193505050501580156137a4573d6000803e3d6000fd5b507fde3810754a10190424b293c24463eeaa95fa7548782a204075a6acb2170e40e48383604051808373ffffffffffffffffffffffffffffffffffffffff1673ffffffffffffffffffffffffffffffffffffffff16815260200182815260200180602001828103825260128152602001807fe58f91e98081e58886e7baa2e5a596e58ab10000000000000000000000000000815250602001935050505060405180910390a1505b505080806001019150506134bf565b5060008090505b601d805490508110156138fd576000601d8281548110151561387f57fe5b9060005260206000200160009054906101000a900473ffffffffffffffffffffffffffffffffffffffff169050602160008273ffffffffffffffffffffffffffffffffffffffff1673ffffffffffffffffffffffffffffffffffffffff16815260200190815260200160002060009055508080600101915050613861565b506139516001601f60008e73ffffffffffffffffffffffffffffffffffffffff1673ffffffffffffffffffffffffffffffffffffffff16815260200190815260200160002054613df190919063ffffffff16565b601f60008d73ffffffffffffffffffffffffffffffffffffffff1673ffffffffffffffffffffffffffffffffffffffff1681526020019081526020016000208190555061399f8b828461484d565b507fb6668bab6642a507a81c08f30893aaa47e0c29df8e88ad6b9c19ffd3a2296cf38b8d42604051808473ffffffffffffffffffffffffffffffffffffffff1673ffffffffffffffffffffffffffffffffffffffff16815260200183815260200182815260200180602001828103825260068152602001807fe8b4ade4b9b0000000000000000000000000000000000000000000000000000081525060200194505050505060405180910390a1613a8b600a60009054906101000a900473ffffffffffffffffffffffffffffffffffffffff168c613a7b611874565b60ff16600a0a620f424002613e7b565b60019d5050505050505050505050505050919050565b6000613b3c3384613b3785600160003373ffffffffffffffffffffffffffffffffffffffff1673ffffffffffffffffffffffffffffffffffffffff16815260200190815260200160002060008973ffffffffffffffffffffffffffffffffffffffff1673ffffffffffffffffffffffffffffffffffffffff168152602001908152602001600020546141d190919063ffffffff16565b613bf6565b6001905092915050565b6000613b53338484613e7b565b6001905092915050565b600042905090565b6000600160008473ffffffffffffffffffffffffffffffffffffffff1673ffffffffffffffffffffffffffffffffffffffff16815260200190815260200160002060008373ffffffffffffffffffffffffffffffffffffffff1673ffffffffffffffffffffffffffffffffffffffff16815260200190815260200160002054905092915050565b6000600654905090565b600073ffffffffffffffffffffffffffffffffffffffff168373ffffffffffffffffffffffffffffffffffffffff1614151515613c7e576040517f08c379a0000000000000000000000000000000000000000000000000000000008152600401808060200182810382526024815260200180614e286024913960400191505060405180910390fd5b600073ffffffffffffffffffffffffffffffffffffffff168273ffffffffffffffffffffffffffffffffffffffff1614151515613d06576040517f08c379a0000000000000000000000000000000000000000000000000000000008152600401808060200182810382526022815260200180614dc06022913960400191505060405180910390fd5b80600160008573ffffffffffffffffffffffffffffffffffffffff1673ffffffffffffffffffffffffffffffffffffffff16815260200190815260200160002060008473ffffffffffffffffffffffffffffffffffffffff1673ffffffffffffffffffffffffffffffffffffffff168152602001908152602001600020819055508173ffffffffffffffffffffffffffffffffffffffff168373ffffffffffffffffffffffffffffffffffffffff167f8c5be1e5ebec7d5bd14f71427d1e84f3dd0314c0f7b2291e5b200ac8c7c3b925836040518082815260200191505060405180910390a3505050565b6000808284019050838110151515613e71576040517f08c379a000000000000000000000000000000000000000000000000000000000815260040180806020018281038252601b8152602001807f536166654d6174683a206164646974696f6e206f766572666c6f77000000000081525060200191505060405180910390fd5b8091505092915050565b600073ffffffffffffffffffffffffffffffffffffffff168373ffffffffffffffffffffffffffffffffffffffff1614151515613f03576040517f08c379a0000000000000000000000000000000000000000000000000000000008152600401808060200182810382526025815260200180614e036025913960400191505060405180910390fd5b600073ffffffffffffffffffffffffffffffffffffffff168273ffffffffffffffffffffffffffffffffffffffff1614151515613f8b576040517f08c379a0000000000000000000000000000000000000000000000000000000008152600401808060200182810382526023815260200180614d7b6023913960400191505060405180910390fd5b806000808573ffffffffffffffffffffffffffffffffffffffff1673ffffffffffffffffffffffffffffffffffffffff1681526020019081526020016000205410151515614041576040517f08c379a00000000000000000000000000000000000000000000000000000000081526004018080602001828103825260188152602001807f73656e64657220616d6f756e74204e6f7420656e6f756768000000000000000081525060200191505060405180910390fd5b614092816000808673ffffffffffffffffffffffffffffffffffffffff1673ffffffffffffffffffffffffffffffffffffffff168152602001908152602001600020546141d190919063ffffffff16565b6000808573ffffffffffffffffffffffffffffffffffffffff1673ffffffffffffffffffffffffffffffffffffffff16815260200190815260200160002081905550614125816000808573ffffffffffffffffffffffffffffffffffffffff1673ffffffffffffffffffffffffffffffffffffffff16815260200190815260200160002054613df190919063ffffffff16565b6000808473ffffffffffffffffffffffffffffffffffffffff1673ffffffffffffffffffffffffffffffffffffffff168152602001908152602001600020819055508173ffffffffffffffffffffffffffffffffffffffff168373ffffffffffffffffffffffffffffffffffffffff167fddf252ad1be2c89b69c2b068fc378daa952ba7f163c4a11628f55a4df523b3ef836040518082815260200191505060405180910390a3505050565b600082821115151561424b576040517f08c379a000000000000000000000000000000000000000000000000000000000815260040180806020018281038252601e8152602001807f536166654d6174683a207375627472616374696f6e206f766572666c6f77000081525060200191505060405180910390fd5b600082840390508091505092915050565b60008073ffffffffffffffffffffffffffffffffffffffff168273ffffffffffffffffffffffffffffffffffffffff16141561429b576000905061435d565b600a60009054906101000a900473ffffffffffffffffffffffffffffffffffffffff1673ffffffffffffffffffffffffffffffffffffffff168273ffffffffffffffffffffffffffffffffffffffff1614156142fa576001905061435d565b601e60008373ffffffffffffffffffffffffffffffffffffffff1673ffffffffffffffffffffffffffffffffffffffff16815260200190815260200160002060020160149054906101000a900460ff1615614358576001905061435d565b600090505b919050565b60008061437e600654600a0a600361457690919063ffffffff16565b905060008090505b601d8054905081101561456c576000601d828154811015156143a457fe5b9060005260206000200160009054906101000a900473ffffffffffffffffffffffffffffffffffffffff1690506143d9614d14565b601e60008373ffffffffffffffffffffffffffffffffffffffff1673ffffffffffffffffffffffffffffffffffffffff1681526020019081526020016000206080604051908101604052908160008201548152602001600182015481526020016002820160009054906101000a900473ffffffffffffffffffffffffffffffffffffffff1673ffffffffffffffffffffffffffffffffffffffff1673ffffffffffffffffffffffffffffffffffffffff1681526020016002820160149054906101000a900460ff16151515158152505090506000601f60008473ffffffffffffffffffffffffffffffffffffffff1673ffffffffffffffffffffffffffffffffffffffff168152602001908152602001600020549050816060015180156145005750600081115b1561455c576000614539600654600a0a61452b8560200151866000015161461290919063ffffffff16565b61457690919063ffffffff16565b9050858110151561455a5761455782896141d190919063ffffffff16565b97505b505b5050508080600101915050614386565b5082915050919050565b600080831415614589576000905061460c565b600082141561459b576000905061460c565b600082840290508284828115156145ae57fe5b04141515614607576040517f08c379a0000000000000000000000000000000000000000000000000000000008152600401808060200182810382526021815260200180614de26021913960400191505060405180910390fd5b809150505b92915050565b6000808211151561468b576040517f08c379a000000000000000000000000000000000000000000000000000000000815260040180806020018281038252601a8152602001807f536166654d6174683a206469766973696f6e206279207a65726f00000000000081525060200191505060405180910390fd5b6000828481151561469857fe5b0490508091505092915050565b60006001905060006146c6600654600a0a600361457690919063ffffffff16565b90506146d0614d14565b601e60008573ffffffffffffffffffffffffffffffffffffffff1673ffffffffffffffffffffffffffffffffffffffff1681526020019081526020016000206080604051908101604052908160008201548152602001600182015481526020016002820160009054906101000a900473ffffffffffffffffffffffffffffffffffffffff1673ffffffffffffffffffffffffffffffffffffffff1673ffffffffffffffffffffffffffffffffffffffff1681526020016002820160149054906101000a900460ff16151515158152505090506000601f60008673ffffffffffffffffffffffffffffffffffffffff1673ffffffffffffffffffffffffffffffffffffffff168152602001908152602001600020549050816060015180156147f75750600081115b15614842576000614830600654600a0a6148228560200151866000015161461290919063ffffffff16565b61457690919063ffffffff16565b9050838110151561484057600094505b505b839350505050919050565b60008042905061485b614bd4565b600d610200604051908101604052908160008201548152602001600182018054600181600116156101000203166002900480601f01602080910402602001604051908101604052809291908181526020018280546001816001161561010002031660029004801561490d5780601f106148e25761010080835404028352916020019161490d565b820191906000526020600020905b8154815290600101906020018083116148f057829003601f168201915b505050505081526020016002820154815260200160038201548152602001600482015481526020016005820154815260200160068201548152602001600782015481526020016008820154815260200160098201548152602001600a820160009054906101000a900460ff16600181111561498457fe5b600181111561498f57fe5b8152602001600b8201548152602001600c8201548152602001600d8201548152602001600e820160009054906101000a900473ffffffffffffffffffffffffffffffffffffffff1673ffffffffffffffffffffffffffffffffffffffff1673ffffffffffffffffffffffffffffffffffffffff168152602001600f82015481525050905085600d600e0160006101000a81548173ffffffffffffffffffffffffffffffffffffffff021916908373ffffffffffffffffffffffffffffffffffffffff160217905550614a6f85826101600151613df190919063ffffffff16565b600d600b01819055506000614a936001836101a00151613df190919063ffffffff16565b905080600d80018190555082600d60040181905550614abf826060015184613df190919063ffffffff16565b600d60050181905550816101e00151811415614b3b576000614af0600284610120015161461290919063ffffffff16565b90508083610120018181525050614b166002846101e0015161457690919063ffffffff16565b836101e001818152505080600d60090181905550826101e00151600d600f0181905550505b6000614b6d6064614b5f600754600a0a86610120015161461290919063ffffffff16565b613df190919063ffffffff16565b905060008360e001519050614b9e6064614b90848461457690919063ffffffff16565b61461290919063ffffffff16565b600d60070181905550614bbf87600d600c0154613df190919063ffffffff16565b600d600c018190555050505050509392505050565b610200604051908101604052806000815260200160608152602001600081526020016000815260200160008152602001600081526020016000815260200160008152602001600081526020016000815260200160006001811115614c3457fe5b8152602001600081526020016000815260200160008152602001600073ffffffffffffffffffffffffffffffffffffffff168152602001600081525090565b5080546000825590600052602060002090810190614c919190614d55565b50565b828054600181600116156101000203166002900490600052602060002090601f016020900481019282601f10614cd557805160ff1916838001178555614d03565b82800160010185558215614d03579182015b82811115614d02578251825591602001919060010190614ce7565b5b509050614d109190614d55565b5090565b6080604051908101604052806000815260200160008152602001600073ffffffffffffffffffffffffffffffffffffffff1681526020016000151581525090565b614d7791905b80821115614d73576000816000905550600101614d5b565b5090565b9056fe45524332303a207472616e7366657220746f20746865207a65726f20616464726573734f6e6c79206f776e65722063616e2063616c6c20746869732066756e6374696f6e2e45524332303a20617070726f766520746f20746865207a65726f2061646472657373536166654d6174683a206d756c7469706c69636174696f6e206f766572666c6f7745524332303a207472616e736665722066726f6d20746865207a65726f206164647265737345524332303a20617070726f76652066726f6d20746865207a65726f2061646472657373a165627a7a723058203c1e4fa1bcabbb29af3b552e25513eee842891b67ddfcfa79dcbb818fe688f400029536166654d6174683a206d756c7469706c69636174696f6e206f766572666c6f77",
  "source": "pragma solidity ^0.5.4;\r\n\r\nimport \"./SafeMath.sol\";\r\nimport \"./Entitys.sol\";\r\n\r\nimport \"./ERC20.sol\";\r\nimport \"./ERC20Detailed.sol\";\r\n\r\n/***\r\n    \r\n */\r\ncontract SingleTokenGame  is ERC20, ERC20Detailed{\r\n    modifier onlyOwner {\r\n        require(msg.sender == _owner, \"Only owner can call this function.\");\r\n        _;\r\n    }\r\n\r\n    using SafeMath for uint256;\r\n\r\n    /** */\r\n    //assert(1 wei == 1);\r\n    //assert(1 szabo == 1e12);\r\n    //assert(1 finney == 1e15);\r\n    //assert(1 ether == 1e18);\r\n    uint256 private _trx_decimals = 6;\r\n    uint256 private _price_upper_decimals = 18;\r\n\r\n    /** */\r\n    uint256 private _fee_rate = 10;\r\n    /** */\r\n    uint256 private _recommend_rate = 10;\r\n    address private _owner;\r\n\r\n    /** */\r\n    uint256 private _bonus_rate = 45;\r\n\r\n    /* */\r\n    uint256 private _feeback_rate = 5;\r\n    //10% 10% 5% 30% 45%\r\n    /**\r\n        \r\n     */\r\n    Entitys.GameStruct private current_game;\r\n\r\n    //\r\n    address[] private game_buy_users;\r\n\r\n    /***\r\n    ->->\r\n    */\r\n    mapping(address => Entitys.UserBenefitAndInvestment)\r\n        private game_investment_benefit;\r\n    /**\r\n    ->->\r\n     */\r\n    mapping(address => uint256) private game_user_buy_count;\r\n\r\n    /**\r\n    ->\r\n     */\r\n    mapping(address => uint256) private user_recommend_value;\r\n\r\n    //\r\n    mapping(address => uint256) private user_credit_log;\r\n\r\n    constructor (\r\n        uint256 _game_id,\r\n        string memory _name,\r\n        uint256 _game_times,\r\n        uint256 _price,\r\n        uint256 _price_upper_rate\r\n    ) public ERC20Detailed(\"Modality Token\", \"MTB\", 6){\r\n        _owner = msg.sender;\r\n        uint256 temp_now = now;\r\n        uint256 _last_buy_time = temp_now;\r\n        uint256 _over_time = temp_now.add(_game_times);\r\n        uint256 _buy_price = _price * (10**uint256(_trx_decimals)); //1^6\r\n        uint256 price_upper_rate =\r\n            _price_upper_rate.mul(10**_price_upper_decimals); //1^18\r\n        uint256 _next_change_rate_count = 70;\r\n        current_game = Entitys.GameStruct({\r\n            game_id: _game_id,\r\n            name: _name,\r\n            begin_time: temp_now,\r\n            game_times: _game_times,\r\n            last_buy_time: _last_buy_time,\r\n            over_time: _over_time,\r\n            base_prce: _buy_price,\r\n            price: _buy_price,\r\n            base_price_upper_rate: price_upper_rate,\r\n            price_upper_rate: price_upper_rate,\r\n            status: Entitys.GameStatus.Ing,\r\n            prize_value: 0,\r\n            bonus_value: 0,\r\n            buy_count: 0,\r\n            last_buy_user_address: _owner,\r\n            next_change_rate_count: _next_change_rate_count\r\n        });\r\n\r\n\r\n          _mint(msg.sender, 1_000_000_000_000 * (10 ** uint256(decimals())));\r\n    }\r\n\r\n    /**\r\n        \r\n        \r\n    */\r\n    function getNow() public view returns (uint256 nowvalue) {\r\n        return now;\r\n    }\r\n\r\n    /***\r\n     *  \r\n     * */\r\n    function getDecimals() public view returns (uint256) {\r\n        return _trx_decimals;\r\n    }\r\n\r\n    /***\r\n     *  \r\n     * */\r\n    function getOwner() public view returns (address) {\r\n        return _owner;\r\n    }\r\n\r\n    /**\r\n     * \r\n     */\r\n    function getCurrentRoundInfo()\r\n        public\r\n        view\r\n        returns (\r\n            uint256 game_id,\r\n            string memory name,\r\n            uint256 begin_time,\r\n            uint256 game_times,\r\n            uint256 last_buy_time,\r\n            uint256 over_time,\r\n            uint256 price,\r\n            uint256 price_upper_rate,\r\n            Entitys.GameStatus status,\r\n            uint256 prize_value,\r\n            uint256 bonus_value,\r\n            uint256 buy_count,\r\n            address last_buy_user_address,\r\n            uint256 next_change_rate_count\r\n        )\r\n    {\r\n        Entitys.GameStruct memory game = current_game;\r\n        game_id = game.game_id;\r\n        name = game.name;\r\n        begin_time = game.begin_time;\r\n        game_times = game.game_times;\r\n        last_buy_time = game.last_buy_time;\r\n        over_time = game.over_time;\r\n        price = game.price;\r\n        price_upper_rate = game.price_upper_rate;\r\n        status = game.status;\r\n        prize_value = game.prize_value;\r\n        buy_count = game.buy_count;\r\n        bonus_value = game.bonus_value;\r\n        last_buy_user_address = game.last_buy_user_address;\r\n        next_change_rate_count = game.next_change_rate_count;\r\n        return (\r\n            game_id,\r\n            name,\r\n            begin_time,\r\n            game_times,\r\n            last_buy_time,\r\n            over_time,\r\n            price,\r\n            price_upper_rate,\r\n            status,\r\n            prize_value,\r\n            bonus_value,\r\n            buy_count,\r\n            last_buy_user_address,\r\n            next_change_rate_count\r\n        );\r\n    }\r\n\r\n    function askprice() public view returns (uint256 price) {\r\n        Entitys.GameStruct memory game = current_game;\r\n        return game.price;\r\n    }\r\n\r\n    //\r\n    event SendRecommend(address bidder, uint256 amount, string event_msg);\r\n\r\n    //\r\n    event SendFeeBack(address bidder, uint256 amount, string event_msg);\r\n    //\r\n    event SendPlatformFee(address bidder, uint256 amount, string event_msg);\r\n    //\r\n    event CalcBonus(address bidder, uint256 amount, string event_msg);\r\n\r\n    //\r\n    event TransferAmount(address bidder, uint256 amount, string event_msg);\r\n\r\n    //\r\n    event BuyGameEvent(\r\n        address bidder,\r\n        uint256 amount,\r\n        uint256 buy_time,\r\n        string event_msg\r\n    );\r\n\r\n    function checkRecommend(address recommend_user)\r\n        private\r\n        view\r\n        returns (bool)\r\n    {\r\n        if (recommend_user == address(0)) {\r\n            return false;\r\n        }\r\n        if (recommend_user == _owner) {\r\n            return true;\r\n        }\r\n        if (game_investment_benefit[recommend_user].isValue) {\r\n            return true;\r\n        }\r\n        return false;\r\n    }\r\n\r\n    /**\r\n     *@recommend_user \r\n     * token\r\n     *1TRX           =\"TJBHq5um63GPdmmjhmSppuep69bygK7cJE====1000000\"\r\n     *0.1TRX         =\"TJBHq5um63GPdmmjhmSppuep69bygK7cJE====100000\"\r\n     *0.000001TRX    =\"TJBHq5um63GPdmmjhmSppuep69bygK7cJE====1\"\r\n     */\r\n    function buy_token(address recommend_user)\r\n        public\r\n        payable\r\n        returns (bool success)\r\n    {\r\n        require(checkRecommend(recommend_user), \"recommend_user Error\");\r\n        // grab time\r\n        //uint256 _now = now;\r\n        Entitys.GameStruct memory game = current_game;\r\n        require(game.game_id != uint256(0), \"game not exist\");\r\n        //1 TRX           =\"TJBHq5um63GPdmmjhmSppuep69bygK7cJE====1000000\"\r\n        //0.1 TRX         =\"TJBHq5um63GPdmmjhmSppuep69bygK7cJE====100000\"\r\n        //0.000001 TRX    =\"TJBHq5um63GPdmmjhmSppuep69bygK7cJE====1\"\r\n        uint256 amount = msg.value; //\r\n        address buyer = msg.sender; //\r\n        uint256 current_price = game.price; //\r\n        uint256 current_buy_count = game.buy_count; //\r\n        if (current_buy_count == uint256(0)) {\r\n            current_buy_count = 1;\r\n        }\r\n        //300%\r\n       current_buy_count=GetEffectiveBuyCount(current_buy_count);//\r\n\r\n        require(game.status == Entitys.GameStatus.Ing, \"This Game Not Ing\");\r\n        require(game.over_time > now, \"Game Is Over\");\r\n        //\r\n        require(current_price <= amount, \"This Game Buy Price is not limit\");\r\n\r\n        //\r\n        uint256 recommend_value = amount.mul(_recommend_rate).div(100);\r\n\r\n        //\r\n        uint256 platform_value = amount.mul(_fee_rate).div(100);\r\n        //\r\n        uint256 bonus_value = amount.mul(_bonus_rate).div(100);\r\n\r\n        //\r\n        uint256 fee_back_value = amount.mul(_feeback_rate).div(100);\r\n\r\n        //\r\n        address temp_recommend_user = _owner; //\r\n        //--/\r\n        Entitys.UserBenefitAndInvestment memory bi =\r\n            game_investment_benefit[buyer];\r\n\r\n        temp_recommend_user = recommend_user; //\r\n        bi.recommend_user_address = recommend_user; //\r\n\r\n        if (bi.isValue && bi.recommend_user_address != address(0)) {\r\n            temp_recommend_user = bi.recommend_user_address;\r\n        }\r\n\r\n        for (uint256 i = 0; i < game_buy_users.length; i++) {\r\n            address temp_user = game_buy_users[i];\r\n            delete user_credit_log[temp_user];\r\n        }\r\n        address(uint160(_owner)).transfer(platform_value); //\r\n        emit SendPlatformFee(_owner, platform_value, \"\");\r\n\r\n        address(uint160(temp_recommend_user)).transfer(recommend_value); //\r\n        user_recommend_value[temp_recommend_user] = user_recommend_value[\r\n            temp_recommend_user\r\n        ]\r\n            .add(recommend_value);\r\n\r\n        emit SendRecommend(\r\n            temp_recommend_user,\r\n            recommend_value,\r\n            \"\"\r\n        );\r\n        if (temp_recommend_user == _owner) {\r\n            //\r\n            address(uint160(_owner)).transfer(fee_back_value); //\r\n            emit SendFeeBack(_owner, fee_back_value, \"\");\r\n        } else {\r\n            //\r\n            address(uint160(buyer)).transfer(fee_back_value); //\r\n            emit SendFeeBack(buyer, fee_back_value, \"\");\r\n        }\r\n\r\n        uint256 used_bonus_value = uint256(0);\r\n\r\n        \r\n        // \r\n        for (uint256 i = 0; i < game_buy_users.length; i++) {\r\n            address temp_user = game_buy_users[i];\r\n            uint256 user_buy_count = game_user_buy_count[temp_user];\r\n            //=*/\r\n            uint256 temp_bonus_value =uint256(0);\r\n            //\r\n            if(CheckUserCanBonus(temp_user))\r\n            {\r\n               temp_bonus_value=bonus_value.mul(user_buy_count).div(current_buy_count);\r\n            }\r\n            //emit CalcBonus(temp_user,temp_bonus_value,\"\");\r\n            used_bonus_value = used_bonus_value.add(temp_bonus_value);\r\n            user_credit_log[temp_user] = user_credit_log[temp_user].add(\r\n                temp_bonus_value\r\n            );\r\n        }\r\n        //\r\n        //=----\r\n        uint256 temp_prize_value = amount.sub(recommend_value); //\r\n        temp_prize_value = temp_prize_value.sub(platform_value); //\r\n        temp_prize_value = temp_prize_value.sub(used_bonus_value); //\r\n        temp_prize_value = temp_prize_value.sub(fee_back_value); //\r\n\r\n        if (bi.isValue) {\r\n            bi = game_investment_benefit[buyer];\r\n            bi.recommend_user_address = temp_recommend_user;\r\n        } else {\r\n            //-\r\n            bi = Entitys.UserBenefitAndInvestment(\r\n                0,\r\n                0,\r\n                temp_recommend_user,\r\n                true\r\n            );\r\n            //\r\n            game_buy_users.push(buyer);\r\n        }\r\n        bi.touru = bi.touru.add(amount);\r\n        //\r\n        game_investment_benefit[buyer] = bi;\r\n        for (uint256 i = 0; i < game_buy_users.length; i++) {\r\n            address temp_user = game_buy_users[i];\r\n            uint256 t_amount = user_credit_log[temp_user]; //\r\n            //RTX To User\r\n            if (t_amount > 0) {\r\n                //\r\n                Entitys.UserBenefitAndInvestment memory temp_bi =\r\n                    game_investment_benefit[temp_user];\r\n                if (temp_bi.isValue) {\r\n                    temp_bi.shouyi = temp_bi.shouyi.add(t_amount);\r\n                } else {\r\n                    //-\r\n                    temp_bi = Entitys.UserBenefitAndInvestment(\r\n                        t_amount,\r\n                        0,\r\n                        address(0),\r\n                        true\r\n                    );\r\n                }\r\n                game_investment_benefit[temp_user] = temp_bi;\r\n                address(uint160(temp_user)).transfer(t_amount);\r\n                emit TransferAmount(temp_user, t_amount, \"\");\r\n            }\r\n        }\r\n        for (uint256 i = 0; i < game_buy_users.length; i++) {\r\n            address temp_user = game_buy_users[i];\r\n            delete user_credit_log[temp_user];\r\n        }\r\n        //+1\r\n        game_user_buy_count[buyer] = game_user_buy_count[buyer].add(1); //+1\r\n        //\r\n        calcGameRate(buyer, temp_prize_value, used_bonus_value);\r\n\r\n        emit BuyGameEvent(buyer, amount, now, \"\");\r\n        _transfer(_owner,buyer,1_000_000*(10 ** uint256(decimals())));\r\n        return true;\r\n    }\r\n\r\n    /**\r\n    \r\n     */\r\n    function calcGameRate(\r\n        address buyer,\r\n        uint256 prize_value,\r\n        uint256 used_bonus_value\r\n    ) private returns (bool) {\r\n        // grab time\r\n        uint256 _now = now;\r\n        Entitys.GameStruct memory game = current_game;\r\n        //\r\n        current_game.last_buy_user_address = buyer;\r\n        //\r\n        current_game.prize_value = game.prize_value.add(prize_value); //=+\r\n\r\n        //\r\n        uint256 current_buy_count = game.buy_count.add(1);\r\n        current_game.buy_count = current_buy_count; //+1\r\n\r\n        //300%\r\n\r\n        //\r\n        current_game.last_buy_time = _now; //\r\n        //\r\n        current_game.over_time = _now.add(game.game_times); //\r\n        //70-140-280-540-1080-2196-->\r\n        if (current_buy_count == game.next_change_rate_count) {\r\n            uint256 temp_price_rate = game.price_upper_rate.div(2); //\r\n            game.price_upper_rate = temp_price_rate;\r\n            //\r\n            game.next_change_rate_count = game.next_change_rate_count.mul(2);\r\n            current_game.price_upper_rate = temp_price_rate;\r\n            //\r\n            current_game.next_change_rate_count = game.next_change_rate_count;\r\n        }\r\n        //\r\n        uint256 _price_upper_rate =\r\n            game.price_upper_rate.div(10**_price_upper_decimals).add(100);\r\n        uint256 current_price = game.price; //\r\n        //=*115/100\r\n        current_game.price = current_price.mul(_price_upper_rate).div(100);\r\n\r\n        //\r\n        current_game.bonus_value = current_game.bonus_value.add(\r\n            used_bonus_value\r\n        );\r\n    }\r\n\r\n    /***\r\n    \r\n     */\r\n    function GetEffectiveBuyCount(uint current_buy_count) private returns (uint){\r\n        //\r\n        uint256 threshold_value = uint256(3).mul(10**_trx_decimals);\r\n\r\n        for (uint256 i = 0; i < game_buy_users.length; i++) {\r\n            address temp_user = game_buy_users[i];\r\n            //\r\n            Entitys.UserBenefitAndInvestment memory temp_bi =\r\n                game_investment_benefit[temp_user];\r\n            //\r\n            uint256 user_buy_count = game_user_buy_count[temp_user];\r\n            if (temp_bi.isValue && user_buy_count > 0) {\r\n                //\r\n                uint256 shouyilv = temp_bi.shouyi.div(temp_bi.touru).mul(10**_trx_decimals);\r\n                if (shouyilv >= threshold_value) {\r\n                    current_buy_count = current_buy_count.sub(user_buy_count);\r\n                }\r\n            }\r\n        }\r\n        return current_buy_count;\r\n    }\r\n\r\n    /**\r\n    \r\n    */\r\n    function CheckUserCanBonus(address user) private returns (bool can_bonus) {\r\n        can_bonus = true;\r\n        //\r\n        uint256 threshold_value = uint256(3).mul(10**_trx_decimals);\r\n        //\r\n        Entitys.UserBenefitAndInvestment memory temp_bi =\r\n            game_investment_benefit[user];\r\n        //\r\n        uint256 user_buy_count = game_user_buy_count[user];\r\n        if (temp_bi.isValue && user_buy_count > 0) {\r\n            //\r\n            uint256 shouyilv = temp_bi.shouyi.div(temp_bi.touru).mul(10**_trx_decimals);\r\n            if (shouyilv >= threshold_value) {\r\n                can_bonus=false;\r\n            }\r\n        }\r\n        return can_bonus;\r\n    }\r\n\r\n    /***\r\n     *  \r\n     * */\r\n    function getBuyerBuyCount(address buyer) public view returns (uint256) {\r\n        return game_user_buy_count[buyer];\r\n    }\r\n\r\n    /**\r\n     \r\n     */\r\n    function getBuerIncomeInvestment(address buyer)\r\n        public\r\n        view\r\n        returns (\r\n            uint256 income,\r\n            uint256 investment,\r\n            uint256 recommend_value,\r\n            uint256 buy_count\r\n        )\r\n    {\r\n        Entitys.UserBenefitAndInvestment memory bi =\r\n            game_investment_benefit[buyer];\r\n        income = bi.touru;\r\n        investment = bi.shouyi;\r\n        recommend_value = user_recommend_value[buyer];\r\n        buy_count = game_user_buy_count[buyer];\r\n        return (income, investment, recommend_value, buy_count);\r\n    }\r\n\r\n    function checkGameAndPrize() public view onlyOwner returns (bool) {\r\n        require(_owner == msg.sender, \"Must Owner Execute\");\r\n        uint256 _now = now;\r\n        Entitys.GameStruct memory game = current_game;\r\n        if (game.over_time <= _now) {\r\n            return true;\r\n        }\r\n        return false;\r\n    }\r\n\r\n    function PrizeGame() public onlyOwner returns (bool) {\r\n        require(_owner == msg.sender, \"Must Owner Execute\");\r\n        // grab time\r\n        uint256 _now = now;\r\n        Entitys.GameStruct memory game = current_game;\r\n        if (game.over_time <= _now) {\r\n            //\r\n            if (game.last_buy_user_address != address(0)) {\r\n                if (game.prize_value > 0) {\r\n                    //\r\n                    address(uint160(game.last_buy_user_address)).transfer(\r\n                        game.prize_value\r\n                    ); //\r\n                }\r\n            }\r\n            //-\r\n            for (uint256 i = 0; i < game_buy_users.length; i++) {\r\n                address temp_user = game_buy_users[i];\r\n                delete game_investment_benefit[temp_user];\r\n                delete game_user_buy_count[temp_user];\r\n                delete user_recommend_value[temp_user];\r\n            }\r\n            //\r\n            delete game_buy_users;\r\n            //\r\n\r\n            uint256 temp_now = now;\r\n            uint256 _last_buy_time = temp_now;\r\n            uint256 _over_time = temp_now.add(game.game_times);\r\n            uint256 _buy_price = game.base_prce; //1^6\r\n            uint256 price_upper_rate = game.base_price_upper_rate; //1^18\r\n            uint256 next_change_rate_count = 70;\r\n            uint256 game_id = game.game_id.add(1);\r\n            current_game = Entitys.GameStruct(\r\n                game_id,\r\n                game.name,\r\n                temp_now,\r\n                game.game_times,\r\n                _last_buy_time,\r\n                _over_time,\r\n                _buy_price,\r\n                _buy_price,\r\n                price_upper_rate,\r\n                price_upper_rate,\r\n                Entitys.GameStatus.Ing,\r\n                0,\r\n                0,\r\n                0,\r\n                _owner,\r\n                next_change_rate_count\r\n            );\r\n            return true;\r\n        }\r\n        return false;\r\n    }\r\n\r\n    function kill() public onlyOwner returns (bool) {\r\n        if (_owner == msg.sender) {\r\n            // \r\n            Entitys.GameStruct memory game = current_game;\r\n            if (game.prize_value > 0) {\r\n                address(uint160(_owner)).transfer(game.prize_value);\r\n                selfdestruct(msg.sender);\r\n                return true;\r\n            }\r\n        }\r\n        return false;\r\n    }\r\n}\r\n",
  "sourcePath": "F:/OtherProducts/tron/maxisacoder-tron-dapp-demo/contracts/SingleTokenGame.sol",
  "compiler": {
    "name": "solc",
    "version": "0.5.4+commit.d15a3125.mod.Emscripten.clang"
  },
  "schemaVersion": "2.0.1",
  "updatedAt": "2021-05-24T02:49:26.507Z"
}